:020000040800F2
:1000000000800120F5570408B10F0008BF0F000859
:10001000C50F0008CB0F0008D10F0008000000003A
:10002000000000000000000000000000D70F0008E2
:10003000E50F000800000000F30F000801100008A1
:100040003D5804083D5804083D5804083D5804082C
:100050003D5804083D5804083D5804083D5804081C
:100060003D5804083D5804083D5804083D5804080C
:100070003D580408914504083D5804083D580408BB
:100080003D5804083D5804083D5804083D580408EC
:100090003D5804083D5804083D5804083D580408DC
:1000A0003D5804083D5804083D5804083D580408CC
:1000B0003D5804083D580408711000083D580408D4
:1000C0003D5804083D5804083D5804083D580408AC
:1000D0003D5804083D5804083D5804083D5804089C
:1000E0003D5804083D5804083D5804083D5804088C
:1000F0003D5804083D5804083D5804083D5804087C
:100100003D5804083D5804083D5804083D5804086B
:100110003D5804083D5804083D5804083D5804085B
:100120003D5804083D5804083D5804083D5804084B
:100130003D5804083D5804083D5804083D5804083B
:1001400000000000000000000000000000000000AF
:100150003D5804083D5804083D5804083D5804081B
:100160003D5804083D5804083D5804083D5804080B
:100170003D5804083D5804083D5804083D580408FB
:040180003D580408DA
:1001840010B5054C237833B9044B13B10448AFF3CD
:1001940000800123237010BD5801002000000000DE
:1001A4004868040808B5034B1BB103490348AFF37F
:1001B400008008BD000000005C01002048680408BD
:1001C40053B94AB9002908BF00281CBF4FF0FF31BA
:1001D4004FF0FF3000F074B9ADF1080C6DE904CEB6
:1001E40000F006F8DDF804E0DDE9022304B070470E
:1001F4002DE9F047089D04468E46002B4DD18A42D6
:10020400944669D9B2FA82F252B101FA02F3C2F108
:10021400200120FA01F10CFA02FC41EA030E944099
:100224004FEA1C48210CBEFBF8F61FFA8CF708FBBA
:1002340016E341EA034306FB07F199420AD91CEB92
:10024400030306F1FF3080F01F81994240F21C81C4
:10025400023E63445B1AA4B2B3FBF8F008FB10330C
:1002640044EA034400FB07F7A7420AD91CEB040441
:1002740000F1FF3380F00A81A74240F20781644411
:10028400023840EA0640E41B00261DB1D440002396
:10029400C5E900433146BDE8F0878B4209D9002DFA
:1002A40000F0EF800026C5E9000130463146BDE884
:1002B400F087B3FA83F6002E4AD18B4202D38242EE
:1002C40000F2F980841A61EB030301209E46002D9D
:1002D400E0D0C5E9004EDDE702B9FFDEB2FA82F2F2
:1002E400002A40F09280A1EB0C014FEA1C471FFA50
:1002F4008CFE0126200CB1FBF7F307FB131140EA37
:1003040001410EFB03F0884208D91CEB010103F103
:10031400FF3802D2884200F2CB804346091AA4B2C5
:10032400B1FBF7F007FB101144EA01440EFB00FE99
:10033400A64508D91CEB040400F1FF3102D2A645FE
:1003440000F2BB800846A4EB0E0440EA03409CE79D
:10035400C6F12007B34022FA07FC4CEA030C20FA4A
:1003640007F401FA06F31C43F9404FEA1C4900FA6A
:1003740006F3B1FBF9F8200C1FFA8CFE09FB1811E7
:1003840040EA014108FB0EF0884202FA06F20BD95A
:100394001CEB010108F1FF3A80F08880884240F2AA
:1003A4008580A8F102086144091AA4B2B1FBF9F0EE
:1003B40009FB101144EA014100FB0EFE8E4508D9E9
:1003C4001CEB010100F1FF346CD28E456AD902386E
:1003D400614440EA0840A0FB0294A1EB0E01A14253
:1003E400C846A64656D353D05DB1B3EB080261EBC1
:1003F4000E0101FA07F722FA06F3F1401F43C5E99B
:10040400007100263146BDE8F087C2F12003D840D0
:100414000CFA02FC21FA03F3914001434FEA1C4712
:100424001FFA8CFEB3FBF7F007FB10360B0C43EA04
:10043400064300FB0EF69E4204FA02F408D91CEBB4
:10044400030300F1FF382FD29E422DD902386344B2
:100454009B1B89B2B3FBF7F607FB163341EA034152
:1004640006FB0EF38B4208D91CEB010106F1FF38A1
:1004740016D28B4214D9023E6144C91A46EA004698
:1004840038E72E46284605E70646E3E61846F8E62A
:100494004B45A9D2B9EB020864EB0C0E0138A3E773
:1004A4004646EAE7204694E74046D1E7D0467BE754
:1004B400023B614432E7304609E76444023842E7CC
:1004C400704700BF10F8012B11F8013B012A28BF27
:1004D4009A42F7D0D01A7047034613F8012B002A2A
:1004E400FBD1181A0138704780B58AB000AF0121DA
:1004F400664844F0CFFD07F12003184644F0B0FDF0
:100504004FF400733B62002387F82430042387F8F8
:100514002530102387F82630012387F8273007F188
:10052400200319465A4844F0FFFC4FF400433B6251
:1005340007F120031946564844F0F6FC80233B6239
:1005440007F120031946534844F0EEFC10233B62A4
:1005540007F1200319464E4844F0E6FC10233B62A1
:1005640007F1200319464A4844F0DEFC484B4FF497
:1005740000725A61464B4FF400421A61444B012207
:100584001A61434B02221A6110233B62002387F84D
:100594002630182387F8253007F1200319463C48F4
:1005A40044F0C2FC07F12003184644F059FD20230F
:1005B4003B62002387F82430042387F8253008237E
:1005C40087F82630012387F8273007F120031946DE
:1005D4002F4844F0A9FC80233B6207F1200319460D
:1005E4002B4844F0A1FC40233B62002387F82630CB
:1005F400282387F8253007F120031946244844F0BE
:1006040093FC3B1D184644F08BFE00233B710123F1
:100614007B710123BB710023FB7100233B72012317
:100624007B720123BB720123FB723B1D19461A48DE
:1006340044F098FE0121184844F07AFF012116483D
:1006440044F061FF154844F067FB4FF6FE73FB82EC
:100654001023BB82124B1B683B610123FB760123F1
:100664007B76104BFB600123BB7600233B76022391
:100674007B7700233B7707F10C031946074844F0C6
:10068400F1FB00BF2837BD4680BD00BF0203103018
:1006940000080140001001400030014030000240D9
:1006A400740100200C30014080B584B000AF0346D3
:1006B400FB710023FB6007E0FB680133FB60FB6810
:1006C40042F2107293421ED80221124844F054FFA1
:1006D4000346002BF0D0FB799BB219460D4844F039
:1006E4003CFF0023FB6006E0FB680133FB60FB6812
:1006F400B3F5801F09D28021064844F03DFF03462C
:10070400012BF1D002E000BF00E000BF1037BD466E
:1007140080BD00BF0030014080B582B000AF034609
:10072400FB71074B80225A61FB791846FFF7BCFF27
:10073400034B80221A6100BF0837BD4680BD00BF4D
:100744000010014080B582B000AF0346FB71FB7915
:100754001846FFF7A9FF00BF0837BD4680BD80B526
:1007640082B000AF0346FB80FB881B0A9BB2DBB25E
:100774001846FFF799FFFB88DBB21846FFF794FF92
:1007840000BF0837BD4680BD80B582B000AF0346C8
:10079400FB800B46BB8013467B80BA88FB881146DE
:1007A400184600F0D5F97B881846FFF7D8FF00BF3C
:1007B4000837BD4680BD90B58DB000AF04460846ED
:1007C40011461A462346FB800346BB800B467B80BA
:1007D40013463B800023BB6200237B627A88FB883C
:1007E400D31A3B623A88BB88D31AFB61FB88FB604F
:1007F400BB88BB603B6A002B02DD01237B610BE0FD
:100804003B6A002B02D100237B6105E04FF0FF33EC
:100814007B613B6A5B423B62FB69002B02DD012387
:100824003B610BE0FB69002B02D100233B6105E037
:100834004FF0FF333B61FB695B42FB613A6AFB6942
:100844009A4202DD3B6ABB6101E0FB69BB610023A4
:10085400FB852BE0FB689BB2BA6891B2B7F84020E5
:100864001846FFF791FFBA6A3B6A1344BB627A6A7F
:10087400FB6913447B62BA6ABB699A4207DDBA6AB0
:10088400BB69D31ABB62FA687B691344FB607A6A5A
:10089400BB699A4207DD7A6ABB69D31A7B62BA687C
:1008A4003B691344BB60FB8D0133FB85FA8DBB6947
:1008B40001339A42CEDD00BF00BF3437BD4690BD40
:1008C40090B587B002AF0446084611461A4623463F
:1008D400FB800346BB800B467B8013463B80FB8832
:1008E400FB737A88FB8813447B803A88BB88134463
:1008F4003B8024E0FA887B889A4207D3FB7BFB8009
:1009040097F820309AB2BB881344BB80BA883B88DE
:100914009A421DD27B6A1A7897F82030B988F888F1
:100924000024009400F01AF897F820305B08DBB23A
:100934009AB2FB881344FB807B6A01337B627B6A37
:100944001B787E2B05D87B6A1B781F2BD2D800E03E
:1009540000BF00BF1437BD4690BD000090B585B000
:1009640000AF0446084611461A462346FB80034658
:10097400BB800B46FB701346BB70BB887B81BB7886
:10098400DB08DBB21A46BB7803F00703DBB2002BAB
:1009940014BF01230023DBB21344DAB2BB785B0833
:1009A400DBB212FB03F37B72FB78203BFB7000236A
:1009B4007B7369E0BB780C2B0BD1FA78797B3848D0
:1009C40013465B0013449B0003440B441B78FB73E6
:1009D40019E0BB78102B08D1FA787B7B31491201DE
:1009E4000A4413441B78FB730DE0BB78182B50D1D9
:1009F400FA78797B2C481346DB0013449B000344AC
:100A04000B441B78FB730023BB7335E097F90F305D
:100A1400002B07DA254B1A88B988FB881846FFF79C
:100A2400B3FE0AE097F82030002B06D1204B1A8839
:100A3400B988FB881846FFF7A7FEFB7B5B00FB73B6
:100A4400BB880133BB801B4B5B88BA889A4222D295
:100A5400BA887B89D21ABB789A420AD17B89BB8037
:100A6400FB880133FB80134B1B88FA889A4207D317
:100A740012E0BB7B0133BB73BB7B072BC6D900E001
:100A840000BF7B7B01337B737A7B7B7A9A4291D361
:100A940002E000BF00E000BF1437BD4690BD00BFB8
:100AA40060680408D46C0408C47204087801002047
:100AB400000000207C01002080B584B000AFF86005
:100AC400B9607A603B60214B5B89DBB21846FFF763
:100AD40023FEFB681B0ADBB21846FFF733FEFB68F4
:100AE400DBB21846FFF72EFE7B681B0ADBB2184602
:100AF400FFF728FE7B68DBB21846FFF723FE134B93
:100B04009B89DBB21846FFF707FEBB681B0ADBB202
:100B14001846FFF717FEBB68DBB21846FFF712FE54
:100B24003B681B0ADBB21846FFF70CFE3B68DBB2DE
:100B34001846FFF707FE054B1B89DBB21846FFF783
:100B4400EBFD00BF1037BD4680BD00BF7C01002017
:100B540080B582B000AF03460A46FB801346BB80D3
:100B6400164B5B89DBB21846FFF7D6FDFB881B0AE0
:100B74009BB2DBB21846FFF7E5FDFB88DBB21846F3
:100B8400FFF7E0FD0D4B9B89DBB21846FFF7C4FD70
:100B9400BB881B0A9BB2DBB21846FFF7D3FDBB88A8
:100BA400DBB21846FFF7CEFD044B1B89DBB21846B7
:100BB400FFF7B2FD00BF0837BD4680BD7C010020B1
:100BC40080B582B000AF0346FB71FB79032B63D879
:100BD40001A252F823F000BFED0B0008190C000825
:100BE400450C0008710C00082E4B80221A802D4BF6
:100BF400A0225A802B4B2A225A812A4B2B229A81DB
:100C0400284B2C221A813620FFF786FD0820FFF797
:100C140099FD42E0234BA0221A80224B80225A8065
:100C2400204B2A225A811F4B2B229A811D4B2C22A6
:100C34001A813620FFF770FDA820FFF783FD2CE012
:100C4400184B80221A80174BA0225A80154B2A2257
:100C54005A81144B2B229A81124B2C221A81362052
:100C6400FFF75AFDC820FFF76DFD16E00D4BA022DB
:100C74001A800C4B80225A800A4B2A225A81094B33
:100C84002B229A81074B2C221A813620FFF744FD30
:100C94006820FFF757FD00E000BF00BF0837BD46DE
:100CA40080BD00BF7C01002080B500AF1120FFF79C
:100CB40033FD0A2044F044FFCF20FFF72DFD002030
:100CC400FFF740FDC120FFF73DFD3020FFF73AFD5F
:100CD400ED20FFF721FD6420FFF734FD0320FFF72B
:100CE40031FD1220FFF72EFD8120FFF72BFDE820B8
:100CF400FFF712FD8520FFF725FD0020FFF722FDF9
:100D04007920FFF71FFDCB20FFF706FD3920FFF701
:100D140019FD2C20FFF716FD0020FFF713FD3420EA
:100D2400FFF710FD0220FFF70DFDF720FFF7F4FC9D
:100D34002020FFF707FDEA20FFF7EEFC0020FFF775
:100D440001FD0020FFF7FEFCC020FFF7E5FC1D209D
:100D5400FFF7F8FCC120FFF7DFFC1220FFF7F2FCDD
:100D6400C520FFF7D9FC3320FFF7ECFC3F20FFF749
:100D7400E9FCC720FFF7D0FC9220FFF7E3FC3A2000
:100D8400FFF7CAFC5520FFF7DDFCB120FFF7C4FCD8
:100D94000020FFF7D7FC1220FFF7D4FCB620FFF7A2
:100DA400BBFC0A20FFF7CEFCA220FFF7CBFC4420BB
:100DB400FFF7B2FC0220FFF7C5FCF220FFF7ACFC02
:100DC4000020FFF7BFFC2620FFF7A6FC0120FFF759
:100DD400B9FCE020FFF7A0FC0F20FFF7B3FC2220B2
:100DE400FFF7B0FC1C20FFF7ADFC1B20FFF7AAFCAB
:100DF4000820FFF7A7FC0F20FFF7A4FC4820FFF70B
:100E0400A1FCB820FFF79EFC3420FFF79BFC0520D3
:100E1400FFF798FC0C20FFF795FC0920FFF792FCE4
:100E24000F20FFF78FFC0720FFF78CFC0020FFF753
:100E340089FCE120FFF770FC0020FFF783FC2320EE
:100E4400FFF780FC2420FFF77DFC0720FFF77AFCE6
:100E54001020FFF777FC0720FFF774FC3820FFF71A
:100E640071FC4720FFF76EFC4B20FFF76BFC0A2058
:100E7400FFF768FC1320FFF765FC0620FFF762FC10
:100E84003020FFF75FFC3820FFF75CFC0F20FFF7F2
:100E940059FC2920FFF740FC00BF80BD80B500AF9E
:100EA400FFF722FB0F4B4FF400425A61642044F0D9
:100EB40047FE0C4B4FF400421A61642044F040FE9C
:100EC400084B4FF400721A61642044F039FE054B5C
:100ED40001225A61FFF7E8FE0220FFF771FE00BF0E
:100EE40080BD00BF0008014080B584B000AF034658
:100EF400FB800023FB8114E0FB8919460020FFF7E7
:100F040027FE0023BB8106E0FB881846FFF727FC79
:100F1400BB890133BB81BB897F2BF5D9FB890133A5
:100F2400FB81FB899F2BE7D900BF00BF1037BD466B
:100F340080BD80B500AF43F0F5FB0121012043F0F3
:100F4400B3FC00BF43F04CFC0346002BFAD0012253
:100F54003B21022043F03EFD002043F0C7FE012167
:100F6400022043F0A1FC00BF192043F011FC03460A
:100F7400012BF9D1002043F0EBFC042043F014FDD5
:100F8400042043F0FBFC012043F094FE022043F0D4
:100F94006FFD00BF43F096FD0346022BFAD10020FB
:100FA40043F088FE44F08EFC00BF80BD80B400AFE7
:100FB40000BFBD465DF8047B704780B400AFFEE718
:100FC40080B400AFFEE780B400AFFEE780B400AFAA
:100FD400FEE780B400AF00BFBD465DF8047B7047F8
:100FE40080B400AF00BFBD465DF8047B704780B499
:100FF40000AF00BFBD465DF8047B704780B400AF0E
:1010040000BFBD465DF8047B7047000080B582B028
:1010140000AF03460A46FB801346BB8001211148FA
:1010240043F003FCFB88BA8819460F4844F0D2FA0F
:1010340000210D4844F0E5FA012201210A4844F058
:10104400F5FA072044F040F9002201211E2044F063
:101054001AF90121044844F0A8FA00BF0837BD4634
:1010640080BD00BF02001C000008004080B400AF37
:10107400064B00221A61064B1B680133044A1360B5
:1010840000BFBD465DF8047B704700BF0008004008
:101094008C01002080B582B002AF1F4B4FF6FF7267
:1010A4001A801E4B1F221A80642044F049FD1C4BF9
:1010B4000193102300933223642246212420FFF756
:1010C400FFFB4FF4FA6044F03BFD4FF6FF730093CF
:1010D40000233F2241212220FFF76DFB4FF6FF73CF
:1010E400009341235D2200213F20FFF764FB4FF66C
:1010F400FF7300934123222235213F20FFF75BFB3E
:101104004FF6FF73009341235D2235213F20FFF703
:1011140052FB00BFBD4680BD7801002000000020C6
:101124002080040880B500AFFFF703FF00F05AF8F1
:1011340044F0E6FC4FF4E13044F09CFC0A4844F0EF
:10114400E5FD40F2E731BF20FFF760FF00F00EF845
:10115400FFF7A4FE37F0A8FD43F032FA1F20FFF793
:10116400C3FEFFF797FFFCE72880040880B500AFB3
:1011740001214FF4A01043F058FB0121164843F01D
:1011840054FB01214FF4C01043F04FFB01211348DD
:1011940043F04BFB0121114843F047FB01210F4869
:1011A40043F043FB01210E4843F03FFB01210B4870
:1011B40043F03BFB0121094843F037FB0121074879
:1011C40043F033FB0121054843F02FFB0121034881
:1011D40043F02BFB00BF80BD0C0018000200180078
:1011E4000400180080B500AF032044F06DF802221B
:1011F40000210D2044F047F800BF80BD80B584B0C5
:1012040000AF786039601022396878683FF028FCB4
:101214000346FB60FB681BB218461037BD4680BD11
:1012240080B584B000AF786039601122396878687D
:101234003FF016FC0346FB60FB681BB218461037F0
:10124400BD4680BD80B584B000AF7860396012229D
:10125400396878683FF004FC0346FB60FB681BB206
:1012640018461037BD4680BD80B584B000AF7860A5
:1012740039601322396878683FF0F2FB0346FB605B
:10128400FB681BB218461037BD4680BD80B584B0DC
:1012940000AF786039605022396878683FF0E0FB2D
:1012A4000346FB60FB681BB218461037BD4680BD81
:1012B40080B584B000AF78603960512239687868AD
:1012C4003FF0CEFB0346FB60FB68002B14BF0123F9
:1012D4000023DBB218461037BD4680BD80B584B00C
:1012E40000AF78600B467B807B68BB607B88B3F57E
:1012F400B47F03D97B88A3F5B4737B80BB681A8D54
:10130400BB68DB8CD31A9BB2FB81BB681A8D7B88CC
:10131400D31A9BB2BB81B7F90E30002B04DAFB89D8
:1013240003F5B4739BB2FB81B7F90C30002B04DADC
:10133400BB8903F5B4739BB2BB81B7F90C20B7F931
:101344000E30D31A002BB8BF5B42B42B03DD786890
:101354003CF0C7F81CE0B7F90C20B7F90E309A42FC
:1013640008DABB68D98C7A884FF40033786800F0C7
:101374001BFF0DE0B7F90E20B7F90C309A4207DADB
:10138400BB68DA8C79884FF40033786800F00CFF7E
:10139400786800F088FFBB687A88DA84786800F09F
:1013A40082FF00BF1037BD4680BD80B584B000AF5A
:1013B40078600B467B807B68BB607B88B3F5B47F29
:1013C40003D97B88A3F5B4737B80BB681A8DBB6893
:1013D400DB8CD31A9BB2FB81BB68DB8C7A88D31A73
:1013E4009BB2BB81B7F90E30002B04DAFB8903F5FD
:1013F400B4739BB2FB81B7F90C30002B04DABB89C0
:1014040003F5B4739BB2BB81B7F90C20B7F90E3066
:10141400D31A002BB8BF5B42B42B03DD78683CF0D1
:1014240060F81CE0B7F90C20B7F90E309A4208DADC
:10143400BB681A8D79884FF40033786800F0B4FEE5
:101444000DE0B7F90E20B7F90C309A4207DABB6801
:10145400198D7A884FF40033786800F0A5FE786817
:1014640000F021FFBB687A881A85786800F01BFFBA
:1014740000BF1037BD4680BD80B582B000AF786034
:101484000B467B8013463B803B8819467868FFF700
:101494008CFF7B8819467868FFF720FF00BF083768
:1014A400BD4680BD80B584B000AF78600B467B80BC
:1014B4007B68BB607B88B3F5B47F03D97B88A3F5D5
:1014C400B4737B80BB689A8DBB685B8DD31A9BB267
:1014D400FB81BB689A8D7B88D31A9BB2BB81B7F919
:1014E4000E30002B04DAFB8903F5B4739BB2FB8145
:1014F400B7F90C30002B04DABB8903F5B4739BB243
:10150400BB81B7F90C20B7F90E30D31A002BB8BF42
:101514005B42B42B03DD78683BF0E3FF1AE0B7F9D4
:101524000C20B7F90E309A4207DABB68598D7A88D5
:101534000023786800F038FE0CE0B7F90E20B7F904
:101544000C309A4206DABB685A8D79880023786891
:1015540000F02AFEBB687A885A85786801F04EF854
:1015640000BF1037BD4680BD80B584B000AF786041
:101574000B467B807B68BB607B88B3F5B47F03D963
:101584007B88A3F5B4737B80BB689A8DBB685B8D45
:10159400D31A9BB2FB81BB685B8D7A88D31A9BB24A
:1015A400BB81B7F90E30002B04DAFB8903F5B47361
:1015B4009BB2FB81B7F90C30002B04DABB8903F52D
:1015C400B4739BB2BB81B7F90C20B7F90E30D31AB0
:1015D400002BB8BF5B42B42B03DD78683BF081FF7E
:1015E4001AE0B7F90C20B7F90E309A4207DABB6853
:1015F4009A8D79880023786800F0D6FD0CE0B7F95D
:101604000E20B7F90C309A4206DABB68998D7A88B5
:101614000023786800F0C8FDBB687A889A857868EA
:1016240000F0ECFF00BF1037BD4680BD80B582B02E
:1016340000AF78600B467B8013463B803B8819469D
:101644007868FFF791FF7B8819467868FFF72AFFCF
:1016540000BF0837BD4680BD80B584B000AF786058
:101664000B467B807B68FB60FB687A889A84786889
:101674003BF037FF00BF1037BD4680BD80B584B056
:1016840000AF78600B467B807B68FB60FB68B3F936
:101694002E30B7F902209A421FD0FB68B3F93230DA
:1016A400B7F902209342A8BF13467B81FB68B3F9C4
:1016B4003030B7F90A209342B8BF13467B81FB68E8
:1016C400B3F92E30B7F90A209A4208D0FB687A8918
:1016D400DA85786800F092FF02E000BF00E000BF06
:1016E4001037BD4680BD80B483B000AF78607B689E
:1016F400B3F92E3018460C37BD465DF8047B7047AD
:1017040080B584B000AF786039603B68FB60FB68EB
:1017140000229A84FB6887225A85FB682D229A85C9
:10172400FB688722DA84FB684FF487721A85FA68AB
:1017340092F834306FF3420382F83430FB684FF48C
:101744000042DA85FA6892F8343043F0080382F8EC
:101754003430FB6800221A86FB6864225A86FA68D1
:1017640092F834306FF3000382F83430FB684FF49E
:101774003472DA8616F0E4FB0246FB689A63FB686F
:101784001B8D1AB2FB689A870221386837F0F2FA87
:101794004FF44471386837F041FB0D2138683BF051
:1017A400DEFF00BF1037BD4680BD0000B0B5A2B05B
:1017B40002AF786039603968B54836F02BF80346D3
:1017C40087F8773097F87730012B40F087833868B3
:1017D40036F076F8034687F87630386836F058F8ED
:1017E4003867386836F054F8F86697F87630022B84
:1017F40040F0DD8136F02EFEF863FB6B002B00F029
:101804006F83F86B36F032FE034687F83B3097F867
:101814003B30012B40F0668307F120031946F86B37
:1018240036F0D5FE07F11A0207F11C031946386F8A
:1018340000F058FDB7F920309AB2B7F91C309BB2CA
:10184400D31A9BB21BB23B84B7F922309AB2B7F9D0
:101854001E309BB2D31A9BB21BB27B84FB6E93F8EF
:10186400343003F00103DBB2002B5BD14FF40031C1
:10187400386FFFF70BFD03463B87B7F91A309AB26E
:101884003B8FD31A9BB21BB27B834FF48031386FEA
:1018940037F055FB0346002B08D0B7F91A309AB23B
:1018A4003B8FD31A9BB21BB27B8314E0B7F91A3077
:1018B4009AB2B7F91A30002B00DA03339B101BB22B
:1018C400B7F938108B42B8BF0B461BB29BB2D31A80
:1018D4009BB21BB27B83B7F91A30002B01DC0123C6
:1018E4007B83B7F92030B7F9202003FB02F2B7F964
:1018F4002230B7F9221001FB03F31A44B7F91A3066
:10190400B7F91A1001FB03F39A420BDDFA6E92F851
:10191400343043F0010382F8343016F011FB0246F0
:10192400FB6E9A63FB6E93F8343003F00103DBB271
:10193400002B00F0D982B7F92030002B04D1B7F97D
:101944002230002B00F0D282FB6E9B8DA7F87C30F6
:10195400FB6E9A8DFB6E5B8D9A4206D2FB6E9B8D5D
:1019640003F5B4739BB2A7F87C30B7F922301A465A
:10197400B7F920301946104611F074FC0346A7F855
:101984007E30B7F87E20FB6E9B8CD31A9BB2A7F8EF
:101994007E30B7F87E20FB6E5B8DD31A9BB2A7F81E
:1019A4007E30B7F97E30002B06DAB7F87E3003F5C7
:1019B400B4739BB2A7F87E30B7F87C20FB6E5B8DC6
:1019C400D31A9BB2FB86FB6EB3F93C309AB2FB6E22
:1019D4005B8DD31A9BB2BB86B7F87E20BB8ED31A1D
:1019E4009BB2A7F87A30B7F97A30002BB8BF5B42C4
:1019F4009BB2B3F58C7F0FD9FB6E93F8343003F0B0
:101A04000803DBB2002B03D00023A7F87E301CE0D0
:101A1400FB8EA7F87E3018E0B7F93630DA0F13449E
:101A24005B101BB2B7F97E209A4207DAFA6E92F87D
:101A3400343043F0080382F8343006E0FA6E92F84A
:101A440034306FF3C30382F83430B7F87E20BB8E92
:101A5400D31A9BB2A7F87A30FB6E9B6B184616F02C
:101A640089FA3863FB6EDB8E1A463B6B02FB03F389
:101A7400084AA2FB03239B09FB85B7F97A20B7F92F
:101A84002E309A4208DDFB8DA7F87A3010E000BFB3
:101A940038800408D34D6210B7F97A20B7F92E3094
:101AA4005B429A4204DAFB8D5B429BB2A7F87A3020
:101AB400BA8EB7F87A3013449BB2A7F87E30B7F9E0
:101AC4007C30FA6E528D9B1ADA00FB6EB3F9323019
:101AD4001946FB6EB3F93030CB1A92FBF3F3BB62B9
:101AE400BB6A04331B11BB62BB6A9AB2B7F87E307F
:101AF40013449BB2A7F87E30FB6E5A8DB7F87E3044
:101B040013449BB2A7F87E30FB6EDB8DFB84B7F9E0
:101B14007E00FB6E5B8D1946B7F97C20FB6EB3F932
:101B240030301C46FB6EB3F932300093234611F07B
:101B340086FC0346BB84386FFFF7D5FD03461A467F
:101B4400B7F9243093421DD016F0FAF90246FB6E21
:101B54009A63B7F924301946386FFFF78FFDB7F948
:101B64002420B7F926309A420CD000221C21386F69
:101B740035F00EFE034687F8773097F87730012B5F
:101B840040F0B681FB6EB3F93030B7F924209A42A5
:101B940007D0FB6EB3F93230B7F924209A4240F0F3
:101BA400AA8116F0CDF90246FB6E9A63A3E197F879
:101BB4007630082B03D097F87630032B28D1FA6EB1
:101BC40092F834306FF3000382F83430386F37F012
:101BD400EBF97864786C36F0E0FA034687F8433022
:101BE40036F038FC0346184636F040FC034687F8C6
:101BF400423097F84230042B40F07C8197F8433010
:101C0400002B00F077810021786C36F06DFA71E1D9
:101C140097F876300D2B47D1386835F060FE0346CF
:101C24001B7887F84D30FB6EDB8DA7F84A3097F8A8
:101C34004D30132B03D097F84D30112B0CD1386F46
:101C4400FFF751FD03469BB201339BB21BB2194609
:101C5400386FFFF713FD13E097F84D30142B03D0C2
:101C640097F84D30122B0BD1386FFFF73CFD03462C
:101C74009BB2013B9BB21BB21946386FFFF7FEFCC7
:101C8400FB6EB3F92E30B7F94A209A4200F0338143
:101C940000221C21386F35F07BFD034687F877302E
:101CA40097F87730012B26E197F87630112B40F026
:101CB4008C80386835F013FE386507F1120207F19D
:101CC40014031946386F00F00DFB0023A7F8783091
:101CD4003B6F9B68002B04D03B6F9B689B8AA7F8E3
:101CE40078300021386FFFF7D1FA0346A7F84E3059
:101CF400B7F912309AB2B7F84E10B7F878300B44EF
:101D04009BB2D31A9BB21BB27B82B7F914309AB23E
:101D1400B7F912309BB2D31A9BB219B2B7F9163085
:101D24009AB2B7F912309BB2D31A9BB21CB2B7F96C
:101D340014309AB2B7F912309BB213449BB21DB25D
:101D4400B7F916309AB2B7F912309BB213449BB26A
:101D54001BB207F1080000932B4622460FF054FDF6
:101D64003B6D196807F1080347F6FF7218460FF038
:101D7400B4FE0346002B03D03B6D00221A71BAE077
:101D8400B7F878305B009AB2B7F84E3013449BB280
:101D940019B2B7F878305B009AB2B7F84E301344F2
:101DA4009BB21AB207F1080318460FF09DFD3B6D74
:101DB400196807F1080347F6FF7218460FF08DFE05
:101DC40003461A463B6D1A7195E097F87630132B4B
:101DD4007CD10021386FFFF735FA0346A7F86A3043
:101DE4000021386FFFF740FA0346A7F86830002156
:101DF400386FFFF703FA0346A7F866300021386FFF
:101E0400FFF70EFA0346A7F86430B7F96420B7F970
:101E140066309342B8BF13461AB2B7F96810B7F9DF
:101E24006A308B42B8BF0B461BB29342B8BF13460D
:101E3400A7F862304FF44031386FFFF703FA0346D6
:101E4400A7F860304FF44031386FFFF70DFA0346BE
:101E5400A7F85E304FF44031386FFFF7CFF90346EF
:101E6400A7F85C304FF44031386FFFF7D9F90346D7
:101E7400A7F85A30B7F95A20B7F95C309342B8BF83
:101E840013461AB2B7F95E10B7F960308B42B8BF87
:101E94000B461BB29342B8BF13461BB29BB202332C
:101EA4009BB2A7F85830386835F019FD7865B7F952
:101EB4005820B7F96230D31A7A6DB2F900209342F0
:101EC400B8BF13461AB27B6D1A8014E097F87630C7
:101ED400152B10D1386800F011F80CE000BF0AE0AF
:101EE40000BF08E000BF06E000BF04E000BF02E05E
:101EF40000BF00E000BF8037BD46B0BD90B5B3B0B1
:101F040002AF7860786835F0C3FCC7F8BC00D7F836
:101F1400BC30C7F8B830786835F0EDFDC7F8B400C8
:101F240007F1A20207F1A4031946D7F8BC0000F098
:101F3400D9F907F15803D7F8B410184639F057FB0C
:101F4400B7F9A230002B4CDD07F1480318462FF0F7
:101F540098FD07F148031A460021D7F8BC0039F070
:101F64003FFA0023C7F88C308E4BFB6500233B6699
:101F740007F1A403FB67B7F9A230A7F8943007F17F
:101F84004803BB6707F158031A461A21D7F8BC0067
:101F940035F0FEFBB7F994309CB2D7F8B8305A8DBF
:101FA400D7F8B8309B8C13449BB2D7F8B820918DE6
:101FB400D7F8B820928C0A4492B207F1A40007F132
:101FC40048010192009323460246D7F8B4002FF04B
:101FD4006EFD07F158031A461B21D7F8BC0035F0F3
:101FE400D7FB4FF40031D7F8BC00FFF72BF90346B9
:101FF400A7F8B2304FF40031D7F8BC00FFF734F93A
:102004000346A7F8B0304FF40031D7F8BC00FFF70F
:10201400F5F80346A7F8AE304FF40031D7F8BC000A
:10202400FFF7FEF80346A7F8AC30B7F9A2309AB22E
:10203400B7F9AC10B7F9AE308B42B8BF0B4619B242
:10204400B7F9B000B7F9B2308342B8BF03461BB248
:102054008B42B8BF0B461BB29BB2D31A9BB2A7F8F4
:10206400AA30B7F9AA30002B58DD07F14803184607
:102074002FF007FD07F148031A464FF40031D7F853
:10208400BC0039F0ADF94FF40033C7F88C30454B40
:10209400FB6501233B6607F1A403FB67B7F8AA308D
:1020A400A7F8943007F14803BB6707F158031A46B1
:1020B4001A21D7F8BC0035F06BFBB7F94A20B7F901
:1020C40094309A4203DDB7F99430A7F84A30B7F94F
:1020D40094309CB2D7F8B830DA8CD7F8B8309B8CEF
:1020E40013449BB2D7F8B820118DD7F8B820928C3E
:1020F4000A4492B207F1A40007F148010192009347
:1021040023460246D7F8B4002FF0D1FC07F1580358
:102114001A461B21D7F8BC0035F03AFBB7F9A220C8
:1021240007F1400307F1A401D7F8BC0000F0CDF992
:1021340007F10803184634F0EBF807F108031A46D0
:102144004FF44031D7F8BC0038F010FE4FF4403360
:10215400C7F88C30134BFB6502233B6607F1400341
:102164007B6607F10803BB6607F158031A461A2178
:10217400D7F8BC0035F00CFB07F1400207F1080367
:102184001946D7F8B40034F009F907F158031A4690
:102194001B21D7F8BC0035F0FBFA00BFC437BD469D
:1021A40090BD00BF38800408B0B58EB004AFF860AD
:1021B4007B600B467B8113463B81F8683BF092FAC7
:1021C400034683F00103DBB2002B66D1FB687B621C
:1021D4007A893B899A4262D07B89B3F5B47F03D96B
:1021E4007B89A3F5B4737B813B89B3F5B47F03D9B1
:1021F4003B89A3F5B4733B817B6A9A8C7B89134436
:102204007B817B6A9A8C3B8913443B817B89B3F540
:10221400B47F03D97B89A3F5B4737B813B89B3F580
:10222400B47F03D93B89A3F5B4733B8107F11E0244
:1022340007F118031946F86800F054F87968F8684B
:10224400FFF724F803467B847968F868FFF730F8D1
:1022540003463B84B7F91800B7F91A10B7F91E30D2
:102264009CB2B7F92030002B14BF01230023DBB24A
:102274007D8907F1100203920293B7F9223001938A
:102284003B8900932B4622462FF03AFC07F11003BA
:102294001946F8683BF0F0F802E000BF00E000BF28
:1022A4002837BD46B0BD80B586B000AF786007F171
:1022B400120207F114031946786800F013F8B7F90D
:1022C400122007F1080307F11401786800F0FDF803
:1022D40007F10803194678683BF0CEF800BF1837B9
:1022E400BD4680BD90B589B000AFF860B9607A6032
:1022F4000021F868FEF7A6FF0346FB830021F86877
:10230400FEF7B2FF0346BB830021F868FEF776FFB1
:1023140003467B830021F868FEF782FF03463B8374
:10232400F8683AF01FFB03461A46B7F91E30D21A72
:10233400B7F91C30D41AF8683AF022FB03461A465F
:10234400B7F91A30D21AB7F91830D31A9C420FDAF7
:10235400F8683AF007FB03461A46B7F91E30D21A5A
:10236400B7F91C30D31ADA0F13445B101BB20EE01A
:10237400F8683AF005FB03461A46B7F91A30D21A40
:10238400B7F91830D31ADA0F13445B101BB2FB826F
:10239400FB68B3F914309AB2FB8A13449AB2FB8BEC
:1023A40013449BB21AB2BB681A80FB68B3F91630A7
:1023B4009AB2FB8A13449AB27B8B13449BB21AB22F
:1023C400BB685A807B68002B02D07B68FA8A1A802B
:1023D40000BF2437BD4690BD80B487B000AF78609D
:1023E4007B68FB60FB689B8CFB82FB6893F8343052
:1023F40003F00603DBB2002B05D1FB681A8DFB8AC0
:102404001344FB8259E0FB6893F8343003F006036D
:10241400DBB2042B05D1FB68DA8CFB8A1344FB8204
:102424004BE0FB6893F8343003F00603DBB2022B75
:1024340043D1FB689B8DBB82FB689A8DFB685B8DE7
:102444009A4205D2FB689B8D03F5B4739BB2BB82A1
:10245400FB681B8D7B82FB681A8DFB68DB8C9A42C0
:1024640005D2FB681B8D03F5B4739BB27B82FB68BA
:102474005B8D1A46B7F914301344DA0F13445B101A
:10248400BB60FB68DB8C1A46BB68934205DDFB68C6
:10249400DA8CFB8A1344FB820FE0B7F91230BA6876
:1024A4009A4205DAFB681A8DFB8A1344FB8204E026
:1024B400BB689AB2FB8A1344FB82B7F916301846FC
:1024C4001C37BD465DF8047B704790B58BB000AFF8
:1024D400F860B9603B601346FB804FF40031F86844
:1024E400FEF7D4FE0346FB84B7F92630DA0F134413
:1024F4005B10BB84FA88BB8CD31A9BB2FB80F86850
:10250400FFF76AFF03467B84B7F906407B8C5A3396
:102514009BB21BB2184610F0E3FD034604FB03F321
:10252400DB133B84B7F90640B7F92230184610F0A4
:10253400D7FD034604FB03F3DB13FB834FF4403165
:10254400F868FEF77FFE0346BB834FF44031F8681A
:10255400FEF78AFE03467B834FF44031F868FEF7AA
:102564004DFE03463B834FF44031F868FEF758FEB6
:102574000346FB82BB68B3F900309AB23B8C134428
:102584009AB2BB8BD31A9AB2BB8CD31A9BB21AB22F
:102594003B681A80BB68B3F900309AB23B8C134491
:1025A4009AB27B8B13449AB2BB8C13449BB21AB27B
:1025B4003B689A80BB68B3F902309AB2FB8B134430
:1025C4009AB23B8BD31A9AB2BB8CD31A9BB21AB26F
:1025D4003B685A80BB68B3F902309AB2FB8B134450
:1025E4009AB2FB8A13449AB2BB8C13449BB21AB2BC
:1025F4003B68DA8000BF2C37BD4690BD90B589B0EA
:1026040002AF78607B683B613B69B3F92E3013F508
:10261400004F00F0BE803B699B8DFB823B699A8D25
:102624003B695B8D9A4205D23B699B8D03F5B4737C
:102634009BB2FB823B6993F83430C3F34103DBB2B2
:10264400022B64D0022B00F3A680002B7ED0012B3A
:1026540040F0A1803B695B8D1A46B7F916301344EC
:10266400DA0F13445B10FB813B69B3F930301A462F
:102674003B69B3F932301344DA0F13445B10BB8166
:102684003B69B3F92E30B7F90C209A421FDD3B6940
:10269400B3F92E3018463B69B3F930301946B7F90F
:1026A4000C203B695B8D1C46B7F90E300093234622
:1026B40010F0C5FE0346BB82BB8A19467868FEF754
:1026C4000DFEFB8919467868FEF76FFE5DE03B69F5
:1026D400B3F92E301846B7F90C103B69B3F9323010
:1026E4001C46B7F90E20B7F916300093134622465C
:1026F40010F0A5FE0346BB82FB8919467868FEF7F5
:10270400EDFDBB8A19467868FEF74FFE3DE03B6954
:10271400B3F92E3018463B69B3F9303019463B699A
:10272400B3F932301C46B7F916203B695B8D009330
:102734001346224610F083FE0346BB82B98A3B69E6
:102744009B8D1A467868FEF797FE1EE03B69B3F945
:102754002E3018463B69B3F9303019463B69B3F95A
:1027640032301A463B695B8D1C46B7F9163000932C
:10277400234610F064FE0346BB823B695B8DBA8A34
:1027840019467868FEF778FE00BF3B69BA8A9A87D3
:1027940002E000BF00E000BF1C37BD4690BD80B41E
:1027A40083B000AF786039603B68B3F900207B6880
:1027B4001A803B68B3F902207B685A803B68B3F9FE
:1027C40004207B689A803B68B3F906207B68DA8032
:1027D40000BF0C37BD465DF8047B704780B483B0FE
:1027E40000AF78607B68B3F904309AB27B68B3F9C0
:1027F40000309BB2D31A9BB201339BB21BB2184672
:102804000C37BD465DF8047B704780B483B000AFDD
:1028140078607B68B3F906309AB27B68B3F902300A
:102824009BB2D31A9BB201339BB21BB218460C372E
:10283400BD465DF8047B704780B483B000AF786018
:1028440039607B683A681A6000BF0C37BD465DF892
:10285400047B704780B483B000AF786039607B68D4
:102864003A685A6000BF0C37BD465DF8047B704778
:1028740080B483B000AF786039603A687B68DA620C
:1028840000BF0C37BD465DF8047B704780B485B04B
:1028940000AFF860B9607A60FB68BA681A62FB68D6
:1028A400BA685A62FB687A689A6200BF1437BD46F8
:1028B4005DF8047B704780B483B000AF7860396002
:1028C4007B683A68DA6000BF0C37BD465DF8047B6C
:1028D400704780B584B000AF786039606822396889
:1028E40078683EF0BDF80346FB60FB681BB21846EF
:1028F4001037BD4680BD80B584B000AF78603960C4
:102904006922396878683EF0ABF80346FB60FB68DF
:102914001BB218461037BD4680BD80B584B000AFE9
:10292400786039601022396878683EF099F8034677
:10293400FB60FB681BB218461037BD4680BD80B5EE
:1029440084B000AF786039601122396878683EF04D
:1029540087F80346FB60FB681BB218461037BD4678
:1029640080BD80B584B000AF7860396012223968C8
:1029740078683EF075F80346FB60FB681BB21846A6
:102984001037BD4680BD80B584B000AF7860396033
:102994001322396878683EF063F80346FB60FB68ED
:1029A4001BB218461037BD4680BD80B584B000AF59
:1029B400786039600B22396878683EF051F8034634
:1029C400FB60FB681BB218461037BD4680BD80B55E
:1029D40084B000AF786039606422396878683EF06A
:1029E4003FF80346FB60FB6818461037BD4680BDC0
:1029F40080B584B000AF7860396016223968786891
:102A04003EF02EF80346FB60FB68DBB21846103735
:102A1400BD4680BD80B588B002AFF860B96013468A
:102A2400FB71FB687B617B695B6ABA689A4225D05B
:102A34007B69DA6ABB689A42A8BF1A467B699B6ABB
:102A44009342B8BF1346BB607B691B6BBA68934261
:102A5400B8BF1346BB607B695B6ABA689A420FD001
:102A64007B6903F124027B6903F13C01FB79009348
:102A74000B46B968F86800F04BFF02E000BF00E0C5
:102A840000BF1837BD4680BD80B588B002AFF8607E
:102A9400B9601346FB71FB687B617B6993F85C301A
:102AA40003F00303DBB2022B25D17B69DA6ABB682E
:102AB4009A42A8BF1A467B699B6A9342B8BF1346E1
:102AC400BB607B695B6ABA689342A8BF1346BB606C
:102AD4007B691B6BBA689A420FD07B6903F13002A1
:102AE4007B6903F14C01FB7900930B46B968F868E4
:102AF40000F00EFF02E000BF00E000BF1837BD4643
:102B040080BD80B485B000AF78607B68FB60FB68F3
:102B14009B6CB3F1FF3F02D0FB685B6C01E0FB6888
:102B24005B6A18461437BD465DF8047B704780B471
:102B340085B000AF78607B68FB60FB6893F85C301D
:102B440003F00303DBB2022B02D0FB689B6A09E0AB
:102B5400FB689B6DB3F1FF3F02D0FB685B6D01E046
:102B6400FB681B6B18461437BD465DF8047B704741
:102B740080B485B000AF78607B68FB60FB6893F835
:102B84005C30C3F30103DBB218461437BD465DF86D
:102B9400047B704780B584B000AF786039603B68CF
:102BA400FB60FB6800229A62FB686422DA62FB68BD
:102BB40000221A63FB6800225A62FB6800229A868C
:102BC400FB6800221A87FB680022DA86FB68002271
:102BD4005A87FA6892F85C306FF3010382F85C302C
:102BE400FB683C331946386800F0F6FEFB684C334A
:102BF4001946386800F0F0FE0821386836F00EF9FE
:102C04001021386836F00AF9002200213868FFF7ED
:102C140001FF00BF1037BD4680BD80B584B000AF52
:102C2400786039603B68FB60FB683C3300211846E0
:102C34000EF01AFBFB684C33002118460EF014FB0F
:102C440000BF1037BD4680BD80B5E0B000AF07F5CA
:102C5400C073A3F5BE73186007F5C073A3F5BE7304
:102C6400186834F015FEC7F86401D7F86431C7F862
:102C7400603107F5C073A3F5BE73186834F03BFFE9
:102C8400C7F85C0107F58C731946D7F8640139F06D
:102C9400CBFD0021D7F86401FFF71BFE0346A7F81C
:102CA4005A310021D7F86401FFF725FE0346A7F83F
:102CB4005831B7F918319AB2B7F85A31D31A9BB2CE
:102CC4001BB2A7F81831B7F91C319AB2B7F85A31C8
:102CD40013449BB21BB2A7F81C31B7F91A319AB24C
:102CE400B7F85831D31A9BB21BB2A7F81A31B7F907
:102CF4001E319AB2B7F8583113449BB21BB2A7F8ED
:102D04001E3107F58C731846FFF768FD0346A7F8D4
:102D1400563107F58C731846FFF777FD0346A7F87D
:102D24005431D7F86031DA6AD7F860319B6AD31A24
:102D3400C7F85031B7F95621B7F954319A42ACBFAC
:102D44000123002387F84F31002387F87F31D7F818
:102D5400603193F85C3003F00303DBB2012B14D130
:102D6400D7F860319B6A002B0FDAD7F86031DB6A41
:102D7400002B0ADDD7F860311A6BD7F860319B6AF3
:102D84009A4202D1012387F87F310021D7F86401E8
:102D9400FFF7E7FD0346A7F84C310021D7F864019B
:102DA400FFF7F1FD0346A7F84A310021D7F8640183
:102DB400FFF7B3FD0346A7F848310021D7F86401B3
:102DC400FFF7BDFD0346A7F84631D7F86031343329
:102DD40007F58C7211461846FFF7E1FCD7F860310D
:102DE400B3F934309AB2B7F84C3113449BB21AB2E7
:102DF400D7F860319A86D7F86031B3F938309AB28F
:102E0400B7F84A31D31A9BB21AB2D7F860311A878D
:102E1400D7F86031B3F936309AB2B7F84831134471
:102E24009BB21AB2D7F86031DA86D7F86031B3F9B9
:102E34003A309AB2B7F84631D31A9BB21AB2D7F8DD
:102E440060315A8797F84F31002B28D0D7F860317A
:102E540034331846FFF7D9FC0346032B1FDCD7F89D
:102E64006431B3F916309AB2B7F95431D90F0B441F
:102E74005B101BB29BB213449BB2023B9BB21AB2CF
:102E8400D7F86031DA86D7F86031B3F936309BB2BF
:102E940004339BB21AB2D7F860315A872EE097F800
:102EA4004F3183F00103DBB2002B27D0D7F8603118
:102EB40034331846FFF792FC0346032B1EDCD7F885
:102EC4006431B3F914309AB2B7F95631D90F0B44BF
:102ED4005B101BB29BB213449BB2023B9BB21AB26F
:102EE400D7F860319A86D7F86031B3F934309BB2A1
:102EF40004339BB21AB2D7F860311A87D7F860311D
:102F040034331846FFF76AFC0346A7F84431D7F870
:102F1400603134331846FFF778FC0346A7F8423192
:102F240097F84F31002B02D0B7F9443101E0B7F9DB
:102F34004231A7F8403197F84F31002B0DD0D7F824
:102F440060313433C7F87431D7F860313833C7F897
:102F54007031B64BC7F86C310CE0D7F860313633BA
:102F6400C7F87431D7F860313A33C7F87031B04BD1
:102F7400C7F86C31D7F860319B6DB3F1FF3F3AD09D
:102F8400B7F94031D7F86021116DD7F86021926A02
:102F94008A1A03FB02F2D7F8503192FBF3F3A7F835
:102FA4003E31B7F94031D7F86021516DD7F860212F
:102FB400926A8A1A03FB02F2D7F8503192FBF3F3B8
:102FC400A7F83C31B7F93C21B7F93E31D31AD7F809
:102FD4006021926D02FB03F3002B00DAFF331B1216
:102FE400A7F87A31B7F87A21B7F83E3113449BB287
:102FF400A7F87A3110E0B7F94031D7F86021116BA6
:10300400D7F86021926A8A1A03FB02F2D7F850318A
:1030140092FBF3F3A7F87A31D7F860319B6CB3F1E4
:10302400FF3F37D0B7F94031D7F86021116CD7F89A
:103034006021926A8A1A03FB02F2D7F8503192FB9C
:10304400F3F3A7F83A31B7F94031D7F86021516C5E
:10305400D7F86021926A8A1A03FB02F2D7F850313A
:1030640092FBF3F3A7F83831B7F93821B7F93A31BD
:10307400D31AD7F86021926C02FB03F3002B00DA19
:10308400FF331B129AB2B7F83A3113449BB2A7F834
:103094007C3110E0B7F94031D7F86021516AD7F894
:1030A4006021926A8A1A03FB02F2D7F8503192FB2C
:1030B400F3F3A7F87C310021D7F86401FFF798FCFB
:1030C400034687F8373197F84F31002B1BD097F818
:1030D4003731012B17D1D7F87431C7F83031D7F80D
:1030E4007031C7F87431D7F83031C7F87031B7F898
:1030F4007C315B429BB2A7F87C31B7F87A315B42F2
:103104009BB2A7F87A3197F84F31002B1AD0D7F831
:103114007431B3F900309AB2B7F87C3113449BB2DE
:103124001AB2D7F870311A80D7F87431B3F9003075
:103134009AB2B7F87A3113449BB21AB2D7F8743101
:103144001A801BE0D7F87031B3F900309AB2B7F89F
:103154007C31D31A9BB201339BB21AB2D7F87431C3
:103164001A80D7F87031B3F900309AB2B7F87A31CF
:10317400D31A9BB21AB2D7F870311A8097F87F31FC
:10318400002B7ED0D7F860319B6A5B42B7F94021AF
:1031940003FB02F2D7F8503192FBF3F3A7F82E3178
:1031A40097F84F31002B25D0D7F87431B3F900309C
:1031B4009AB2B7F82E3113449BB2A7F82C31D7F842
:1031C4007031B3F90030B7F92C219A4205DAD7F8F7
:1031D4007431B7F82C211A8053E0D7F87031B3F961
:1031E4000020D7F874311A80D7F87031B7F82C2141
:1031F4001A8046E0D7F87031B3F900309AB2B7F8C4
:103204002E31D31A9BB201339BB2A7F82C31D7F8D5
:103214007431B3F90030B7F92C219A420ADAD7F89D
:103224007031B7F82C211A8010E000BFE1270008A4
:103234000F280008D7F87431B3F90020D7F870319B
:103244001A80D7F87431B7F82C211A80D7F8703166
:10325400B3F90020D7F87431B3F900309A4210DA88
:10326400D7F874311B88A7F82C31D7F87031B3F92B
:103274000020D7F874311A80D7F87031B7F82C21B0
:103284001A8097F87F3183F00103DBB2002B41D021
:10329400D7F8603103F13402D7F86C3110469847FF
:1032A4000346012B36DC07F10803D7F85C111846F6
:1032B40038F09DF907F5C073A3F5BC734FF40032E1
:1032C4005A6307F5C073A3F5BC73114A5A6007F536
:1032D400C073A3F5BC7300229A60D7F8603103F180
:1032E400340207F5C073A3F5BC73DA6007F1080371
:1032F4001A461A21D7F8640134F04AFA07F1080390
:103304001A461B21D7F8640134F042FA2BE200BFBD
:1033140054800408D7F8603103F1340207F5887348
:1033240011461846FFF73BFA07F1D803184632F066
:10333400EFFF07F1D8031A464FF40031D7F86401C0
:1033440037F014FD07F19003D7F85C11184638F0F4
:103354004EF94FF40033C7F8C430BD4BC7F894306E
:103364000023C7F8983007F1D803C7F8A030D7F87E
:1033740060313433C7F89C3007F190031A461A21A0
:10338400D7F8640134F004FA0021D7F86401FFF798
:103394000CFB0346A7F86A31B7F95421B7F9563143
:1033A4009342A8BF1346A7F82A31B7F92A315B1014
:1033B4001BB2B7F96A219A4204DDB7F92A315B10CE
:1033C400A7F86A31B7F8D830A7F86831B7F94221BD
:1033D400B7F944319342A8BF1346A7F82A31B7F985
:1033E4002A315B101BB2B7F968219A4204DDB7F9A0
:1033F4002A315B10A7F8683197F84F31002B0CD0B5
:10340400D7F8603134331846FFF7E8F903461A4613
:10341400B7F968315B009A4213DC97F84F3183F0B7
:103424000103DBB2002B38D0D7F8603134331846AF
:10343400FFF7EBF903461A46B7F968315B009A4285
:103444002BDD97F8DB3087F8293197F8F23087F8CD
:10345400283197F8FA3087F82731002387F8DB30D2
:10346400002387F8F230002387F8FA30D7F8603168
:1034740003F1340207F1D8031946D7F85C0132F09E
:103484008DFF97F8293187F8DB3097F8283187F8D2
:10349400F23097F8273187F8FA30D7F86431B3F966
:1034A40014309AB2B7F84C3113449BB21AB207F5F0
:1034B400C073A3F588731A80D7F86431B3F9183050
:1034C4009AB2B7F84A31D31A9BB21AB207F5C0734D
:1034D400A3F588739A80D7F86431B3F916309AB299
:1034E400B7F8483113449BB21AB207F5C073A3F579
:1034F40088735A80D7F86431B3F91A309AB2B7F89E
:103504004631D31A9BB21AB207F5C073A3F5887378
:10351400DA80B7F96A2107F1700107F17800002316
:1035240030F0ECFE07F178030021184630F01AFB66
:103534000346A7F8243197F80E3187F8233197F81A
:10354400FA3087F82231002387F8FA30002387F80D
:103554000E3107F58C7207F1680311461846FFF720
:103564001EF907F5C073A3F58C73B3F900309AB252
:10357400B7F84C3113449BB21AB207F5C073A3F5E4
:103584008C731A8007F5C073A3F58C73B3F90230FA
:103594009AB2B7F8483113449BB21AB207F5C07314
:1035A400A3F58C735A8007F5C073A3F58C73B3F934
:1035B40004309AB2B7F84A31D31A9BB21AB207F55B
:1035C400C073A3F58C739A8007F5C073A3F58C734D
:1035D400B3F906309AB2B7F84631D31A9BB21AB28D
:1035E40007F5C073A3F58C73DA8097F84F31002B7D
:1035F40030D007F168031846FFF707F90346032B99
:1036040028DCD7F86431B3F916309AB2B7F95431DB
:10361400D90F0B445B101BB29BB213449BB2023B09
:103624009BB21AB207F5C073A3F58C735A8007F5E1
:10363400C073A3F58C73B3F902309BB204339BB20D
:103644001AB207F5C073A3F58C73DA8036E000BFB5
:103654005480040897F84F3183F00103DBB2002B48
:103664002CD007F168031846FFF7B8F80346032B7C
:1036740024DCD7F86431B3F914309AB2B7F956316F
:10368400D90F0B445B101BB29BB213449BB2023B99
:103694009BB21AB207F5C073A3F58C731A8007F5B1
:1036A400C073A3F58C73B3F900309BB204339BB29F
:1036B4001AB207F5C073A3F58C739A80D7F86031FA
:1036C40003F13401B7F9D82007F15000002330F09A
:1036D40015FE07F150030021184630F043FA034663
:1036E400A7F8203107F1680207F1D8031946D7F883
:1036F4005C0132F053FE97F8223187F8FA3097F8DC
:10370400233187F80E31002387F8DB30002387F854
:10371400F230002387F80E31D7F8603103F1340218
:1037240007F1D8031946D7F85C0132F037FE07F1E8
:103734005003184630F0DCFA07F17803184630F0ED
:10374400D7FAB7F92031184630F082FAB7F92431A4
:10375400184630F07DFA07F190031A461B21D7F87A
:10376400640134F015F807F5C077BD4680BD00BF8D
:1037740080B58AB000AF786039603968434834F066
:1037840049F8034687F8273097F82730012B79D179
:10379400386834F095F8034687F82630386834F0F2
:1037A40077F8386297F82630132B52D14FF4003152
:1037B400386A37F07FFE03467B83386834F08FF82D
:1037C40078617B69B3F90030B7F91A209342B8BF26
:1037D40013461AB27B691A800021386AFFF7C1F8D0
:1037E40003467B820021386AFFF7CDF803463B820B
:1037F4000021386AFFF791F80346FB810021386AFB
:10380400FFF79DF80346BB81B7F90C20B7F90E30DA
:103814009342A8BF13461AB2B7F91010B7F9123081
:103824008B42A8BF0B461BB29342A8BF13467B81B1
:10383400B7F90A30002B26DAB7F90A305B427A6905
:10384400B2F900209342B8BF13461AB27B691A80BA
:1038540019E097F82630012B03D097F82630082B6F
:1038640008D13B6AFB61FB6934331946386A39F085
:1038740003FE08E097F82630152B04D13868FFF7CB
:10388400E3F900E000BF2837BD4680BD548004083A
:1038940080B584B000AF786039607B68FB60FB68FA
:1038A4003A68DA60FB681B68184639F01AFE00BFF4
:1038B4001037BD4680BD80B586B000AF78607B68A8
:1038C4001B687B617B691B683B613B69FB607B69AF
:1038D4004FF0FF32DA60FB683C337A699A4204D1D4
:1038E4007B699A68FB685A6208E0FB684C337A6922
:1038F4009A4203D17B699A68FB681A637B691B68E7
:10390400184639F0EEFD00BF1837BD4680BD0000F3
:1039140080B596B000AFF860B9607A603B6097F804
:103924006030002B06D17B68BA681A60F86839F0F9
:10393400D8FD49E03B68DB68B3F1FF3F07D17B6802
:103944001A683B685A603B68BA689A6006E03B684C
:103954009A683B685A603B68BA689A607B68BA6840
:103964001A60002138680DF07FFC07F11403184633
:103974000DF0DCFB07F1140339681846FEF75CFF11
:1039840007F1140312491846FEF764FF07F1140304
:103994004FF4807200211846FEF778FF07F11403F4
:1039A4000C491846FEF787FF0021F868FFF70FF867
:1039B400024607F1140311461846FEF759FF07F1B2
:1039C400140318460DF0D8FB00BF5837BD4680BD20
:1039D40095380008BB38000880B483B000AF786025
:1039E40039603B687A681A603B6800225A603B6819
:1039F40000229A603B684FF0FF32DA6000BF0C3758
:103A0400BD465DF8047B704780B584B000AF786034
:103A14007968064836F0CAFBF860F86836F07BFC33
:103A2400FB6818461037BD4680BD00BF708004088F
:103A340080B582B000AF786039601021386835F005
:103A4400EDF94FF48061386835F094F900BF083718
:103A5400BD4680BD80B483B000AF786039603B68F8
:103A6400B3F900207B681A803B68B3F902207B68B5
:103A74005A803B68B3F904207B689A803B68B3F9A9
:103A840006207B68DA8000BF0C37BD465DF8047BF6
:103A9400704780B483B000AF78607B68B3F90430BA
:103AA4009AB27B68B3F900309BB2D31A9BB201334C
:103AB4009BB21BB218460C37BD465DF8047B7047B9
:103AC40080B483B000AF78607B68B3F906309AB2F3
:103AD4007B68B3F902309BB2D31A9BB201339BB219
:103AE4001BB218460C37BD465DF8047B704780B5A1
:103AF40084B000AF786039601022396878683CF08F
:103B0400AFFF0346FB60FB681BB218461037BD4687
:103B140080BD80B584B000AF786039601122396807
:103B240078683CF09DFF0346FB60FB681BB21846B7
:103B34001037BD4680BD80B584B000AF7860396071
:103B44001222396878683CF08BFF0346FB60FB68FF
:103B54001BB218461037BD4680BD80B584B000AF97
:103B6400786039601322396878683CF079FF03463D
:103B7400FB60FB681BB218461037BD4680BD80B59C
:103B840084B000AF786039601422396878683CF0FA
:103B940067FF0346FB60FB681BB218461037BD463F
:103BA40080BD80B584B000AF786039601522396873
:103BB40078683CF055FF0346FB60FB681BB218466F
:103BC4001037BD4680BD80B584B000AF78603960E1
:103BD4001622396878683CF043FF0346FB60FB68B3
:103BE400DBB218461037BD4680BD000080B584B0F6
:103BF40000AF78607968064836F0D8FAF860F8685B
:103C040036F089FBFB6818461037BD4680BD00BFFF
:103C1400BC80040890B597B002AF786039603B6807
:103C2400002B00F05B817B68BB623968786801F027
:103C340085FCBB6A3A685A6200217868FFF7C3FFC3
:103C4400034687F8273000217868FFF774FF03469E
:103C5400BB8400217868FFF74AFF03467B84002178
:103C64007868FFF78CFF03463B8400217868FFF7F0
:103C740098FF0346FB83786838F090FE0346BB83C5
:103C8400786838F0B6FE03467B837A8BBB6A5B8E1A
:103C9400013B99B23B8C11FB03F39BB2D31A9BB249
:103CA4003B830023FB640023BB643B687B640023E9
:103CB4003B6405E10023FB870023BB8712E0BB6A5A
:103CC400DA6AB98FBB6C0B445B0013441B8818463B
:103CD40001F0BEFC03469AB2FB8F1344FB87BB8FF3
:103CE4000133BB87BB8F9B007A6C13441B68002B8A
:103CF40013D0BB8F9B007A6C13441B687949184618
:103D0400FCF7E0FB0346002B07D0BB8F9B007A6CCB
:103D140013441B681B78002BD1D1BB8F002B06D119
:103D2400BB8F01339B007A6C13447B64C5E0B7F905
:103D340018303A6C02FB03F3BA6A528EB3FBF2F307
:103D44009AB27B8C13449AB2B7F9203099B23B6C87
:103D54009BB211FB03F39BB213449BB2FB82B7F9F2
:103D640018303A6C013202FB03F3BA6A528EB3FB89
:103D7400F2F39AB27B8C13449AB2B7F9203099B219
:103D84003B6C9BB211FB03F39BB213449BB2013B0C
:103D94009BB2BB82BA8BBB8F013B99B2FB8B11FBED
:103DA40003F39BB2D31A9BB27B87B7F93A30002B4B
:103DB40001DA00237B8700237B6300233B6372E0EB
:103DC400BB6ADA6ABB6C5B0013441B88184601F0BB
:103DD4003FFC03463B61B7F93A307A6B03FB02F2CE
:103DE400FB8FB2FBF3F39AB2B7F91E3099B23B6B77
:103DF4009BB211FB03F39BB213449BB2FB85B7F94F
:103E04003A30796B3A690A4403FB02F2FB8FB2FB46
:103E1400F3F39AB2B7F91E3099B23B6B9BB211FB24
:103E240003F39BB213449BB2013B9BB2BB8597F84F
:103E34002730012B0FD1FB8DFB81BB8DFB85FB89CB
:103E4400BB85BA8BFB8DD31A9BB2FB85BA8BBB8D1A
:103E5400D31A9BB2BB85FA8DBB8C13449BB2FB85F2
:103E6400BA8DBB8C13449BB2BB85BB6A9A6ABB6C8C
:103E7400DB00D018B7F92C40B7F91620B7F92E108B
:103E8400B7F91430009323460DF0BEFC7A6B3B69FE
:103E940013447B633B6B01333B63BB6C0133BB64F7
:103EA400FB6C0133FB64BB8F3A6B9A4288D3BB8FA4
:103EB40001339B007A6C13447B643B6C01333B6499
:103EC400BB6A5B8E1A463B6C9342FFF4F3AE786890
:103ED40037F09DFB786839F004FB00E000BF5437ED
:103EE400BD4690BDA480040880B584B000AF78605E
:103EF40039607B68FB60FB68D86AFB681B8E5B00DB
:103F04001A4639680FF082FCFB685B6A19467868C8
:103F1400FFF780FE00BF1037BD4680BD80B584B07A
:103F240000AF78600B467B807B68FB60FB681B8E70
:103F34007A889A4204D37B884FF6FF7293420ED15B
:103F4400FB689B8E1946786801F09CFDFB687A88B3
:103F54009A867B881946786801F094FD00E000BFDA
:103F64001037BD4680BD80B584B000AF78600B4685
:103F74007B8013463B807B68FB60FB681B8E7A88E2
:103F84009A422DD2FB6893F8363003F00103DBB27A
:103F9400002B08D03B8803F08003002B03D0802142
:103FA400786800F074F8FB68DA6A7B885B00134475
:103FB4001988FB68DA6A7B885B0013443A880A43F1
:103FC40092B21A807B881946786801F05BFD3B88C1
:103FD40003F40073002B04D0786837F018FB00E07A
:103FE40000BF1037BD4680BD80B584B000AF786097
:103FF4000B467B8013463B807B68FB60FB681B8E13
:104004007A889A4221D2FB68DA6A7B885B0013447F
:104014001B881AB2B7F90030DB431BB2134019B244
:10402400FB68DA6A7B885B0013448AB21A807B8857
:104034001946786801F026FD3B8803F40073002BD1
:1040440004D0786837F0E3FA00E000BF1037BD46CB
:1040540080BD80B584B000AF78600B467B807B6800
:10406400BB600023FB8108E07A88FB8919467868E5
:10407400FFF779FFFB890133FB81BB681B8EFA894B
:104084009A42F1D300BF00BF1037BD4680BD80B552
:1040940084B000AF78600B467B807B68BB600023F4
:1040A400FB8108E07A88FB8919467868FFF79CFF52
:1040B400FB890133FB81BB681B8EFA899A42F1D3D9
:1040C40000BF00BF1037BD4680BD80B584B000AFCF
:1040D40078600B46FB707B68FB60FA6892F83630B8
:1040E400F97861F3000382F836300021786801F032
:1040F40083FD00BF1037BD4680BD80B485B000AFDE
:1041040078607B68FB60FB689B8E18461437BD465D
:104114005DF8047B7047000080B584B000AF786020
:104124000B467B807B884FF6FF72934201D10023BC
:1041340034E07B68BB60BB681B8E7A889A4201D9E5
:1041440000232BE00023FB810023BB8115E0BB8906
:104154000133BB81FB890133FB81BB685A6AFB894C
:104164009B0013441B680F491846FCF7ABF9034640
:10417400002B02D1FB890133FB81BA897B889A42E7
:10418400E5D1BB681B8EBA899A4201D1002305E0B0
:10419400BB685A6AFB899B0013441B681846103796
:1041A400BD4680BDA480040880B485B000AF7860AB
:1041B4000B467B8013463B807B68FB60FB681B8E51
:1041C4007A889A4201D300230EE0FB68DA6A7B887E
:1041D4005B0013441A883B8813409BB23A889A4286
:1041E4000CBF01230023DBB218461437BD465DF82B
:1041F400047B704780B584B000AF786039603B6859
:10420400FB60FB6800221A86FB6800225A86FB6862
:104214004FF6FF729A86FB6800229A62FB680022BE
:10422400DA62FB6800225A62FA6892F836306FF359
:10423400000382F8363004493868FFF7EBFC00BF0E
:104244001037BD4680BD00BF0400002080B584B097
:1042540000AF786039603B68FB60FB689B6A184676
:104264000FF076F9FB68DB6A18460FF071F9FB680A
:1042740000229A62FB680022DA6200BF1037BD4652
:1042840080BD000090B599B000AF7860396039689E
:10429400824833F0BFFA034687F8533097F8533017
:1042A400012B40F0AA85386833F00AFB034687F8EF
:1042B4005230386833F0ECFAF864FB6CBB6497F85E
:1042C4005230132B1DD1F86C01F0B6FC0346002BC1
:1042D40017D0BB6C5B8E002B0AD0F86C38F089FBCE
:1042E40003461A46BB6C5B8E92FBF3F31BB200E0F1
:1042F4000023A7F84630B7F946301946386833F03A
:1043040020FC97F852302A2B07D1BB6C5B6A194604
:10431400F86CFFF77FFC00F075BD97F85230292B3D
:1043240007D1BB6C5B6A1946F86CFFF773FC00F0AD
:1043340069BD97F85230012B40F0B280386833F0F1
:10434400CEFA3862BB6C9B8E1946F86C01F09AFB6E
:1043540034F080F80346184634F088F80346FB77B7
:10436400FB7F012B02D0FB7F032B39D107F118030C
:104374001946386A34F02BF907F118031946F86C1A
:1043840001F030FA0346BB83BB8B4FF6FF729342B6
:1043940026D0BB6CDA6ABB8B5B0013441B881846BF
:1043A40001F0A8F9034683F00103DBB2002B17D018
:1043B400BB6CDA6ABB8B5B0013441B88184601F0A4
:1043C4005DF9034683F00103DBB2002B08D0BB6C1C
:1043D400BA8B9A86BB6C9B8E1946F86C01F052FB23
:1043E400BB6C9B8E4FF6FF72934200F00B85BB6C47
:1043F400DA6ABB6C9B8E5B0013441B88184601F081
:104404008DF9034683F00103DBB2002B00F0FA843C
:10441400BB6CDA6ABB6C9B8E5B0013441B8818462A
:1044240001F090F9034683F00103DBB2002B00F0A6
:10443400E984BB6CDA6ABB6C9B8E5B0013441B88FB
:10444400184601F057F9034683F00103DBB2002B51
:1044540000F0D884BB6CDA6ABB6C9B8E5B0013449F
:104464001B88184601F00AF9034683F00103DBB206
:10447400002B00F0C784BB6C9B8E7B6107F1140397
:104484001A461C21F86C33F083F9034687F853303D
:1044940097F85330012B00F0B5BC00BFBC80040872
:1044A40097F85230022B40F09D80386833F017FAA9
:1044B40038634FF6FF73FB8533F0CCFFB862B86AFC
:1044C40033F0D4FF034687F8273097F82730042BBE
:1044D40000F0958497F82730022B00F0908407F1C0
:1044E40018031946B86A34F072F807F1180319462C
:1044F400F86C01F077F90346FB85BB6C9B8EFA8D53
:104504009A4200F07F84BB6C9B8E4FF6FF729342FD
:1045140005D0BB6C9B8E1946F86C01F0B3FABB6CEA
:10452400FA8D9A86386B34F03BF8FB8D4FF6FF72A8
:10453400934200F06784BB6CDA6AFB8D5B00134422
:104544001B88184601F0D6F8034683F00103DBB25A
:10455400002B00F05784BB6CDA6AFB8D5B001344BC
:104564001B88184601F08AF8034683F00103DBB286
:10457400002B00F04784FB8D1946F86C01F082FA99
:10458400BB6CDA6AFB8D5B0013441B88184601F090
:10459400C5F8034683F00103DBB2002B00F032843C
:1045A400BB6CDA6ABB6C9B8E5B0013441B88184699
:1045B40001F0C8F8034683F00103DBB2002B00F0DE
:1045C4002184FB8D3B6107F110031A461C21F86C12
:1045D40033F0DEF8034687F8533097F85330012B55
:1045E40000F010BC97F85230082B40F0BD80BB6C33
:1045F4009B8E4FF6FF72934200F0AF80BB6CDA6A79
:10460400BB6C9B8E5B0013441B88184601F0AEF80C
:104614000346002B55D0BB6CDA6ABB6C9B8E5B00E7
:1046240013441B88184601F065F8034683F0010320
:10463400DBB2002B45D0BB6CDA6ABB6C9B8E5B0093
:1046440013441B88184601F0A5F80346002B19D023
:10465400BB6C93F8363003F00103DBB2002B11D1AD
:10466400BB6CDA6ABB6C9B8E5B0013441A88BB6C10
:10467400D96ABB6C9B8E5B000B4422F0800292B221
:104684001A8010E0BB6CDA6ABB6C9B8E5B0013442F
:104694001A88BB6CD96ABB6C9B8E5B000B4442F0DE
:1046A400800292B21A80BB6C93F8363003F0010397
:1046B400DBB2002B05D0BB6C9B8E1946F86C01F065
:1046C4009BFABB6CDA6ABB6C9B8E5B0013441B8841
:1046D400184601F023F80346002B0CD1BB6CDA6AB0
:1046E400BB6C9B8E5B0013441B88184601F02AF8B0
:1046F4000346002B31D0BB6CDA6ABB6C9B8E5B002B
:1047040013441B88184600F0F5FF034683F00103A9
:10471400DBB2002B21D0BB6CDA6ABB6C9B8E5B00D6
:1047240013441B88184600F0A9FF034683F00103D5
:10473400DBB2002B11D0BB6C9B8EFB6007F10C032A
:104744001A461C21F86C33F023F8034687F85330DB
:1047540097F85330012B40F05483BB6C9B8E194661
:10476400F86C01F08FF94DE397F85230062B4AD1DB
:10477400BB6C9B8E4FF6FF72934200F04383BB6C7D
:10478400DA6ABB6C9B8E5B0013441B88184600F0EE
:104794009DFF034683F00103DBB2002B00F032835C
:1047A400BB6CDA6ABB6C9B8E5B0013441B88184697
:1047B40000F0A0FF034683F00103DBB2002B00F0FE
:1047C4002183BB6CDA6ABB6C9B8E5B0013441B8831
:1047D400184600F053FF034683F00103DBB2002BBD
:1047E40000F01083BB6C9B8EBB6007F108031A4674
:1047F4001C21F86C32F0CCFF034687F8533097F84D
:104804005330012BFEE297F85230032B0AD1BB6CD4
:104814009B8E1946F86C01F035F9BB6C4FF6FF72AC
:104824009A86EFE297F852300E2B40F08F8038686A
:1048340033F055F8B863B86B33F018FE034687F8C5
:104844005F30BB6B002B09D1002013F061FBB86310
:10485400B86B33F00BFE034687F85F30F86C34F026
:10486400A3FB0346184633F098FC034687F8373019
:10487400BB6C9B8E4FF6FF72934240F0C38297F855
:104884005F30022B07D097F85F30042B59D197F88B
:104894003730002B55D00023BB65BB6C93F8363002
:1048A40003F00103DBB2002B2ED002E0BB6D013319
:1048B400BB65BB6CDA6ABB6D5B0013441B8818468E
:1048C40000F0DCFE0346002BF0D1BB6CDA6ABB6D52
:1048D4005B0013441B88184600F00CFF0346002BB2
:1048E400E4D1BB6CDA6ABB6D5B0013441B881846C9
:1048F40000F0D8FE034683F00103DBB2002BD5D1D0
:104904001AE0BB6D0133BB65BB6CDA6ABB6D5B003F
:1049140013441B88184600F0B1FE0346002BF0D167
:10492400BB6CDA6ABB6D5B0013441B88184600F04D
:10493400E1FE0346002BE4D1BB6D9AB2BB6C9A86B0
:1049440060E2BB6C4FF6FF729A865BE297F85230D6
:104954000F2B03D097F85230102B10D1BB6C9B8EC9
:104964004FF6FF72934205D0BB6C9B8E1946F86CD0
:1049740001F088F8BB6C4FF6FF729A8642E297F812
:1049840052300D2B40F03182BB6C9B8E1946F86C73
:1049940001F078F8386832F0A2FF03461B7887F8F4
:1049A400453097F84530132B43D1BB6C9B8E4FF6A3
:1049B400FF72934203D1BB6C00229A8605E0BB6C64
:1049C4009B8E01339AB2BB6C9A86BB6C9A8EBB6C7D
:1049D4001B8E9A4212D3BB6C00229A860EE0BB6CEB
:1049E4009B8E01339AB2BB6C9A86BB6C9A8EBB6C5D
:1049F4001B8E9A4202D3BB6C00229A86BB6CDA6A85
:104A0400BB6C9B8E5B0013441B88184600F036FE7B
:104A14000346002BE3D1BB6CDA6ABB6C9B8E5B0054
:104A240013441B88184600F065FE0346002BD6D1BC
:104A3400D4E197F84530142B4AD1BB6C9B8E4FF6CA
:104A4400FF72934202D1BB6C00229A86BB6C9B8E90
:104A5400002B06D1BB6C1B8E013B9AB2BB6C9A86B1
:104A64001BE0BB6C9B8E002B17D0BB6C9B8E013B59
:104A74009AB2BB6C9A8610E0BB6C9B8E002B06D05E
:104A8400BB6C9B8E013B9AB2BB6C9A8605E0BB6CF7
:104A94001B8E013B9AB2BB6C9A86BB6CDA6ABB6C08
:104AA4009B8E5B0013441B88184600F0E7FD034609
:104AB400002BE1D1BB6CDA6ABB6C9B8E5B001344A8
:104AC4001B88184600F016FE0346002BD4D185E15E
:104AD40097F84530122B40F0BF800021F86CFFF7A7
:104AE40060F80346FB87BB6C9B8E4FF6FF729342C4
:104AF4002DD1BB6C00229A860EE0BB6C9B8E0133D9
:104B04009AB2BB6C9A86BB6C9A8EBB6C1B8E9A4213
:104B140002D3BB6C00229A86BB6CDA6ABB6C9B8E98
:104B24005B0013441B88184600F0A8FD0346002BC5
:104B3400E3D1BB6CDA6ABB6C9B8E5B0013441B88AD
:104B4400184600F0D7FD0346002BD6D146E1BB6CD6
:104B54009A6ABB6C9B8EDB001344B3F900309CB2A1
:104B6400BB6C9A6ABB6C9B8EDB0013441846FEF741
:104B740090FF03465B101BB29BB223449BB2BB87DE
:104B8400BB6C9B8EA7F8563052E0BB6C9A6AB7F8A0
:104B94005630DB001344B3F90220BB6C996ABB6C3A
:104BA4009B8EDB000B44B3F902309A423BDDBB6CB5
:104BB4009A6AB7F85630DB001344B3F90030B7F9FA
:104BC4003C209A422FDBB7F93C20BB6C996AB7F8BA
:104BD4005630DB000B44B3F904301946B7F93E30C4
:104BE4000B449A421FDCBB6CDA6AB7F856305B00A0
:104BF40013441B88184600F07DFD034683F001032F
:104C0400DBB2002B0FD0BB6CDA6AB7F856305B000E
:104C140013441B88184600F031FD034683F001035A
:104C2400DBB2002B0BD1B7F856300133A7F856305E
:104C3400BB6C1B8EB7F856209A42A6D300E000BF87
:104C4400BB6C1B8EB7F856209A4280F0C780BB6CB1
:104C5400B7F856209A86C1E097F84530112B40F0FA
:104C6400BD800021F86CFEF79CFF0346A7F8423094
:104C7400BB6C9B8E4FF6FF7293422DD1BB6C00220E
:104C84009A860EE0BB6C9B8E01339AB2BB6C9A86FB
:104C9400BB6C9A8EBB6C1B8E9A4202D3BB6C0022F7
:104CA4009A86BB6CDA6ABB6C9B8E5B0013441B88D0
:104CB400184600F0E3FC0346002BE3D1BB6CDA6A30
:104CC400BB6C9B8E5B0013441B88184600F012FDDE
:104CD4000346002BD6D181E0BB6C9A6ABB6C9B8ED9
:104CE400DB001344B3F900309CB2BB6C9A6ABB6C12
:104CF4009B8EDB0013441846FEF7CBFE03465B1085
:104D04001BB29BB223449BB2A7F84030BB6C9B8E72
:104D1400A7F8543054E0BB6C9A6AB7F95430DB00FE
:104D24001344B3F90220BB6C996ABB6C9B8EDB0005
:104D34000B44B3F902309A423BDAB7F94020BB6C1A
:104D4400996AB7F95430DB000B44B3F900301946C3
:104D5400B7F94230CB1A9A422BDBBB6C9A6AB7F98B
:104D64005430DB001344B3F90430B7F940209A42BD
:104D74001FDCBB6CDA6AB7F954305B0013441B8840
:104D8400184600F0B7FC034683F00103DBB2002BA6
:104D94000FD0BB6CDA6AB7F954305B0013441B883C
:104DA400184600F06BFC034683F00103DBB2002BD2
:104DB4000BD1B7F954309BB2013B9BB2A7F85430E6
:104DC400B7F95430002BA6DA00E000BFB7F954302D
:104DD400002B03DBB7F85420BB6C9A86BB6C9B8E0C
:104DE4001946F86C00F04EFE0CE097F85230152B83
:104DF40008D1386800F00AF804E000BF02E000BF00
:104E040000E000BF6437BD4690BD00BF80B5D6B09A
:104E140004AF07F5A473A3F5A273186007F5A47390
:104E2400A3F5A273186832F033FDC7F83C01D7F834
:104E34003C31C7F83831D7F838311B8E002B00F0DD
:104E4400778307F5A473A3F5A273186832F053FEB1
:104E5400C7F83401D7F83C2192F8223043F0040318
:104E640082F8223007F588731946D7F83C0137F0E9
:104E7400DBFC0023A7F846310023A7F84431D7F818
:104E84003C311B8CA7F83231D7F83C3100221A840C
:104E9400D7F83C2192F8223043F0040382F8223000
:104EA40007F17803184631F033FA07F1580318462E
:104EB4002DF046FE07F178031A464FF4A021D7F8E7
:104EC4003C0135F053FF07F158031A464FF4A02173
:104ED400D7F83C0136F019F9D7F83C2192F8223082
:104EE4006FF3820382F82230D7F83C31B7F83221CD
:104EF4001A840021D7F83C01FEF7F9FD0346A7F810
:104F040030310021D7F83C01FEF703FE0346A7F831
:104F14002E310021D7F83C01FEF70DFE0346A7F819
:104F24002C310021D7F83C01FEF717FE0346A7F801
:104F34002A3107F11003D7F83411184636F057FB1D
:104F440007F5A473A3F59C734FF4A0225A6307F5E5
:104F5400A473A3F59C739F4A5A6007F5A473A3F541
:104F64009C7300229A6007F5A473A3F59C7307F160
:104F7400D0021A6107F5A473A3F59C7307F1B0027C
:104F84005A610023A7F84631C1E2B7F8443101332E
:104F9400A7F84431D7F838315A6AB7F844319B003E
:104FA40013441B688C491846FBF78CFA0346002B04
:104FB400EBD0D7F83831DA6AB7F846315B001344DE
:104FC4001B88184600F05AFB0346002B40F09482DD
:104FD4000023A7F84231D7F83831DA6AB7F84631F6
:104FE4005B0013441B88184600F0D4FB0346002BD7
:104FF40005D0B7F8423143F00103A7F84231D7F89E
:105004003831DA6AB7F846315B0013441B88184616
:1050140000F070FB0346002B06D0B7F8423143F092
:105024008003A7F8423136E0D7F838319B8EB7F8C1
:1050340046219A422FD1B7F8323103F02003002BD6
:1050440005D0B7F8423143F02003A7F84231B7F84E
:10505400323103F00203002B05D0B7F8423143F09C
:105064000203A7F84231B7F8323103F00403002BEE
:1050740005D0B7F8423143F00403A7F84231B7F83A
:10508400323103F00803002B05D0B7F8423143F066
:105094000803A7F84231D7F838319A6AB7F846318D
:1050A400DB001A4407F5847311461846FEF7D2FC58
:1050B400B7F908319AB2B7F910319BB213449BB2D5
:1050C4001BB2A7F80831B7F90A319AB2B7F912310D
:1050D4009BB213449BB21BB2A7F80A31B7F90C3147
:1050E4009AB2B7F910319BB213449BB21BB2A7F822
:1050F4000C31B7F90E319AB2B7F912319BB213449D
:105104009BB21BB2A7F80E31B7F84231002B10D175
:1051140007F1780107F1D003382218460EF076FB28
:1051240007F1580107F1B003202218460EF06EFB78
:1051340035E0D7F83C31B7F842211A84D7F83C213E
:1051440092F8223043F0040382F8223007F1D003AE
:10515400184631F0DDF807F1B00318462DF0F0FCE5
:1051640007F1D0031A464FF4A021D7F83C0135F0DB
:10517400FDFD07F1B0031A464FF4A021D7F83C0116
:1051840035F0C3FFD7F83C31B7F832211A84D7F889
:105194003C2192F822306FF3820382F82230D7F850
:1051A4003831DA6AB7F846315B0013441B88184675
:1051B40000F004FB034687F8293197F82931002BC6
:1051C4000CD097F8CD3043F00103DBB287F8CD3033
:1051D4000BE000BFBC800408A480040897F8CD301D
:1051E40023F00103DBB287F8CD3007F5A473A3F5F0
:1051F4009C7307F58472DA60B7F8462107F5A47347
:10520400A3F59C739A6307F110031A461A21D7F881
:105214003C0132F0BDFA97F8F330C3F34403DBB238
:1052240003F01003002B72D097F8F3300F2262F3CF
:10523400450387F8F330B7F908311A46D7F83C31FB
:10524400B3F914301946B7F92C310B449A420DD1F5
:1052540097F8F330C3F34403DBB203F01B03DAB271
:1052640097F8F33062F3450387F8F330B7F90C315C
:105274001A46D7F83C31B3F918301946B7F92A3130
:10528400CB1A9A420DD197F8F330C3F34403DBB23F
:1052940003F01703DAB297F8F33062F3450387F8A3
:1052A400F330B7F90A311A46D7F83C31B3F916305E
:1052B4001946B7F930310B449A420DD197F8F330BF
:1052C400C3F34403DBB203F01D03DAB297F8F330FF
:1052D40062F3450387F8F330B7F90E311A46D7F86D
:1052E4003C31B3F91A301946B7F92E31CB1A9A4228
:1052F4000DD197F8F330C3F34403DBB203F01E037C
:10530400DAB297F8F33062F3450387F8F33007F520
:1053140084731846FEF7D4FB0346A7F82631B7F882
:10532400423103F02003002B15D0D7F83831DA6A64
:10533400B7F846315B0013441B8803F40073002B59
:1053440009D0B7F90A319AB2B7F82631D31A9BB209
:105354001BB2A7F80A3107F5847207F1D003194686
:10536400D7F8340131F01AF8D7F8B030C7F8203143
:10537400B7F8C430A7F81E31B7F8C230A7F81C310B
:10538400D7F838315A6AB7F844319B0013441B6884
:10539400C7F8183107F588731846FEF77AFB0346F9
:1053A400194697F8CD30B7F91E2107F10C00029386
:1053B4000191B7F91C3100931346D7F82021D7F88F
:1053C400181111F06DFC07F584731846FEF761FBA4
:1053D40003461A4607F5A473A3F59E73B3F9003088
:1053E400D31ADA0F13445B101946B7F908319AB28D
:1053F4008BB213449BB21BB2A7F8083107F5847330
:105404001846FEF75DFB03461A4607F5A473A3F599
:105414009E73B3F90230D31ADA0F13445B101946A2
:10542400B7F90A319AB28BB213449BB21BB2A7F8F4
:105434000A31B7F908319AB207F5A473A3F59E733C
:10544400B3F900309BB213449BB21BB2A7F80C31E2
:10545400B7F90A319AB207F5A473A3F59E73B3F9A9
:1054640002309BB213449BB21BB2A7F80E31B7F8BB
:10547400423103F02003002B29D0D7F83831DA6AFF
:10548400B7F846315B0013441B8803F40073002B08
:105494001DD0B7F90A319AB2B7F92631D90F0B44A6
:1054A4005B101BB29BB2D31A9BB21BB2A7F80A3192
:1054B400B7F90E319AB2B7F92631D90F0B445B1004
:1054C4001BB29BB2D31A9BB21BB2A7F80E3107F5DD
:1054D400847207F1B00100230093D7F81831D7F88C
:1054E40034012DF059FB07F110031A461B21D7F89C
:1054F4003C0132F04DF900E000BFB7F8463101330A
:10550400A7F84631B7F844310133A7F84431D7F846
:1055140038311B8EB7F846219A42FFF43BADD7F8D9
:105524003C2192F822306FF3820382F8223000E0AB
:1055340000BF07F5A477BD4680BD00BF80B584B029
:1055440000AF786039607B68BB60BB6801225A8613
:105554000023FB810023BB8118E0BB899B003A68D0
:1055640013441B6839491846FAF7ACFF0346002B6D
:1055740003D0FB890133FB8105E0BB685B8E0133FB
:105584009AB2BB685A86BB890133BB81BB899B0035
:105594003A6813441B68002B07D0BB899B003A6808
:1055A40013441B681B78002BD7D1BB681B8EFA8968
:1055B4009A4247D0BB689B6A002B07D0BB689B6AA2
:1055C40018460DF0C5FFBB6800229A62BB68DB6A0F
:1055D400002B07D0BB68DB6A18460DF0B9FFBB6827
:1055E4000022DA62FB89DB0018460DF081FF0246D7
:1055F400BB689A62BB689B6A002B00D1FEE7FB89FB
:105604005B0018460DF074FF0246BB68DA62BB68A3
:10561400DB6A002B00D1FEE7BB689B6A002B03D03A
:10562400BB68DB6A002B01D10023FB81BB68DA6A0B
:10563400FB895B00194610460EF08EFBBB68FA89A5
:105644001A8600E000BF1037BD4680BDA480040860
:1056540080B485B000AF0346FB80FB88DBB203F067
:105664000703FB73FB7B002B01D0FB7B00E00123D2
:1056740018461437BD465DF8047B704780B483B088
:1056840000AF0346FB80FB88DB1003F00103002B13
:1056940014BF01230023DBB218460C37BD465DF866
:1056A400047B704780B483B000AF0346FB80FB8863
:1056B400DB1103F00103002B14BF01230023DBB231
:1056C40018460C37BD465DF8047B704780B483B040
:1056D40000AF0346FB80FB881B1103F00103002B82
:1056E40014BF01230023DBB218460C37BD465DF816
:1056F400047B704780B483B000AF0346FB80FB8813
:105704005B1103F00103002B14BF01230023DBB260
:1057140018460C37BD465DF8047B704780B483B0EF
:1057240000AF0346FB80FB881B1203F00103002B30
:1057340014BF01230023DBB218460C37BD465DF8C5
:10574400047B704780B483B000AF0346FB80FB88C2
:105754005B1203F00103002B14BF01230023DBB20F
:1057640018460C37BD465DF8047B704780B483B09F
:1057740000AF0346FB80FB889B1103F00103002B61
:1057840014BF01230023DBB218460C37BD465DF875
:10579400047B704780B483B000AF0346FB80FB8872
:1057A400DB1103F00103002B14BF01230023DBB240
:1057B40018460C37BD465DF8047B704780B483B04F
:1057C40000AF0346FB80FB881B1303F00103002B8F
:1057D40014BF01230023DBB218460C37BD465DF825
:1057E400047B704780B58CB000AF786039607B680B
:1057F400BB6207F110031946786837F015F878682A
:1058040037F0B0F80346FB84786837F0B9F80346FC
:10581400BB8400217868FEF78EF903467B8400215F
:105824007868FEF79AF903463B8400217868FEF70E
:105834005EF90346FB8300217868FEF76AF90346A4
:10584400BB8300217868FEF79AF903467B83002125
:105854007868FEF7A6F903463B83B7F91A30DA0FE6
:1058640013445B101BB29AB27B8B03F001039BB20F
:1058740013449BB201339BB27B83B7F91830DA0F20
:1058840013445B101BB29AB23B8B03F001039BB22F
:1058940013449BB201339BB23B83B7F91A300D2BEF
:1058A400A8BF0D237B83B7F918300D2BA8BF0D2398
:1058B4003B83B7F920300D2BA8BF0D233B84B7F9E8
:1058C4001E300D2BA8BF0D23FB83B7F91C300D2B05
:1058D400A8BF0D23BB830023FB85BDE0BB6A9A6A86
:1058E400FB8DDB001A4407F1080311461846FEF746
:1058F400B1F8B7F90830B7F922209A4213DBB7F9A7
:1059040008309AB2B7F9103099B2B7F922300D2B9A
:10591400A8BF0D231BB29BB2CB1A9BB213449BB2FC
:105924001BB23B810CE0B7F908309AB2B7F91030DA
:1059340099B23B8BCB1A9BB213449BB21BB23B81F3
:10594400B7F90A30B7F91E209A4213DBB7F90A30C7
:105954009AB2B7F9123099B2B7F91E300D2BA8BF1D
:105964000D231BB29BB2CB1A9BB213449BB21BB246
:105974007B810CE0B7F90A309AB2B7F9123099B2C8
:105984007B8BCB1A9BB213449BB21BB27B81B7F9BE
:105994000C301946B7F92620B7F92030D31A023B48
:1059A400994213DBB7F90C309AB2B7F9103099B2B7
:1059B400B7F920300D2BA8BF0D231BB29BB20B44AB
:1059C4009BB213449BB21BB2BB810CE0B7F90C3001
:1059D4009AB2B7F9103099B23B8B0B449BB2134483
:1059E4009BB21BB2BB81B7F90E301946B7F924201C
:1059F400B7F91C30D31A023B994213DBB7F90E30C6
:105A04009AB2B7F9123099B2B7F91C300D2BA8BF6E
:105A14000D231BB29BB20B449BB213449BB21BB22B
:105A2400FB810CE0B7F90E309AB2B7F9123099B293
:105A34007B8B0B449BB213449BB21BB2FB8107F1DB
:105A440008030022396818460CF047F80346002B77
:105A540009D1FB8D0133FB85BB6A1B8EFA8D9A42FB
:105A6400FFF43CAF00E000BFBB6A1B8EFA8D9A4284
:105A740002D14FF6FF73FB85FB8D18463037BD46C8
:105A840080BD000080B58AB000AF78600B467B8093
:105A94007B884FF6FF72934200F0A5807B687B629F
:105AA4007B6A1B8E7A889A4280F09F807B6A9A6A0E
:105AB4007B88DB001A4407F1140311461846FDF7EE
:105AC400C9FF07F10C031946786836F0ADFE0021D2
