:020000040800F2
:1000000000800120491D00088F0B00089D0B00088F
:10001000A30B0008A90B0008AF0B000800000000AC
:10002000000000000000000000000000B50B000808
:10003000C30B000800000000D10B0008DF0B000814
:10004000911D0008911D0008911D0008911D0008D8
:10005000911D0008911D0008911D0008911D0008C8
:10006000911D0008911D0008911D0008911D0008B8
:10007000911D0008911D0008911D0008911D0008A8
:10008000911D0008911D0008911D0008911D000898
:10009000911D0008911D0008911D0008911D000888
:1000A000911D0008911D0008911D0008911D000878
:1000B000911D0008911D0008911D0008911D000868
:1000C000911D0008911D0008911D0008911D000858
:1000D000911D0008911D0008911D0008911D000848
:1000E000911D0008911D0008911D0008911D000838
:1000F000911D0008911D0008911D0008911D000828
:10010000911D0008911D0008911D0008911D000817
:10011000911D0008911D0008911D0008911D000807
:10012000911D0008911D0008911D0008911D0008F7
:10013000911D0008911D0008911D0008911D0008E7
:1001400000000000000000000000000000000000AF
:10015000911D0008911D0008911D0008911D0008C7
:10016000911D0008911D0008911D0008911D0008B7
:10017000911D0008911D0008911D0008911D0008A7
:04018000911D0008C5
:1001840010B5054C237833B9044B13B10448AFF3CD
:1001940000800123237010BD8C00002000000000AB
:1001A4008C2D000808B5034B1BB103490348AFF37A
:1001B400008008BD00000000900000208C2D000885
:1001C40080B58AB000AF0121664801F05BFA07F1FF
:1001D4002003184601F03CFA4FF400733B620023FD
:1001E40087F82430042387F82530102387F8263035
:1001F400012387F8273007F1200319465A4801F0F4
:100204008BF94FF400433B6207F12003194656482B
:1002140001F082F980233B6207F120031946534819
:1002240001F07AF910233B6207F1200319464E4886
:1002340001F072F910233B6207F1200319464A4882
:1002440001F06AF9484B4FF400725A61464B4FF47F
:1002540000421A61444B01221A61434B02221A6183
:1002640010233B62002387F82630182387F82530B3
:1002740007F1200319463C4801F04EF907F1200329
:10028400184601F0E5F920233B62002387F8243067
:10029400042387F82530082387F82630012387F8BC
:1002A400273007F1200319462F4801F035F9802340
:1002B4003B6207F1200319462B4801F02DF9402336
:1002C4003B62002387F82630282387F8253007F17E
:1002D40020031946244801F01FF93B1D184601F07C
:1002E40017FB00233B7101237B710123BB710023A6
:1002F400FB7100233B7201237B720123BB72012338
:10030400FB723B1D19461A4801F024FB01211848D1
:1003140001F01BFC0121164801F002FC154801F014
:1003240009F84FF6FE73FB821023BB82124B1B6845
:100334003B610123FB7601237B76104BFB60012399
:10034400BB7600233B7602237B7700233B7707F1C0
:100354000C031946074801F07DF800BF2837BD4655
:1003640080BD00BF020310300008014000100140AE
:100374000030014030000240A80000200C30014051
:1003840080B584B000AF0346FB710023FB6007E037
:10039400FB680133FB60FB6842F2107293421ED883
:1003A4000221124801F0F5FB0346002BF0D0FB7943
:1003B4009BB219460D4801F0DDFB0023FB6006E00B
:1003C400FB680133FB60FB68B3F5801F09D2802111
:1003D400064801F0DEFB0346012BF1D002E000BF2A
:1003E40000E000BF1037BD4680BD00BF00300140B3
:1003F40080B582B000AF7F237F220021002000F06F
:1004040095F90E4B1B89DBB2184600F01BF800234C
:100414007B6009E00A4A7B6832F81330184600F022
:100424005DF87B6801337B607B68B3F5804FF1DB5B
:1004340000BF00BF0837BD4680BD00BFB00000202C
:10044400C000002080B582B000AF0346FB71074BAB
:1004540080225A61FB791846FFF792FF034B8022F2
:100464001A6100BF0837BD4680BD00BF00100140BF
:1004740080B584B000AF0346FB71FB793B73154A2A
:1004840013686FF3C7131360124A13686FF3000302
:100494001360104A5368012161F30F0353600D4A3E
:1004A40007F10C03D3600B4A136843F00103136094
:1004B4004FF4007000F0B2FF064A136843F0800363
:1004C40013600021044801F016FB00BF1037BD463D
:1004D40080BD00BF300002400030014080B584B0D0
:1004E40000AF0346FB80FB881B0A9BB2BB81FB88E1
:1004F400DBB29BB2FB81154A13686FF3C713136019
:10050400124A13686FF300031360104A5368022100
:1005140061F30F0353600D4A07F10C03D3600B4AD8
:10052400136843F0010313604FF4007000F076FF8A
:10053400064A136843F0800313600021044801F065
:10054400DAFA00BF1037BD4680BD00BF300002405C
:100554000030014080B485B000AF0346FB800B46F9
:10056400BB8013467B80FB887F2B0CD8BB887F2BFA
:1005740009D8BB88DA01FB881344FB600549FB6892
:100584007A8821F8132000BF1437BD465DF8047B38
:10059400704700BFC000002080B588B000AFF8608D
:1005A400B9607A60BB68002B71DB7B68002B6EDB63
:1005B400FB685A68BB681344802B68DCFB689A6844
:1005C4007B681344802B62DC0023FB6159E0002329
:1005D400BB614EE0FB681B68FA685268F96902FB6C
:1005E40001F1BA690A44520013441B78FB75FB6895
:1005F4001A68FB685B68F96903FB01F1BB690B448A
:100604005B00013313441B78BB75BB7DDB087B7532
:10061400BB7DDB005BB203F038035AB2FB7D5B09A0
:10062400DBB25BB213435BB23B75FB7D03F03F036C
:10063400FB747B7DDB021AB23B7D5B011BB213436F
:100644001AB2FB7C1BB213431BB23B82BB689AB247
:10065400BB699BB2134498B27B689AB2FB699BB2A4
:1006640013449BB23A8A1946FFF774FFBB690133FE
:10067400BB61FB685B68BA699A42ABDBFB69013317
:10068400FB61FB689B68FA699A42A0DB00E000BF4B
:100694002037BD4680BD80B588B000AFF860B96032
:1006A4007A600023FB6137E00023BB612CE0FB6828
:1006B4005B68FA6903FB02F2BB6913445B007B616C
:1006C400FB681A687B695B0013441B887B82FB68A8
:1006D4001A687B69013313441B787B747B7C802B01
:1006E4000FD9BB689AB2BB699BB2134498B27B68BA
:1006F4009AB2FB699BB213449BB27A8A1946FFF7FC
:1007040029FFBB690133BB61FB685B68BA699A4224
:10071400CDDBFB690133FB61FB689B68FA699A4294
:10072400C2DB00BF00BF2037BD4680BD80B584B0AA
:1007340000AFF860B9607A603B60214B5B89DBB243
:100744001846FFF77FFEFB681B0ADBB21846FFF76B
:100754008FFEFB68DBB21846FFF78AFE7B681B0A34
:10076400DBB21846FFF784FE7B68DBB21846FFF75E
:100774007FFE134B9B89DBB21846FFF763FEBB6811
:100784001B0ADBB21846FFF773FEBB68DBB21846E0
:10079400FFF76EFE3B681B0ADBB21846FFF768FEE4
:1007A4003B68DBB21846FFF763FE054B1B89DBB2DF
:1007B4001846FFF747FE00BF1037BD4680BD00BF97
:1007C400B000002080B582B000AF0346FB71FB7916
:1007D400032B63D801A252F823F000BFF1070008ED
:1007E4001D08000849080008750800082E4B8022DF
:1007F4001A802D4BA0225A802B4B2A225A812A4B35
:100804002B229A81284B2C221A813620FFF71AFEBC
:100814000820FFF72DFE42E0234BA0221A80224B32
:1008240080225A80204B2A225A811F4B2B229A81E4
:100834001D4B2C221A813620FFF704FEA820FFF757
:1008440017FE2CE0184BF0221A80174BF0225A8026
:10085400154B2A225A81144B2B229A81124B2C229B
:100864001A813620FFF7EEFDC820FFF701FE16E0DF
:100874000D4BA0221A800C4B80225A800A4B2A224C
:100884005A81094B2B229A81074B2C221A8136203C
:10089400FFF7D8FD6820FFF7EBFD00E000BF00BFC5
:1008A4000837BD4680BD00BFB000002080B500AF52
:1008B4001120FFF7C7FD0A2001F0ECFBCF20FFF762
:1008C400C1FD0020FFF7D4FDC120FFF7D1FD30208A
:1008D400FFF7CEFDED20FFF7B5FD6420FFF7C8FD5F
:1008E4000320FFF7C5FD1220FFF7C2FD8120FFF7AB
:1008F400BFFDE820FFF7A6FD8520FFF7B9FD002026
:10090400FFF7B6FD7920FFF7B3FDCB20FFF79AFD83
:100914003920FFF7ADFD2C20FFF7AAFD0020FFF7DB
:10092400A7FD3420FFF7A4FD0220FFF7A1FDF72067
:10093400FFF788FD2020FFF79BFDEA20FFF782FDEB
:100944000020FFF795FD0020FFF792FDC020FFF780
:1009540079FDA220FFF78CFDC120FFF773FDC520B0
:10096400FFF786FDC520FFF76DFD0E20FFF780FD24
:100974003A20FFF767FD0520FFF77AFDB120FFF766
:1009840061FD0120FFF774FD2C20FFF771FD2D2080
:10099400FFF76EFDB620FFF755FD0A20FFF768FD4F
:1009A400A220FFF765FD4420FFF74CFD0220FFF76E
:1009B4005FFDE020FFF746FD0220FFF759FD1C20F4
:1009C400FFF756FD0720FFF753FD1220FFF750FDF8
:1009D4003720FFF74DFD3220FFF74AFD2920FFF7AE
:1009E40047FD2D20FFF744FD2920FFF741FD252079
:1009F400FFF73EFD2B20FFF73BFD3920FFF738FDC5
:100A04000020FFF735FD0120FFF732FD0320FFF73B
:100A14002FFD1020FFF72CFDE120FFF713FD03202D
:100A2400FFF726FD1D20FFF723FD0720FFF720FD1C
:100A34000620FFF71DFD2E20FFF71AFD2C20FFF7DF
:100A440017FD2920FFF714FD2D20FFF711FD2E209F
:100A5400FFF70EFD2E20FFF70BFD3720FFF708FDF3
:100A64003F20FFF705FD0020FFF702FD0020FFF700
:100A7400FFFC0220FFF7FCFC1020FFF7F9FC292003
:100A8400FFF7E0FC00BF80BD80B500AFFFF798FB27
:100A94000F4B4FF400425A61642001F0FBFA0C4BF7
:100AA4004FF400421A61642001F0F4FA084B4FF449
:100AB40000721A61642001F0EDFA054B01225A61BB
:100AC400FFF7F4FE0220FFF77DFE00BF80BD00BFEC
:100AD4000008014080B485B000AF0346FB800023CA
:100AE400FB8107E0FB890949FA8821F81320FB8977
:100AF4000133FB81FB89B3F5804FF3D300BF00BF03
:100B04001437BD465DF8047B704700BFC000002069
:100B140080B500AF00F014F90121012000F0D2F9F2
:100B240000BF00F06BF90346002BFAD001223B21F1
:100B3400022000F05DFA002000F0E6FB0121022013
:100B440000F0C0F900BF192000F030F90346012B72
:100B5400F9D1002000F00AFA042000F033FA04204E
:100B640000F01AFA012000F0B3FB022000F08EFA24
:100B740000BF00F0B5FA0346022BFAD1002000F0C2
:100B8400A7FB01F049F900BF80BD80B400AF00BFEE
:100B9400BD465DF8047B704780B400AFFEE780B4C7
:100BA40000AFFEE780B400AFFEE780B400AFFEE71D
:100BB40080B400AF00BFBD465DF8047B704780B4CD
:100BC40000AF00BFBD465DF8047B704780B400AF42
:100BD40000BFBD465DF8047B704780B400AF00BF22
:100BE400BD465DF8047B704780B500AF002200214C
:100BF4000548FFF7D1FC142214210448FFF74BFDEC
:100C0400FFF7F6FB00BF80BD000000200C000020B1
:100C140080B500AFFFF77CFF00F086F801F01AFA08
:100C24004FF4E13001F0D0F9064801F021FE00F064
:100C34000BF8FFF729FF0020FFF74CFFFFF7D4FF65
:100C4400FCE700BF9CE0000880B586B000AF01213E
:100C54004FF4A01000F0F7F801212E4800F0F3F84B
:100C640001214FF4C01000F0EEF801212A4800F0F1
:100C7400EAF80121284800F0E6F80121264800F0AE
:100C8400E2F80121254800F0DEF80121224800F0B5
:100C9400DAF80121204800F0D6F801211E4800F0BE
:100CA400D2F801211C4800F0CEF801211A4800F0C6
:100CB400CAF801214FF4A01000F0C5F8184800F05C
:100CC40039FB4FF6FE73FB811023BB81154BBB60D0
:100CD4000023FB7401237B74124B7B600023BB74E1
:100CE40000233B7402237B7500233B753B1D19468F
:100CF4000B4800F0AFFB002201210D2000F0BBFDEA
:100D040001220221064800F06BFB00BF1837BD46E4
:100D140080BD00BF0C001800020018000400180079
:100D2400300002400C30014080B500AF032000F0D9
:100D3400C3FD022200210D2000F09DFD00BF80BDF7
:100D440080B400AF184A136843F00103136000BF76
:100D5400154B1B68C3F34003DBB2012BF8D1124AD5
:100D640053686FF30103536000BF0F4B5B68C3F319
:100D74008103DBB2002BF8D10B4B1B680A4A23F02A
:100D8400867323F480331360074B00225A60064BAA
:100D940000221A63044B4FF41F029A6000BFBD4641
:100DA4005DF8047B704700BF0010024080B485B03A
:100DB40000AF78600023FB737B681B0C03F1804356
:100DC40003F504331A687B6803F01F03012101FA59
:100DD40003F31A407B6803F01F03012101FA03F3B4
:100DE4009A4202D00023FB7301E00123FB73FB7BD7
:100DF40018461437BD465DF8047B704780B582B051
:100E040000AF00237B600023FB7002E07B680133AA
:100E14007B601120FFF7CAFF0346012B03D07B68D8
:100E2400B3F5405FF2D31120FFF7C0FF0346012B57
:100E340002D00023FB7001E00123FB70FB7818460D
:100E44000837BD4680BD80B483B000AF78600B46E0
:100E5400FB70FB78012B16D17B681B0C03F18043DC
:100E640003F5043319687B6803F01F0301229A40D9
:100E74007B681B0C03F1804303F50433184641EAF5
:100E84000203036017E07B681B0C03F1804303F546
:100E9400043319687B6803F01F03012202FA03F389
:100EA400DA437B681B0C03F1804303F504331846D3
:100EB40001EA0203036000BF0C37BD465DF8047B02
:100EC4007047000080B483B000AF03460A46FB714C
:100ED4001346BB71FB79042B3ED801A252F823F0D0
:100EE400F90E00080D0F0008210F0008350F000847
:100EF400490F00081C4ABB7903F00103D9B21368F7
:100F040061F30003136028E0174ABB7903F001037F
:100F1400D9B2136861F3104313601EE0124ABB791F
:100F240003F00103D9B2136861F31863136014E08A
:100F34000D4ABB7903F00103D9B2136A61F30003CC
:100F440013620AE0084ABB7903F00103D9B2536A79
:100F540061F30003536200E000BF00BF0C37BD46DD
:100F64005DF8047B704700BF0010024080B483B07A
:100F740000AF0346FB71074AFB7903F00F03D9B2B4
:100F8400536861F30713536000BF0C37BD465DF827
:100F9400047B70470010024080B483B000AF034666
:100FA400FB71074AFB7903F00703D9B2536861F375
:100FB4000A23536000BF0C37BD465DF8047B7047BD
:100FC4000010024080B483B000AF0346FB71074AAF
:100FD400FB7903F00703D9B2536861F3CD2353605F
:100FE40000BF0C37BD465DF8047B7047001002401B
:100FF40080B483B000AF0346FB710B46BB7113464C
:101004007B71FB79002B0AD11F4A53686FF310439D
:1010140053601D4A136B43F00073136312E01A4AC2
:10102400536843F480335360FB79012B05D1164A8E
:1010340053686FF35143536004E0134A536843F415
:1010440000335360104ABB7903F00F03D9B25368DD
:1010540061F395435360BB791B110B4A03F00303FF
:10106400D9B2536861F35E735360074A7B7903F026
:101074000103D9B2536861F3DF73536000BF0C37C7
:10108400BD465DF8047B70470010024080B483B015
:1010940000AF0346FB71114AFB7903F00303D9B295
:1010A400536861F30103536000BF00BF00BF00BF7A
:1010B40000BF00BF00BF00BF00BF00BF00BF00BF34
:1010C40000BF00BF00BF00BF00BF00BF00BF00BF24
:1010D40000BF0C37BD465DF8047B7047001002402A
:1010E40080B400AF044B5B68C3F38103DBB21846E2
:1010F400BD465DF8047B70470010024080B58AB09D
:1011040000AF786000233B6200237B620023FB6115
:101114000023BB6100237B6100233B61FFF7E0FFF9
:101124000346FB73FB7B022B20D0022B69DC002BD4
:1011340002D0012B16D064E05D4B5B6DC3F34023FA
:10114400DBB2002B0AD05A4B1B6BC3F34063DBB2F8
:10115400002B03D07B68574A1A6056E07B68564AD6
:101164001A6052E07B68544A1A604EE0504B5B6848
:10117400C3F30043DBB2BB614D4B5B68C3F38343F2
:10118400DBB27B624A4B5B68C3F34173DBB2FB6146
:10119400FB69002B02D17B6A0F2B06D1FB691A0174
:1011A4007B6A134401337B6202E07B6A02337B6215
:1011B400BB69002B06D17B6A404A03FB02F27B68C1
:1011C4001A6022E03A4B5B68C3F34043DBB2002B66
:1011D40010D0374B5B6DC3F30133DBB23B623B6A28
:1011E4000233354AB2FBF3F37A6A03FB02F27B68FB
:1011F4001A600AE07B6A304A03FB02F27B681A60D9
:1012040003E07B682C4A1A6000BF294B5B68C3F378
:101214000313DBB27B612A4A7B6913441B783B616D
:101224007B681A683B69DA407B685A60204B5B68CC
:10123400C3F30223DBB27B61224A7B6913441B782C
:101244003B617B685A683B69DA407B68DA60184B1B
:101254005B68C3F3C223DBB27B611B4A7B69134423
:101264001B783B617B685A683B69DA407B689A600B
:101274000F4B5B68C3F30073DBB27B617B699B003C
:101284000B4A5268C2F38132D2B213437B610F4AD4
:101294007B6913441B783B617B689A683B69B2FBAA
:1012A400F3F27B681A6100BF2837BD4680BD00BFDA
:1012B40000100240006CDC0200127A0000093D00BC
:1012C400ACE00008BCE00008C4E00008CCE0000882
:1012D40080B483B000AF0346FB71FB79012B05D1C9
:1012E400084A536D43F03003536504E0054A536DD7
:1012F4006FF30513536500BF0C37BD465DF8047BDF
:10130400704700BF0010024080B483B000AF0346B2
:10131400FB71074AFB7903F00303D9B2536D61F300
:101324000D33536500BF0C37BD465DF8047B704731
:101334000010024080B485B000AF78600023FB60E9
:101344007A6813686FF3000313607B6800221A60E5
:101354007B6800225A607B6800229A607B680022C6
:10136400DA607B68FB60FA6840F2FF431340B3F530
:10137400816F11D2174B5B68FA68D2B2083A1649EA
:10138400A1FB0212120992000F2101FA02F2114686
:10139400104A0B43536017E0FA6840F2FF431340CE
:1013A400B3F5916F10D20D4B5B68FA68D2B2083A6C
:1013B4000949A1FB0212120992000F2101FA02F25B
:1013C4001146064A0B43536000BF1437BD465DF80F
:1013D400047B704700000240CDCCCCCC000402401A
:1013E40080B485B000AFF860B9601346FB71FB7937
:1013F400002B06D0FB681A68BB681A43FB681A60A6
:1014040006E0FB681A68BB68DB431A40FB681A6095
:1014140000BF1437BD465DF8047B704780B483B0C9
:1014240000AF78607B68B3F1805F05D9074A7B68B9
:1014340023F07043536002E0054A7B68536000BFA9
:101444000C37BD465DF8047B704700BF00040240C2
:101454000000024080B483B000AF786039607B68DC
:101464001A684BF6EF7313407A6813607B681B6845
:101474003A6812891A437B681A603B685B7C03F004
:101484000303D9B27A68136861F30D3313603B68C0
:10149400DB7B03F00303D9B27A68136861F38B230F
:1014A40013603B689B7B03F00303D9B27A6813682B
:1014B40061F3092313603B685B7B03F00103D9B23A
:1014C4007A68136861F3C71313603B681B7B03F0EE
:1014D4000103D9B27A68136861F3861313603B6819
:1014E4001B7C03F00103D9B27A68136861F34513D6
:1014F40013603B685B891A467B685A603B681A68CC
:101504007B689A603B685A687B68DA6000BF0C3776
:10151400BD465DF8047B704780B485B000AF786049
:1015240039603B681B683B813B689B79032B02D184
:1015340000237B8130E03B689B79002B15D13B680D
:101544005B799BB203F00F037B813B685B79182BBB
:1015540003D13A897B681A611EE03B685B79282BCA
:101564001AD13A897B685A6116E03B689B791BB2B1
:1015740003F008031AB23B681B791BB203F004039F
:101584001BB213431AB23B68DB791BB203F00303AB
:101594001BB213431BB27B813B89DBB2002B25D0EA
:1015A4000023FB601FE03A89FB6842FA03F303F06F
:1015B4000103002B14D07B681B68FA6892000F218A
:1015C40001FA02F2D2431A407B681A607B681B68F6
:1015D4007989FA68920001FA02F21A437B681A6068
:1015E400FB680133FB60FB68072BDCD93B89FF2BCD
:1015F40028D93B891B0A3B810023FB601FE03A8901
:10160400FB6842FA03F303F00103002B14D07B6858
:101614005B68FA6892000F2101FA02F2D2431A4081
:101624007B685A607B685B687989FA68920001FA82
:1016340002F21A437B685A60FB680133FB60FB6863
:10164400072BDCD900BF1437BD465DF8047B704717
:1016540080B483B000AF78607B684FF6FF721A6085
:101664007B6800229A717B6800221A717B680422CD
:101674005A717B680122DA7100BF0C37BD465DF8F0
:10168400047B704780B487B000AF78600B46FB7072
:101694007B681B0E03F1804303F580337B617B6819
:1016A4001B0CFB747B681B0ABB747B687B74BB7C60
:1016B400C3F12002FB7CD31A4FF0FF3202FA03F38A
:1016C400FB60BB7CC3F12002FB7CD31AFA6822FACC
:1016D40003F3FB60FB7CFA6822FA03F3FB60FB7CF8
:1016E400FA6802FA03F3FB607B691968FB68DA4362
:1016F4007B690A401A60FB78002B09D07B691A6861
:10170400797CFB7C01FA03F319467B690A431A606E
:1017140000BF1C37BD465DF8047B704780B485B0BC
:1017240000AF78607B6803F00703FB600C4BDB6859
:10173400BB60BA684FF6FF031340BB60FB681A0234
:10174400BB68134343F0BF6343F40033BB60044AF4
:10175400BB68D36000BF1437BD465DF8047B704797
:1017640000ED00E080B400AF044BDB681B0A03F01B
:1017740007031846BD465DF8047B704700ED00E0A2
:1017840080B483B000AF0346FB7197F90730002B98
:101794000BDBFB7903F01F02074997F907305B095C
:1017A400012000FA02F241F8232000BF0C37BD46A5
:1017B4005DF8047B704700BF00E100E080B483B0B3
:1017C40000AF03463960FB7197F90730002B0ADB41
:1017D4003B68DAB20C4997F907301201D2B20B44D4
:1017E40083F800230AE03B68DAB20849FB7903F086
:1017F4000F03043B1201D2B20B441A7600BF0C371C
:10180400BD465DF8047B704700E100E000ED00E0B8
:1018140080B489B000AFF860B9607A60FB6803F007
:101824000703FB61FB69C3F10703042B28BF0423EF
:10183400BB61FB690433062B02D9FB69033B00E05F
:1018440000237B614FF0FF32BB6902FA03F3DA43F2
:10185400BB681A407B699A404FF0FF317B6901FAFB
:1018640003F3D9437B680B40134318462437BD4622
:101874005DF8047B704780B586B000AF0346B9605D
:101884007A60FB7300237B61FFF76CFF03467A6881
:10189400B9681846FFF7BCFF786197F90F3079698A
:1018A4001846FFF78BFF97F90F301846FFF768FFCC
:1018B40000BF1837BD4680BD80B582B000AF034677
:1018C400FB71FB791846FFF729FF00BF0837BD46B7
:1018D40080BD000080B483B000AF0346FB71FB7988
:1018E400042B06D1094B1B68084A43F00403136018
:1018F40005E0064B1B68054A23F00403136000BF90
:101904000C37BD465DF8047B704700BF10E000E073
:1019140080B483B000AF78607B6800221A707B6863
:1019240000225A707B6800229A707B680022DA7069
:101934007B6800221A717B6800225A717B6800223E
:101944009A717B680122DA7100BF0C37BD465DF8DD
:10195400047B704780B483B000AF786039607A68E4
:10196400D3696FF3CB23D3613B681B78002B0FD172
:101974007A6813686FF3CF3313607A6813686FF370
:101984008E3313607A6813686FF38A2313603AE026
:101994003B681B78012B0FD17A6813686FF3CF3340
:1019A40013607A6813686FF38E3313607A68136870
:1019B40043F48063136026E03B681B78022B0FD14D
:1019C4007A68136843F4004313607A6813686FF30A
:1019D4008E3313607A6813686FF38A23136012E0FE
:1019E4003B681B78032B0ED17A68136843F40043D9
:1019F40013607A68136843F4804313607A68136849
:101A04006FF38A2313603B68DB7903F00103D9B2D7
:101A14007A68136861F3492313603B685B78012B90
:101A240009D13B68DB79012B05D17A68136843F44B
:101A34008073136004E07A6813686FF308231360FB
:101A44003B685B7803F00103D9B27A68136861F3E9
:101A5400820313603B689B78072B0FD97A6853681D
:101A640043F4807353603B689B7803F00703D9B257
:101A74007A68136861F3C50313600EE07A685368EB
:101A84006FF3082353603B689B7803F00703D9B2D4
:101A94007A68136861F3C50313603B68DB7803F06D
:101AA4000103D9B27A68136861F3C71313603B6802
:101AB4001B7903F00103D9B27A68136861F3CB236D
:101AC40013603B685B7903F00103D9B27A68136849
:101AD40061F3410313603B689B7903F00103D9B2BE
:101AE4007A68136861F30003136000BF0C37BD46C6
:101AF4005DF8047B704780B483B000AF78600B4618
:101B0400FB70FB7803F00103D9B27A68136861F3C0
:101B1400CB23136000BF0C37BD465DF8047B7047D0
:101B240080B483B000AF78600B46FB70FB7803F0A1
:101B34000103D9B27A68136861F38613136000BF96
:101B44000C37BD465DF8047B704780B483B000AFAA
:101B540078600B46FB70FB7803F00103D9B27A6816
:101B6400536861F34103536000BF0C37BD465DF811
:101B7400047B704780B483B000AF78600B467B80F1
:101B84007A887B68DA6000BF0C37BD465DF8047B59
:101B9400704780B485B000AF786039600023FB7370
:101BA4007B689A683B681340002B02D10023FB73C7
:101BB40001E00123FB73FB7B18461437BD465DF837
:101BC400047B704780B58CB000AFF860B9601146F3
:101BD4001A460B46FB711346BB7107F114031846F2
:101BE400FFF78CFAFB682A4A93420BD0FB68294A18
:101BF400934207D0FB68284A934203D0FB68274AE4
:101C0400934202D1FB69FB6201E03B6AFB62FA6A20
:101C140013469B0013445B001A46BB68B2FBF3F304
:101C2400BB62B96A1E4BA3FB0123DA0813469B006F
:101C340013445B00CA1A042A06D8BB6A184AA2FBDA
:101C44000323DB08BB6206E0BB6A154AA2FB03233D
:101C5400DB080133BB62BB6A99B2FA68936861F32B
:101C64000F039360FB7903F00103D9B2FA68D368D8
:101C740061F30C33D360BB7903F00303D9B2FA6880
:101C8400136961F30D33136100BF3037BD4680BD66
:101C940000380140006001400064014000680140D8
:101CA400CDCCCCCC80B483B000AF78600B46FB7055
:101CB400FB7803F00103D9B27A68D36861F34D333A
:101CC400D36000BF0C37BD465DF8047B704780B419
:101CD40083B000AF78600B46FB70FB7803F0010320
:101CE400D9B27A68D36861F3C303D36000BF0C37F9
:101CF400BD465DF8047B704780B483B000AF786064
:101D04000B467B807B88C3F308027B685A6000BF64
:101D14000C37BD465DF8047B704780B483B000AFD8
:101D2400786039607B681A683B681340002B01D0E7
:101D3400012300E0002318460C37BD465DF8047B00
:101D440070470000002103E00B4B5B584350043103
:101D54000A480B4B42189A42F6D30A4A02E000237F
:101D640042F8043B084B9A42F9D300F011F800F012
:101D740095FBFEF74DFF704750E10008000000207E
:101D84008C0000208C000020DC800020FEE7000096
:101D940080B400AF1E4BD3F888301D4A43F470035F
:101DA400C2F888301B4A136843F00103136000BF74
:101DB400184B1B68C3F34003DBB2012BF8D1154A5F
:101DC40053686FF30103536000BF124B5B68C3F3A6
:101DD4008103DBB2002BF8D10E4B1B680D4A23F0B4
:101DE400867323F4803313600A4B00225A60094B34
:101DF40000221A63074B4FF41F029A60044B4FF002
:101E040000629A6000BFBD465DF8047B704700BF66
:101E140000ED00E00010024080B588B000AF002360
:101E2400BB610023FB6100237B6100233B61002332
:101E3400FB600023BB60FFF753F90346FB71FB799A
:101E4400022B20D0022B69DC002B02D0012B16D0F0
:101E540064E03F4B5B6DC3F34023DBB2002B0AD03D
:101E64003B4B1B6BC3F34063DBB2002B03D0394BFA
:101E7400394A1A6056E0374B384A1A6052E0354BFB
:101E8400364A1A604EE0324B5B68C3F30043DBB260
:101E94003B612F4B5B68C3F38343DBB2FB612C4B89
:101EA4005B68C3F34173DBB27B617B69002B02D1B6
:101EB400FB690F2B06D17B691A01FB6913440133BB
:101EC400FB6102E0FB690233FB613B69002B06D135
:101ED400FB69234A02FB03F31E4A136022E01C4BF6
:101EE4005B68C3F34043DBB2002B10D0184B5B6D2F
:101EF400C3F30133DBB2BB61BB690233174AB2FBE4
:101F0400F3F3FA6902FB03F3124A13600AE0FB6974
:101F1400124A02FB03F30F4A136003E00D4B0F4A0E
:101F24001A6000BF0A4B5B68C3F30313DBB2FB60A8
:101F34000C4AFB6813441B78BB60064B1A68BB68E9
:101F440022FA03F3034A136000BF2037BD4680BD65
:101F54000010024024000020006CDC0200127A0011
:101F640000093D00D4E0000880B586B000AFF860F9
:101F7400B9607A6000237B611BE000BF80211148B7
:101F8400FFF7CBFE0346002BF8D0BB685A1CBA609F
:101F94001B789BB219460B48FFF7AEFE00BF4021E9
:101FA4000848FFF7BAFE0346002BF8D07B690133DB
:101FB4007B617A697B689A42DFDB7B681846183755
:101FC400BD4680BD0038014080B584B000AF786064
:101FD4001B4B1B68986800230222002100F060FC60
:101FE40001211848FEF72FFF01211748FEF72BFFA8
:101FF40007F108031846FFF72BFB0123FB730023AB
:102004003B730823BB734FF40073BB6004237B73DF
:1020140007F1080319460D48FFF77EFA0023002252
:1020240079680B48FFF7CEFD01210948FFF74FFE01
:1020340001210748FFF736FE00BF1037BD4680BDBB
:10204400280000200E0018000200180000080140BB
:102054000038014080B500AF0420FFF73BFC094B7A
:102064001B68094AA2FB03239B0C084A1360074B15
:102074001B684FF47A7202FB03F3054A136000BF36
:1020840080BD00BF2400002083DE1B43C0800020ED
:10209400C480002080B485B000AF0346FB800023D9
:1020A400FB6035E0FB88322B0AD91E4B1B681E4AA5
:1020B400322101FB03F35360FB88323BFB8008E0D1
:1020C400FB88184A1268184902FB03F34B6000238B
:1020D400FB80154B00229A60134B1B68124A43F095
:1020E40001031360104B1B68FB60FB6803F00103E2
:1020F400002B04D0FB6803F48033002BF2D00A4B8E
:102104001B68094A23F001031360074B00229A60FD
:10211400FB88002BC6D100BF00BF1437BD465DF855
:10212400047B7047C480002010E000E08A892DE918
:10213400F041054610070C4658D44B68002B05DCCB
:102144000B6C002B02DC0020BDE8F081E66A002E57
:10215400F9D0002312F480522F682B6032D0606DC6
:10216400A3895A0705D56368C01A636B0BB1236C46
:10217400C01A00230246E66A216A2846B047431C77
:10218400A38906D129681D292CD82A4ACA40D60712
:1021940028D500226260D9042269226004D5421C39
:1021A40001D12B6803B96065616B2F600029CAD027
:1021B40004F14403994202D0284600F00BFA0020AF
:1021C4006063C1E7216A01232846B047411CC7D197
:1021D4002B68002BC4D01D2B01D0162B01D12F60EE
:1021E400B1E7A38943F04003A381ADE70F69002F52
:1021F400A9D093070E6808BF4B690F6018BF00236E
:10220400A6EB07088B60B8F1000F9CDD216AA66A73
:1022140043463A462846B047002806DCA38943F0E3
:102224004003A3814FF0FF308EE70744A8EB00087A
:10223400E9E700BF0100402038B50B6905460C46AC
:1022440013B90025284638BD18B183690BB900F0CD
:1022540087F8144B9C421BD16C68B4F90C30002BEA
:10226400EFD0626ED00704D4990502D4A06D00F0BB
:102274003AF928462146FFF759FF636EDA07054607
:10228400E0D4A3899B05DDD4A06D00F02DF9D9E736
:10229400054B9C4201D1AC68DFE7044B9C4208BF6C
:1022A400EC68DAE704E1000824E10008E4E000084F
:1022B400002310B50446C0E90033C0E90433836049
:1022C40081814366C2818361194608225C3000F033
:1022D40079F9054B6362054BA362054BE362054B39
:1022E4002462236310BD00BF312A0008532A00086A
:1022F4008B2A0008AF2A0008014900F0AFB800BFDC
:102304003D22000870B568224D1E55430E4605F166
:10231400740100F0CBF9044640B10021C0E9001675
:102324000C30A06005F1680200F04CF9204670BD45
:10233400014800F0D8B800BFC9800020014800F06F
:10234400D3B800BFC9800020014800F0CCB800BF5A
:10235400CA800020014800F0C7B800BFCA8000202E
:1023640010B50446FFF7F0FFA3691BB1BDE81040A8
:10237400FFF7F0BFC4E912332365134B134A1B68FC
:10238400A262A34204BF0123A361204600F020F807
:102394006060204600F01CF8A060204600F018F8A9
:1023A4000022E06004216068FFF782FFA068012238
:1023B4000921FFF77DFFE06802221221FFF778FF71
:1023C4000123A361D2E700BF44E10008FD22000815
:1023D400F8B50746FFF7ACFF1E4B1E68B36913B987
:1023E4003046FFF7BDFF4836D6E90134013B03D53B
:1023F40033680BB33668F7E7B4F90C50D5B9164B0C
:10240400E36004F15800656600F06CF8FFF796FF8E
:10241400C4E90155C4E904552560A561082229468B
:1024240004F15C0000F0CEF8C4E90D55C4E912557E
:102434002046F8BD6834D9E704213846FFF762FF27
:10244400044630600028D5D1FFF778FF0C233B60A9
:10245400EEE700BF44E100080100FFFF2DE9F84367
:102464000646884600F148040027D4E90195B9F1ED
:10247400010905D52468002CF7D13846BDE8F88356
:10248400AB89012B07D9B5F90E30013303D02946A6
:102494003046C04707436835E9E7000070B50D4D85
:1024A4000D4C641BA4100026A64209D10B4D0C4C04
:1024B40000F06AFC641BA4100026A64205D170BD7E
:1024C40055F8043B98470136EEE755F8043B984726
:1024D4000136F2E748E1000848E1000848E1000855
:1024E4004CE1000870477047704770B50E46B1F96B
:1024F4000E10002996B014461D4608DAB6F90C30C1
:1025040000222A601A0610D44FF480630EE06A4653
:1025140000F0B2FB0028F1DB019A02F47042A2F54C
:1025240000535A425A412A60EEE7402300202360B8
:1025340016B070BD8B8973B59D0706460C4607D54A
:1025440004F14703236023610123636102B070BD7A
:1025540001AB6A46FFF7C9FF00990546304600F013
:10256400A5F848B9B4F90C309A05EFD423F0030365
:1025740043F00203A381E3E70D4BB362A389206018
:1025840043F08003A381009B6361019B20615BB1E5
:10259400B4F90E10304600F081FB28B1A38923F072
:1025A400030343F00103A381A0890543A581CDE77B
:1025B400FD220008024B0146186800F077B800BFFE
:1025C4002800002002440346934200D1704703F8D8
:1025D400011BF9E737B5002944D051F8043C0190B8
:1025E400002BA1F10404B8BFE41800F079FB1E4AE3
:1025F4000198136833B96360146003B0BDE83040D8
:1026040000F074BBA34208D9256861198B4201BF4D
:1026140019685B6849192160EDE71A465B680BB1DC
:10262400A342FAD911685518A5420BD12468214454
:102634005418A3421160E0D11C685B6853602144C4
:102644001160DAE702D90C230360D6E72568611923
:102654008B4204BF19685B68636004BF4919216039
:102664005460CAE703B030BDCC80002070B50E4E74
:102674000C463168054611B900F002F93060214674
:10268400284600F0FDF8431C0AD0C41C24F00304BF
:10269400A04207D0211A284600F0F2F8013001D1F7
:1026A4004FF0FF34204670BDD08000202DE9F0416A
:1026B400CD1C25F0030508350C2D38BF0C25002D45
:1026C400074601DBA94205D90C233B6000263046AE
:1026D400BDE8F0812E4E00F003FB33681C4634BB8A
:1026E40029463846FFF7C2FF431C04464DD13468DF
:1026F4002646002E40D123683146384604EB0308B1
:1027040000F0BEF880453AD1216803356D1A25F0F2
:10271400030508350C2D38BF0C2529463846FFF72C
:10272400A5FF01302BD023682B4423600EE02268E0
:10273400521B1ED40B2A16D96119A342256018BF57
:102744005960636808BF316062514B60384604F1D8
:102754000B0600F0CBFA26F00706231DF21AB6D0BA
:102764009B1BA350B3E76268A3420CBF32605A605C
:10277400ECE723466468B2E734467668B9E70C238D
:102784003B60384600F0B2FAA1E72560DEE700BFFF
:10279400CC80002070B50E46054618B183690BB98C
:1027A400FFF7DEFDAB69AC6813B92846FFF7D8FD27
:1027B4002C4B9C4220D16C68636EDB0705D4A38943
:1027C400980502D4A06DFFF78EFEA38919071DD5C5
:1027D4002369DBB1013EA36816F8011F013BA36026
:1027E40039BB002B38DA22460A21284600F062F968
:1027F400013011D00A2511E01B4B9C4201D1AC6879
:10280400DAE71A4B9C4208BFEC68D5E72146284614
:1028140000F0B4F90028DDD04FF0FF35636EDA071D
:1028240005D4A3899B0502D4A06DFFF75DFE28465D
:1028340070BD002B04DAA2699A4206DC0A2904D08E
:1028440023685A1C22601970C5E72246284600F006
:1028540031F90130BFD1DFE723680A255A1C226011
:102864001D70DBE704E1000824E10008E4E000084F
:10287400024B01461868FFF78DBF00BF28000020F7
:1028840038B5064D0023044608462B6000F06EFA66
:10289400431C02D12B6803B1236038BDD4800020CF
:1028A4002DE9F7431D465D4B1F6804460E469046CE
:1028B40027B1BB6913B93846FFF752FD584B9C4208
:1028C40067D17C68B8F1020F06D0B8F1010F00F2AD
:1028D4009F80002DC0F29C80636EDB0705D4A38922
:1028E400980502D4A06DFFF7FEFD21463846FFF798
:1028F400A3FC616B41B104F14403994202D0384610
:10290400FFF768FE002363630023A3616360A38968
:10291400190603D521693846FFF75CFEA38923F421
:102924004A6323F00303B8F1020FA3816CD001AB17
:102934006A4621463846FFF7D8FDA3891843A0818B
:10294400002D30D1009D2846FFF734FE06460028AE
:1029540055D1DDF80090A9454AD14FF0FF3500224A
:10296400A26004F14702226022610122B4F90C3012
:102974006261626E43F00203D207A38105D413F4AB
:10298400007F02D1A06DFFF7AFFD284603B0BDE87C
:10299400F083244B9C4201D1BC6893E7224B9C42B8
:1029A40008BFFC688EE7002ECDD0BB6913B938464A
:1029B400FFF7D6FCB8F1010F08BFA389266004BF56
:1029C40043F00103A381A28912F00803C4E904655A
:1029D4001CD0D30741BF00236D42A360A56158BF3B
:1029E400A560656E15F0010515D112F4007FC8E7E6
:1029F4004846FFF7DFFD06460028AED04D46A389C2
:102A040043F08003A381D0E70025A8E7A360E8E7AB
:102A14004FF0FF35B9E70025B7E700BF28000020D5
:102A240004E1000824E10008E4E0000810B50C46C5
:102A3400B1F90E1000F060F90028ABBF636DA389F3
:102A44001B1823F48053ACBF6365A38110BD2DE92B
:102A5400F0411F468B89DB0505460C46164605D515
:102A6400B1F90E100223002200F028F9A389B4F969
:102A74000E1023F48053A38132463B462846BDE81A
:102A8400F04100F069B810B50C46B1F90E1000F031
:102A940015F9431CA38915BF606523F4805343F4DF
:102AA4008053A38118BFA38110BDB1F90E1000F0AB
:102AB400D3B80000F8B50E461446054618B183692C
:102AC4000BB9FFF74DFC214B9C422BD16C68A369D9
:102AD400A360A3891A072FD523696BB323692068E0
:102AE400C01A6369F6B28342374604DC214628469D
:102AF400FFF7A2FB30BBA368013BA36023685A1C09
:102B040022601E7063690130834204D0A389DB070D
:102B140006D50A2E04D121462846FFF78DFB88B935
:102B24003846F8BD0A4B9C4201D1AC68CFE7094B4B
:102B34009C4208BFEC68CAE72146284600F01EF80C
:102B44000028CBD04FF0FF37EAE700BF04E10008CC
:102B540024E10008E4E0000838B5074D04460846BF
:102B6400114600222A601A46FFF7FEF9431C02D1DF
:102B74002B6803B1236038BDD4800020324B70B57C
:102B84001D6806460C4625B1AB6913B92846FFF704
:102B9400E7FB2E4B9C420FD16C68A389B4F90C203F
:102BA40019072CD4DD0611D40923336042F0400305
:102BB400A3814FF0FF303EE0254B9C4201D1AC682D
:102BC400EBE7244B9C4208BFEC68E6E7580712D5B4
:102BD400616B41B104F14403994202D03046FFF7DE
:102BE400F9FC00236363A38923F02403A381002356
:102BF400636023692360A38943F00803A3812369E5
:102C04004BB9A38903F42073B3F5007F03D02146A5
:102C14003046FFF78FFCA089B4F90C2010F00103B3
:102C24000AD00023A36063695B42A361236943B9AB
:102C340010F08000BAD170BD810758BF6369A360EA
:102C4400F4E70020F7E700BF2800002004E10008B3
:102C540024E10008E4E0000838B5064D00230446EA
:102C640008462B6000F05AF8431C02D12B6803B1CC
:102C7400236038BDD480002038B5074D00230446B6
:102C8400084611462B6000F051F8431C02D12B6812
:102C940003B1236038BD00BFD480002038B5064D91
:102CA4000023044608462B6000F048F8431C02D178
:102CB4002B6803B1236038BDD480002038B5074D9C
:102CC40004460846114600222A601A4600F03EF8DF
:102CD400431C02D12B6803B1236038BDD48000208B
:102CE4000148FFF700BC00BFC88000200148FFF77F
:102CF400FBBB00BFC880002038B5074D044608461A
:102D0400114600222A601A4600F028F8431C02D11A
:102D14002B6803B1236038BDD4800020024B5822B5
:102D24001A604FF0FF307047D4800020024B5822C5
:102D34001A604FF0FF307047D4800020024B5822B5
:102D44001A600020704700BFD4800020024B582234
:102D54001A604FF0FF307047D4800020024B582295
:102D64001A604FF0FF307047D4800020044A0549B0
:102D74001368002B08BF0B461844106018467047B0
:102D8400D8800020E0800020F8B500BFF8BC08BC63
:102D94009E467047F8B500BFF8BC08BC9E46704715
:102DA40000002108210842084210631064108308BF
:102DB40044602880CA7000B000B001B000A0EFBA2F
:102DC40017BD74BCE7A807691A86996D0851A7A0B6
:102DD40009310408021061104108218800D045A976
:102DE4003ED6B2C200A801D82278230821182210A6
:102DF40002086000220022082A60094841004200BB
:102E0400420063006200430043004300220042008A
:102E14004200420042004200210021002200220020
:102E2400220022002200220842004200420022081E
:102E340049482F780F782E7810882F808F70F0787B
:102E44008F80D0780E7189780680067804780278AD
:102E5400027063286208211041000008C320E420A6
:102E64004200420041002100210042004200410092
:102E7400210042004300830062084508F21B7C3EA7
:102E8400FB45BB4D19463A4ECD2144082929CE2194
:102E94006911B2235614D41374038909861849118D
:102EA40000002100010021082208620022104318BA
:102EB4004230C9602B9122A047A901B000B08CB266
:102EC40014ACD6B42CA244505765FD860B622398EB
:102ED400A7400320210863180308429020F800D07B
:102EE40010C36CBA00A020D8227844002110220814
:102EF4002308420804084308AC5828304100430022
:102F04004300630063006300620042004200420029
:102F140042004200420042004200420022002200DD
:102F2400220022002200220042004200420002004D
:102F340048402D680D700C680D780D801663D74BD2
:102F4400746AB45A58534D59007000780370037072
:102F54000370022821082110210021088210620830
:102F640042004100400020004108210021002100CE
:102F7400210042086308C408C300C50075541FB784
:102F84005654B7543FC77C862D1A85106931CE1923
:102F9400A911B6449714140C160CCA09A618692171
:102FA40021082100010021082208620022180320C0
:102FB40061008528487092BB5FEF6799008836D519
:102FC400FFF7FFF753CC04581EAFFFC70B7A0298E4
:102FD400A6380118200886202508206000A000A03B
:102FE4000178006800800088426044002108421093
:102FF4002308410003004108A94826284100630032
:1030040063006300630063006200620062006200A8
:10301400620042004200420042004200420042007C
:10302400220042002200220842004200220022081C
:1030340047400B600A600960095808500B492C4945
:10304400CB58CA50EB5026580360035042402140ED
:103054000248621821000110210042006308420066
:10306400220021004000820841080000210042089B
:1030740063106310C410A41023080601F55C9FB705
:103084001325D4441FE71FA76D1245182831AD112D
:10309400A911384DD814140478040B0A6510692159
:1030A4006108420821084208420862106410242082
:1030B40082102208055039DD9FCFD7BCE49874CC28
:1030C400BFDF1CDFCECA0769D77CAF32E76864A8CC
:1030D400C528210800186510430000482661C5581A
:1030E400657029590959C55801486400821842106D
:1030F4004310610042004000441824184100640059
:103104006300630064008300830063006200620064
:10311400620042004200620062004200620042001B
:1031240042004200420022084200420042002208BB
:103134002220252045188528C82808296868878002
:10314400E530E5206010A1108710470802184010F0
:103154002210820062000108000042008308620815
:1031640062080000831082100000410861086210A8
:1031740042082208C410A408630005013665BDA6F0
:10318400974D396ED9957C7E4E22241848318C1186
:103194004811553CD81C760C790C0A0A4408481985
:1031A400410862082108420863102320A4088410FF
:1031B40022286318466868A957B59AC5E4A00BCAC3
:1031C400D6AC32AC03B86651177DB56C276123A821
:1031D400C83823182110A50001102378B7AB8E99A5
:1031E40090B21E7E9F8D73AB015065086218421821
:1031F4008418620824006100280908096200630039
:1032040083008400840084008400630063006300FE
:103214006300620062006200420042004200420019
:1032240042004200420022084200420022000108FB
:10323400E600AE0ACE02CE0A101B0E12EB31294A6A
:10324400C8410711080105010409A4002308420824
:103254002210620062082210410041084200420824
:103264004010621884200108420862088208821013
:1032740021084208C408C4008300E5009875186D4D
:10328400553C5FCF1A8E3B764F3A840868298C19D7
:103294004819964C192DD40BF70BCA114410481930
:1032A400420842082108420862104318841864182E
:1032B4006428C510858805A051B3A48000A803B074
:1032C40038CD71BB00980669FFD7FFE7CB6943A8E7
:1032D40068490418220883100210237876B38DA15C
:1032E4001293BE7D797C4E9A0058430802106208FE
:1032F400431044084500640048098909A400C40037
:10330400E400E500C600A500A400A5088408A40004
:10331400C300A300830083006300630063006300B1
:10332400630042006300630063004300420822001C
:103334008909CF1AB00AB00A8F0A4A012601294224
:10334400CA618618A700A608C508840823082208AD
:103354004208420862084208220062006200220811
:103364008420263963102200830841004208831810
:1033740021086210A510C408A300E700565D9775E4
:10338400953CBA8D3ED7DEB66F2265082A39CC1932
:103394008921FA64F81CF303150C6C1123084919EC
:1033A40062086210210842086210631083188420A6
:1033B400A420C410005893CB5CE603A020A80CAB57
:1033C400DFE7FFFF2ECB46505C967C868A7102A80D
:1033D40006316500220863180310026814B36EB145
:1033E4000E92998C76838DA101606208441882083C
:1033F400430863088400A500E600E500C600E7086A
:103404000709070107012701270127010701E70031
:10341400E600E600C600A600A600A500A4008400FD
:1034240084008400840084006400840884086300A9
:10343400A300C508C600E600E508C5008400E62030
:10344400E6306408C400A400A500640042104208E9
:103454006200420042006200010021084208642820
:103464000741A42021004200A4086208210883180F
:1034740021086210C510C5086300C8003665BFDFA7
:103484005C8ECE0216751FBF2E1A0510C930CB21D3
:103494008829F74B3514F71CB60CAB016100882161
:1034A4004208420822084208421063108318841814
:1034B400A420A4184871F4AB79CD1AEE66894FC3E1
:1034C40016BD16B54CC203888460646823B002D06C
:1034D40066502518211084200310027013C34D91E7
:1034E400F09A7D9E5E9676AB014843084410A3088B
:1034F40063008300A300C500E500E400E6000809BA
:10350400080928018801670127016701680127016B
:1035140007012701E600E600E600C600A5008400D6
:10352400A400A400A50084008500A508A4086300E5
:10353400420062006300420021086208A4004300C4
:103544000300640883006300A40083004100420870
:103554006208220042006208000000004218C640CF
:10356400C628430062008300C40862006208831016
:1035740062088310A408C4004300E708776DBFD72E
:10358400BEA6995D7D969DAECD3A0E73307B6929BA
:103594000629B12A321B8E2A2911640821188B4965
:1035A40062086210220842084210631083188318CC
:1035B400A420A410C888ADB10C9A58CD85A00AC126
:1035C400B2A354B428A100C800C000D000D860B889
:1035D4008640441041086318231802782FB22B91B7
:1035E400F0B2DC9D7B7D51AA025864084408C300F4
:1035F4008400A400E50006010601050145016701F8
:1036040048010701070906094701670167014601E7
:10361400470146010501E400C400A30084006300DF
:103624006300830063004300430063008408640074
:103634008400840084008408630863088300840091
:10364400A4008400820882008300630021008208B1
:1036540042002100620842082000200082088418E9
:103664006300A300C310A308A408420062088308EF
:10367400620863106308C40884084611B54CBC8D05
:103684003B9E1FC7BCA5967CFCD6FFFFDACD28293C
:10369400C5288F32D03221180128A4180108B3623A
:1036A40042084208210842106210631083188420E3
:1036B400A428A420037092D329AA2AA924A814E533
:1036C400FFFFFFFF95D400A020C001D000E061B847
:1036D40066486310610863102310017090BA89A1D1
:1036E4006CA11DA5B974C9A02260A5006508C40019
:1036F400C500C500E60027014701460146096801E7
:10370400AE0A720B1003EE024B02A90148014801F4
:10371400470126010601C5008400830062004200BF
:103724004200220001002100010002006408640834
:103734006300630063006300630083006200610050
:103744008200630062008200630043004208830831
:10375400620062006308420000006108A2080200DF
:10376400A408C400C31063084308420821004200AF
:1037740022086310A418C510A5200419F233386474
:103784003464787DF74B124B717BF07A0C5208311C
:10379400C530114B0D3A0018AA69AA310108AC4989
:1037A4006308621021084210431063188418A5208E
:1037B400A528A528026853DC10BB4EABA4A032CCCC
:1037C400FFFFFFFF38D500B000C801C800E001C802
:1037D400654863104208231844082158B0B269A10F
:1037E400EAA03EA5BCAD6AA92248A6000600A40032
:1037F400E600E60006014701880167014709A901BF
:10380400F5143F3FBC169E26140CC701A80169019C
:10381400480167014701E600C508A4086300620087
:1038240062006300430042004100220084008400DF
:1038340043008400A40083008400A4008300830068
:1038440083008300620042006208220821086200AB
:1038540063084308A50063002100830883108310D4
:10386400A410830841004100210041086210821025
:103874008310A410A318E520C418A5286C2A103BB3
:10388400904AF142D14232634E622A41E938E6401D
:10389400C5308B31641063404D8A27310330EC719D
:1038A4006308621041084208631063188418A52055
:1038B400A528C4200188CBC93CCEB2CB00A88FBBBD
:1038C400D8D55ACE33C401B000C820C800D822D0FD
:1038D400665045184210032024180270EBA026A05D
:1038E40024A8D7A32E9A02A06758A408A439C321F8
:1038F400C708090167016901A901A9018901EB014F
:10390400F6145F571F4FFF3695042A02EB01AB01F3
:1039140068018701880147010609C508C400A3009E
:1039240083084300430042002200220084088400EC
:103934004300840084008400840063006300640006
:103944008408A400A50085004300630043006200CE
:103954004308440062006210630862084208420897
:103964006308630821004100410842108318A3182A
:103974008310C418E420C428A530E638A420841099
:1039840085188518F5AC9EF7BDDE0B42E73005417E
:10399400E5208520422884784D8A4420A5283FE7E5
:1039A400430842084108621063108310A410C5182C
:1039B40063186310008026C1BCCE3AD68ABA20B000
:1039C40002B842A842C000D020C840C000D802D0EB
:1039D40067606628820083086408437054C34EBA43
:1039E40000A80FCAACC101A8675081002FAD55B61D
:1039F400A6004801A901AA09CB01EA01EB010C02C6
:103A0400F61C5F771E7F9F87D83D0D02ED01EA010A
:103A1400C801A9018801470126010601E508C40877
:103A240083086308630022002200220064088408DB
:103A34004308830063004300420042002200220046
:103A44004300840085006400430083008400420036
:103A5400C600E70000006320A5186208420822009F
:103A6400630062004100620882106218822082189A
:103A74008318A418E420A428C5286411A659C88171
:103A840028628B7A93BCF4B40F73283127492541FB
:103A9400E32825510471A9A9A9510218A418B694C0
:103AA400631062104108620883108310A418A518DB
:103AB400431862080170E7E8DCEEDFDF8ECA00D04D
:103AC40000D800D000D800C800D820D800E821D001
:103AD400C6506518032044102510857838B4D3A245
:103AE40001B870B254AB26B06448A6194C5A1053AE
:103AF400A7018701A909EB092C026C022B020B0216
:103B04003635DF9F1C9FFFD7154DCD018E02AB02CA
:103B14004B02EB01A901680147012601E500A4005D
:103B24006308630843002200220022008408A508D9
:103B34006408C400C4086308630863006308630876
:103B44006300A4006308210820082108620084009F
:103B54006A0907018210841864104108420063084E
:103B6400A40862004108620862106218A328822037
:103B740062188318A3208320C528C2200CB30DE348
:103B84000CC3F2DC4FC4ADA3A759E5382661265116
:103B9400E34828A28AC22AB2095285302220E74883
:103BA40043084210210862088308A410A518C620FF
:103BB4006418A308869000B828BAAAC101A820C036
:103BC40000A800B002C043A023C842C820D821C81E
:103BD4004A51C8180310A50826108788F9BB129209
:103BE40002A03ABDBFCEEAA80238AC730B8BA61074
:103BF40028016901AC014E02D002D0026E026D02AE
:103C0400982D3E773D8FBB9E4D02D1026F0330034A
:103C140070020C02EA01A80167012601E600C5084A
:103C240083104308220042004200420084088500B9
:103C34008500C500C50064086408A400A4008308C6
:103C440063086300630042084208420084008A0952
:103C540008092308A3108408430821006300A4086A
:103C6400420022082108210862186218822082205A
:103C740063188318C428E428E43063500FC473DD48
:103C8400B1CCB6DDF7DD17E66A72A3302561A7591A
:103C940024518BD32FD40AAA4DA2063901282761B7
:103CA40063108310410862088410A410C518C6204C
:103CB40064186400D36BAA610048033017C5D0931D
:103CC400AD7A74BC528C3AC628510130424023501C
:103CD4000B51305AC8088600C50067789BCCB2A245
:103CE40006A999BC0E9226A04750E729CA820A5217
:103CF40008012E02310338555A8E1A6EB52C9002E3
:103D0400BA25982DD123942C1103993D99863A7E96
:103D1400971CD0024C0A880966014601E600A400FB
:103D2400830883084200430022004200A408A5003F
:103D3400A400A500A50085008400C4006200420818
:103D44006300620042002200420084004901E8004E
:103D5400830862182200430842088300A408420032
:103D64002100410882106210631842184110A21009
:103D740083188320832862206320625094CDD7CE99
:103D8400CB83B0B46A9316DE2C83E238645168693D
:103D9400A358ABBBAA9AABD149A9010082300561F3
:103DA40062106308420863088510A410C510C62079
:103DB400842064085023AA1900000501BFCF997616
:103DC4005986BFD73B8F3B9E450002004300250028
:103DD400CA287152F06106088308067896ABF1A1EF
:103DE4008DC9B6A28CA02CC1285026090631AA413F
:103DF4008901B20B98059E97FFFFFFFF7C6EBA0402
:103E0400782DB0230F02F704D9053F9FFFFFFFFF72
:103E1400FD563805700B8801670166010601C5006F
:103E2400830083084300430043002200A408A50044
:103E340083088408A508A500A4006300411020108D
:103E44002200621020180100C7006909C60084100E
:103E5400E4288118220023088308E5086300210070
:103E64000100621849620629430862086110611062
:103E740061186220C4384A6A6C6A815833CDB8E646
:103E84004EBC75C5B0B4D6CD77BDAE8B04610669A2
:103E940067728EC428B14BF169A1831862386779BF
:103EA40062106308420863088410A518C518C61870
:103EB400A320C420CA31EA410722093A57ADF1547C
:103EC400316497A5F374CE5A89312A3AC9312B3A11
:103ED400AC21EA102F5A6B1125084B905BDCB0C162
:103EE40009B91BCDDADCADB928584829472148194E
:103EF40069019012970478257ECFBFE77C66DC05C4
:103F0400B30B3003370CB91CBA053B56FEEFDFF791
:103F14001D565804AF02AA09670147012701C400CE
:103F2400830083086300630043004200A408C500C3
:103F340083008400C500A5006300420061104010A6
:103F4400210040102010A4088B090901A410E530B9
:103F5400464961202200A508C410620022004208DC
:103F640021002218A8598310000021086220C230C1
:103F740061288651AF9B6E938C72446994CD99EEFF
:103F8400EBA299E65AF71BEFB39CAA6A6370288ADE
:103F940032C5ADCBAAE14AF9E8984218834087813B
:103FA400620883104108630884108410A510E5108A
:103FB400A3208318AD62B4C454B5F5BC94BC75ADEC
:103FC400B5C4B4B4149DB5B457BD16C574C457B5BF
:103FD400CE4A4600AC017002EB080A50F2818C70A4
:103FE4006C79F5920A700768CB50AB312809280127
:103FF400AA018F025804BA25BEDFFEFFFEF71B2E6E
:1040040057049A1DFB3E3A56B904BD66FFFFFEFFF6
:104014005E8FB9049313CA09670147010601C500FD
:10402400A40883084300430042004200A408C508D2
:10403400A400A400C500A4006300A400A108A10872
:10404400610080086208A5088308A4086829673904
:10405400254961182200C508620001004100630877
:10406400831062086208C418E841C54005496962C2
:10407400A6512549A759A2384649C68154CDBAEE5E
:10408400AEBB7AEEF6D5FBFEAC720130E460EAAA70
:104094000CCB6DE28CE249E9A89822186240468173
:1040A4006208831062088308A5108510C6100611E3
:1040B400C4186410AF5A6FAA0DB232BB0DA9CEA9B1
:1040C40090A297BCB7BCAA900D996EA1EFB177B43A
:1040D400CF42E910A8004D012A01125CD584F7945F
:1040E400969CD593D78C188DF14AEA184A01490158
:1040F4000A02AC0295139C251D97DEE77CC7FD35AB
:104104003C3E7C5E9915DA4E1C16DB357DBFBEDF66
:10411400DD569A05D20BC901680167012701C50064
:10412400830063006400640042004200A400A40011
:104134008400A500C5008300620085006210600849
:1041440082088110411000006108C410E62826315D
:10415400243161106300A508000041006208620870
:1041640063082208463132946B62495A75BD329411
:104174004641A3300020A238E9692571F2C47CEFDE
:1041840096D559E612BD99F60D830040A470879226
:104194006AAA91FA2BDA29E1E9A063206138A78998
:1041A400A308831042086308A410A518C618E508DC
:1041B400A3082200B263F7C36FB9339B128315AC13
:1041C40018B5D6A4F8A43393F18ACD886EB813A396
:1041D400B1324B11E8084B014B019DBFFFFFFFFFBC
:1041E400BDC7FFF7FFF7FFF7387D69004A01690192
:1041F400EB09CD0A300377041E365F663E46DB25A5
:104204003D971A6FF8043EAF3D7FDC059C057D1594
:10421400FB04350C8E02CA01690948092601E50030
:10422400A40883088308830863082200A400A50067
:10423400C500A500A4008300630084006308611026
:104244006108620841102100830825310439A3184C
:104254002429821063006308010062088310630844
:10426400000005290A5A6749A8516B6AD08B453169
:10427400210821200862F0A3696A4058F2C47EF73D
:10428400B5DDB5D5F2CCB8E6EB8220484370078A99
:104294008BA24FE2CBE9C8E8A8902110C340C7899C
:1042A40082008308620863108410A510C510E5100D
:1042B400C518A5200A59D0B1AB783484FFE7FFF7BD
:1042C400DFF7DFF75ECF5FBFFFCF158C0B900CA13C
:1042D40032528D112A09AB018F01FCBEFFFF7AB661
:1042E40073647AAE5CDFDFF7D67C0A016A01890168
:1042F400AB098E0A2F0B111B941BB814781C730B7B
:10430400BCAE3B773505BFCFDAA655041905D804F2
:104314007604F0024D020A02A90168012601E608AA
:10432400C410A308A208831083106200E500C5002E
:10433400E700A40083088308840084006200610805
:1043440061088200420822004210E7698551A218E0
:1043540085396210430083082108641064108410B6
:1043640000002529C951095AEC7A2539A330E440C3
:1043740028520541665988692441806875D51AE632
:104384002BAB94D5F3D498D6CB8A22506250E891C3
:104394000BBACDE10AE9C9E0EC998318613865816B
:1043A400A208831062088310A510C5080611E61838
:1043B400C520E7306A78CC88F3735FDF7EF7DFF7D8
:1043C400FFFFFFFF9BBE178D3DCF5FC7F78CD8CC97
:1043D400935A8D094A098B018E01FCBEFFFFBEE78B
:1043E400F56CBBB6DFF7FFF7B67C0B016B01AA01D6
:1043F400AA01CC01AB01F42B8E026901AB01CC0103
:10440400DDB69B769404BFA7BBA62D02CF02100392
:10441400F30B8D020B0AEA09C801A7014701E60064
:10442400A4008300830062004200C4080509E5007B
:10443400C5008400A308C408840062004100200071
:104444002008210021002100E4406792E661E32076
:10445400C649A318640084082108841084106308E2
:104464000000E4204639663965410329C3302661DA
:10447400CC8AC43821304450A448A26875DD97ED35
:104484002BC373D5D2CC78EE2D9322404248C791EA
:1044940089B1CED90BE12EEA6E9202184240E57042
:1044A4006200631042088410C510A510061906198D
:1044B40005110611517B179D9BA67FFF3DF7FEEF6B
:1044C400DEFFFEFFDCC63BAEDDDE7FEF7B9E93A30B
:1044D400B352CD016A09AC018E01BBB6FFFFDDFF0B
:1044E400BABEBEE79EEFDFF7967C0B018C01CA01D2
:1044F4004801EC01132CB955774DB544153D3535BC
:10450400797ED8657725DB7E5B76F62CD634F62C5F
:10451400983552144C02CC01AA01680147010601E6
:10452400C50084008300630043008400E400E400C9
:10453400C400A40083008300640063004100000001
:104544002100210021002100856167A22672E32851
:10455400A641A318C508E5100000A31063082200B3
:1045640021008210E320E4308330434887614A729B
:10457400A869622882288448A2406148F2DCB1F428
:1045840065A9D1F46FE4F5FDA97A00282250E580ED
:104594004DA2D5D3D1D2B0EA8B89021821388468D0
:1045A4006200631062108310C510E6100619261904
:1045B40005190619317B5393BAADBFE77EEFBFFFF0
:1045C400FFFFBEF71ED7BEC6DDDE9FE739BD2CA1B7
:1045D400934ACE094A09EC01CF015AA6FFFF5DEFC9
:1045E4001DCF5DDF7DEFFFFF767C0C018D01A901FE
:1045F400AA01977DFFF7DFFFFFFFFFEFFFEFFFFF4C
:10460400DEDF7EE7BFFF9DDFBECFFFE7FFFFFFFFDB
:10461400FFDFDFAFD6340C02CA09A80147014709FE
:1046240027090601E500A600A600C600E600C500AD
:10463400C400A30063006300640083008308830054
:104644008300A40063080008E561A6A2277AC328B2
:104654006541A320A508E51020006208420843082C
:10466400020042108B72E9596428A5388741C85169
:10467400E668C440A3288340A2486340E789EAB2BD
:1046840029A28AAA89A249AA03394228435002507E
:10469400109BBACCD5D24BD9668002280028435847
:1046A4008831831042088310C5100611471106197A
:1046B400E5280721CB78CCA09AC5FFE7BEE7DFFF4A
:1046C400FEFFDEEFFDCEDA9D1EDFBFE7989574B3E3
:1046D40095638D094A09ED01CF019BB6FFFF9FEF5A
:1046E4003AAE5ED79DEFFFFF5674EB004B01070116
:1046F400B133FFF71DCF566D5B8E7C9E9BB638AEF3
:104704001AB7BDDF5CE77CBFD76DBBB65DDFDFD713
:1047140039861986BFAF501B48018801470127011C
:104724000701E600C600C50085006400E500C50871
:10473400A400A30082006300A500C500A400C5086E
:10474400C500C500A4082000A471A7A20672C43045
:104754008639C3206400C50821004100420843088B
:10476400010083206B7AA8498418A4106200A3284E
:1047740006718350613883388448E548833021408A
:1047840043582138614000506230843883400140EE
:104794002F7A9BCCD2D906D8048822280128224813
:1047A4000B4AE5182200A410C510E61827110719B2
:1047B400E52046112C816D99D9B5FFFFDEF7DFFFA7
:1047C400FFFFDFFF1FEF5CC6DDD67FE7B89DCF8913
:1047D400715ACD014A09ED01EE01FDC6FFFFDFF775
:1047E400DAA6BAA6FFF7FFFF1564EB084B09E7004A
:1047F400134CBFD71896387E576597751876D76DC2
:104804007A96188EFBB6798E59861CC7DCBED7758E
:10481400721CBB8EFFE79023090148016801270140
:104824000701C600C6008400AA19F243A809A4001F
:10483400A40083008200A40007012711A500A4009E
:10484400A400A40084002000C781687A0329E52815
:104854008739A3208408E508210062084208630818
:104864002100A320E8590639011063188318C428CD
:10487400665982502138C42882308140E628833822
:104884008340633883388338A3308220203000404B
:10489400B182FCD46AC088E886904228022842404B
:1048A400A939C5186308C410C51006194719071992
:1048B4000521E508D19295A3D9A5FFFFFFF77BBE9B
:1048C4007BB6BFEF3FD77CBE1DCFBFDF18B591923B
:1048D40073536C096B09AC01CE013DCFFFFFFFFFA1
:1048E4007DC751934EA2FFFFB76CEA008B014901CB
:1048F400EC099985FFE7FFFFFFFFFFFFFFFFFFF7CD
:10490400FFF7BEEFFFFFFFFFFFFFFFFFFFFFFFEF1C
:10491400FFD7FFF71A964C028A0168014701270165
:104924000701E600E6004500EF2A1E8FEB0985002B
:10493400C5008300A400070169092709A400A40095
:10494400A400A40064084200475146314511E42004
:104954004541C3288408C410210822106310631041
:104964000100A3188851C5304310A3186210832096
:10497400E43082306228A420C220424065400038DE
:10498400821882106218A418653004382238003066
:10499400109BB4CA8BC810FAC88021200128224079
:1049A4000B42C5186308E418E51806214821E618E7
:1049B400E41826094F82F3A29AADFFFFDFEFB88D0A
:1049C400B6959EE75BA6D6641EBFDFDFF7B4D29A26
:1049D400534B6D11AC198C018D091DD7FFFF1EEFD0
:1049E400559415CB8CA05DEEF563EA006A016A016B
:1049F4002901531B185D778DB88DB87D978DF89D6F
:104A0400B785D875B975987D7775D875F97D1A8687
:104A14005A8EF6642C0ACB018901670148012701EB
:104A24000701E600E600A500A801501CA9118400B6
:104A3400C500A4002609480908010601E500A400F0
:104A4400A400A50083086100832845394539C4289A
:104A54006539C320A408E410010822106310631010
:104A64004200A318A849C52822088210821063189E
:104A7400621082188320C5288328C42046396080A8
:104A8400428061684250C42065406440A62844388E
:104A9400EB98B0C813E252FA878821200130035002
:104AA400CA3906196308E41805212629482107197B
:104AB40005218709CA788B90DAB5FFFFBEF75EDF60
:104AC4003EDF3EFFDDCE1BA69EDE9FE798AD4E89FE
:104AD4005052AD112A110E1AB34216A5FBE618CD99
:104AE40032833AB5DDED10BACF614A092901490193
:104AF4002901121BCD0187004A0149012901AC019A
:104B04006F02D0026F020D026C024C02EB018A01AB
:104B1400CB014A016801AA0148096701270107017D
:104B2400E600E600E6008400AA0A100D8709A4083E
:104B3400E50005018711C500A4000501E500A400F6
:104B4400A400A40883084000E3388541E428E53044
:104B5400C7410421A400C508210842104308840861
:104B64006200A3100629A41843108218A320A320CE
:104B7400A320831883208320A220C51006416098B7
:104B840062A043E803B8A218A538C418E61825485B
:104B94006B90B5E1B1D1AAE00598632802280258C8
:104BA400CB39C5106308C410E52026212719072135
:104BB400052106090E7AB1A2B9B5FFF7BFF73AA6E7
:104BC400F98D7EEF9ED73DBFBCEE5FEFF9954D8129
:104BD400317AF22A2A09EF219663F6A4DDEE3ACE61
:104BE400D7BCF69C9FFFAFC10D71EE31AB21E8003D
:104BF40028016D02CB012801AA01712B3033E70093
:104C0400F12B7FBFFAAD3DC75B7E0C02EC01EB01DB
:104C1400EB01AA0187016809480968012801070115
:104C2400E6000601E7006600CF1B394FA809A7007C
:104C34004801880906098300C4082601E500A40088
:104C4400A400A40885082100C330653146118831C9
:104C540067398310A500E5006208621063088408C0
:104C6400420063008310A518A4186318A3188220B7
:104C7400832042188320A3188220653085508088C1
:104C8400626842D822B0A52066386530A428234043
:104C94000DA1F4D14EC1A9E8669042180230025029
:104CA400EB3905196200A510E518E6200619C520A0
:104CB4000611E608F17A75AB79A5FFEF5DDF9885FB
:104CC400157D9EDFFDCEB9A51DD75FEFBA9D32934A
:104CD400516AF853F33ACC08D03A5DDF7BE59CE6A1
:104CE400D9B53AB6DDEE13CB8D61CE417162AC39E4
:104CF400E6006D020C02470146010A120A1227015E
:104D04008B02F48B71BA1DE77E976A01CA01E9012F
:104D14008901890168014701480128012801270107
:104D240007010601C5004300B334FF9FCB11A50062
:104D340089012709A500A400E6000609E600C500CC
:104D4400C400C40063002008E330483947214711F8
:104D54000611A310A400E508830862084200830832
:104D6400A400A4086208630884108410621062100E
:104D7400A32022106318C418A4186430A4504190CE
:104D8400426042B862906628A5206520A538434059
:104D940009A0B2C13BE533F34A790110004023482E
:104DA400CA31C4106208C618E62006294719062924
:104DB40047214711EB70CC90B9A5BFF73EDF3DB753
:104DC400BBDE5DEF1FDF5EBEFFC69FD73AB53393F0
:104DD4001143B332F2424D11F1427BD698D4DDE651
:104DE4003AB636B4D2BA39D532638C3950622E52BF
:104DF400E7004C0A0C0A06010501C400E50048114D
:104E0400A9012A21CE59B98DBB6E89018801A80157
:104E140069016801470127014701270107010701CB
:104E2400E6000601E6006300712CFA66C901E5009C
:104E34000601E508E508E50806010701E600C500E6
:104E4400A4008300630041080529682906110501AF
:104E5400C7192411A500C61063088300A300E40841
:104E6400E5000509E42063108410841042088210D0
:104E7400C42083186210630884108520856063B0A1
:104E8400414862A842888720AD6A2C620A3966408C
:104E9400CB989AECFDDD32D3E988022820282250F1
:104EA4000B3AE5106208C510E518062927190629EA
:104EB4004721E6086C818FA9DAA5BFFFDDF61B96B2
:104EC400BA853DD77FE71ED7BCDE7FDFDCAD4E89D8
:104ED4004F5A512A5032EE29B45BBCD638DDDDE698
:104EE4007FEF5DEED7D45CE6F4732B29EE618B493A
:104EF400E70889018909E600E500E500E5002709DE
:104F0400890149019654BFBF3A6EA9012601670180
:104F140069014801060106010601060106010601B0
:104F2400E600E600E700E800CA0A8A03A7012801B0
:104F340006010509E508E500E6000701E600C508E5
:104F4400A400420063004200C4102709270927294E
:104F5400C851C420C60028098400A410A410C41099
:104F6400A400A821CF732621A510A4104208A310E1
:104F7400C4186318A318A31842284438A35060988F
:104F8400417801D002A02A493FF7DBC551626E7215
:104F94004E925BD5F9CC70E228A003484020225001
:104FA4008929E4106108C510E51806292619C528C1
:104FB40027298510B08A71B2758CFFEF7ED7386DC2
:104FC40095543CCF9FE71DD7DBDEDFE7B7840F990D
:104FD400905A7132713ACD29545B5ED7FFFFDBCE14
:104FE400D9CDB9CD39CE7FFFF57BA920E938E8309A
:104FF400C708C600A600C70048016809E700A80161
:10500400C901C7000929D7C4DC96CA0106014701B2
:1050140089014701E50005012601E600E6000601D5
:105024000601C6000601260148015123EA11650163
:10503400260106012601260107012701E600840056
:10504400630063006300220883086601A719A84966
:10505400C859E320C6008909E608C610A518C51872
:1050640006114711AC422711C510A410A310C4188F
:10507400A42083204218210881086328A34021A08A
:1050840043A821E801B0CA48349C326B4B41865096
:10509400CEA19CD53DE62CE9048863300030235032
:1050A400EA39C4106208C518C51806210619C520B6
:1050B400C93968292A69EED02B9037ADFFF73FD75D
:1050C4005DD7FFFFFFF7DFEFFFF71C9FF58316CBDC
:1050D4007243502A7132EE31F152507493A5D5B512
:1050E4009194CC72B29C73956E522B39CC518B49EE
:1050F400C600A5008500A60049016901C60869111A
:105104004C1A260102088F92BC9ECB01280126016D
:1051140048012601E500E500E500C500E5000601BB
:105124000601C600E700670054749FD70A22E7000F
:10513400680127016701680128010701C5006300B0
:10514400A508A508A5004208E4106709A731A739F6
:10515400E8392419C50069092801270947110611EE
:1051640046094709E7000709E708C508A4108310A2
:105174006318C53026418741C949282944406298AB
:10518400414884B864A025304741A94945300338D3
:105194008F9A3FF634E348D82981421001304348BE
:1051A400C92906196308C418C5180619E628C518BC
:1051B400871906296E8257DCD2D2AF8A57AD7CDEBE
:1051C4003ACE78BD9ACD39BD77B4528395C392D186
:1051D400EF49D12A7032AF39104BD4BD5CF7D69D5C
:1051E40015969BF77CE7D9DE6C72AC39906AAC6992
:1051F400C600E7080619840049018901C4084A2148
:10520400111B06012300F25BDD96690127012701CA
:10521400E70027094801470106010601E600C50029
:10522400C500E70008016600B9A5FFF70A124801A6
:10523400AA012709260947012901E700E4008200A1
:105244004408840046096308C3080A4A08524629E8
:105254008A21270925018801490168116809680123
:10526400A801E8016709A600070168198410E41879
:1052740027294841EE7A0E7B8851682144384070D2
:1052840063286538653844280B5A6C6A4530033006
:1052940052A336DB0AC04FF24A91022041206348F0
:1052A400A921C5106308C418E518E618C620C51856
:1052B4006729E6200E9255DBDFFED9F42BB8CEA188
:1052C400D1B20EC16CC08EA1309A90C130E174E2AB
:1052D400515B945B704A6D39114379BEFFF75A965E
:1052E400B795FFFF5FBF3DD72F832929ED518A5919
:1052F400C5002821A941A51028018801070128110A
:105304000D1B480183006D2B7C8E4901C5000501EE
:10531400070128016A016901890189092701C5007A
:10532400E600E6000701C5005895BFDF2A1A870189
:10533400E8012709E60888012A022701C400A3001E
:105344006200C4004809231065392D936A7266010E
:105354004A12A8098701CA096901C901CA01EA01F7
:105364000A02A8016709CD42CC3AC72182108831CC
:105374002B520739E53804298128A630A7200120BB
:105384004718640884108518EC5149514320433868
:105394008B98D1D0D5EACDE905800220412064481C
:1053A400EA2906196308C418C518E620E620C418BB
:1053B40047318939664007786C626D7AAEA915ACBD
:1053C4000D7A32A3F19293939BBDAC616968317BF2
:1053D400B44C935B2E42CC49505B59CEFFFFFFF790
:1053E4007FFFFFFF798EDAB6B083A828E938AA5187
:1053F4000601A608E510C50808016801270103583D
:105404000278081107012401F24BAB118500E50075
:10541400E600E600270147016801890169010701E7
:10542400060106012701A500999DFFF74B1A880183
:10543400AA0949016A01CB0189012601C600A40019
:105444008200E5002809241048726CBB8B7A27017E
:105454006B3AC821A9012B028801C9012C024C0214
:105464002B022C126E32725B0B2A271987314731BB
:10547400E7386418A7410C6BC849A650072181205E
:1054840044408548A540A5302318020863302348CA
:10549400CC9078F292E907D8468862202028844884
:1054A4008821C4086308C418E510E6200619E4102E
:1054B40026318939E500020002080000E9219CB682
:1054C4007053934C186EF97D798584006508A500A6
:1054D4000C227042903AEC41EE4218C6FFFF3A7E2D
:1054E400987D9FEF7CB6BBCE707368286B514D627C
:1054F400E700A700A400E600AB116A01A500ED9A3D
:105504004CE265084901840048018B09E600E6087D
:10551400E600C400E5002601470168016A0148016C
:10552400E60007012801860037857EC72B0A49015A
:105534008B016E0AF32B722BCF1A68012A01E70044
:105544008100C500270145086A6A6BC3AC6A29015A
:105554002B4288290D026E020C226E322D028E021D
:105564008D028F221363CD39EC29EC39A93987399F
:105574006E7AA5208631C95187514651C6200459F7
:10558400E46805518759C951832061102230444889
:1055940010A252D10AE008F0A88862202130C6483F
:1055A400EA29E6106308C418C518C6200619C408F9
:1055B40006316829115CC719010801006C22FBA59A
:1055C400EE3AB153B674145C2C228500A500E700B2
:1055D4000E3A702A30320E42113B177D988DAE0A76
:1055E4005A7E5EDF7FDF3CC70E5BCA30AD61AA49DD
:1055F400A700A808A608C700ED194A010400B89D31
:105604001DFF2410080126010601CB018901270191
:1056140049094801E600E700480169018A01890156
:105624004801070148010901AC01742B0C02AB09C4
:10563400EC01F233DFD7FFE7FEA60B028E094A091D
:105644006100C608480985008A6AC9BA8F8B384D3B
:10565400ED32A821CF0191125263946B2E1A6E027F
:105664008F029243779CF162692168314731E9499D
:10567400519B0629C31044280559C649C7186538E3
:10568400C530E53007416849852802182118623879
:105694002A980FF00AF029E867802218223828494E
:1056A400C608E6108310E510E518E5180619A410DD
:1056B40047294621A82945096100031868092B2AAE
:1056C400C5006611AA29E810E50005112C428A21BB
:1056D400AC19B2425132F24A1043B05B2E1A164C46
:1056E4001655B79DFFFF1CC7AC4AC818C838C6205A
:1056F400C708A8088708C8006B09AB014A016A31CA
:105704006D72C8282701C901A40088092C02490127
:105714008909CB018901070108018A09CA01CA095B
:10572400AA09480148014801B10AD83B2D1A080AC0
:105734000B02B233BFEFFFF7DDA68F12EF014A0170
:105744006300E6082811A400487A4B9A11741D8757
:10575400312B8811700ABB7D3CE7DCAD524B4C0207
:10576400973C5CDFDFFF1A85315BAD5ACC31AD521B
:10577400CB72A520C318A4200539474185182120E0
:10578400210801080308011863206520A52820309A
:105794000A980FF00BE86BF00771022042386A494F
:1057A400010040104110A508E708261906198408CD
:1057B400E51005190308E70807198628A30821003E
:1057C400C61005116410A510E6102410CB41AA19C7
:1057D400AB096F2ACC2149118C32DAC6D24BB243C1
:1057E4004B0A336CB9957FE79163E908A720071941
:1057F400C700A7004901562C5B355B3D9C1D161460
:105804004D226B214701AA096600E6002D020E0213
:10581400AB01AA01CB018A01280107014801AA01B1
:10582400CB01AB094801E9001764FFD71123CA0172
:10583400CA0192337FD73EC79C8E8F12CE016B096B
:105844008400E60828098508296A50531945FD751E
:10585400F22AA8013434FFEFFFFF3EBF1A551A3D68
:105864009D86FFFFFFF77855145C305B8E2A4E53FC
:1058740049620841C328E53083108420A43861803C
:1058840061784170434822182529AB31AC51414815
:105894008B882FD80BD02DD98C82632041306A4954
:1058A40027096308621063006308A418E618C40893
:1058B400E50884102731314333431363AF4A0D4263
:1058C4008F428F3A4408A5100C2A123B2E1A4E021E
:1058D4001644912A6B19AB218C3298BEBCB6112B9D
:1058E400F0222D1AD42BF9A530530A098710071971
:1058F400C7006600ED117F4E9F36FF253F2E3F4FB8
:10590400B86DCC29E7004A118608830068012D0A86
:10591400CC01AA01EC01EC014901850085008A0152
:105924002C022D0AA90188003A7CDCB72F02CC0195
:105934000A02F3339FCF7ECFBD966F0A300AAC09BB
:105944006300E60888018510E530532C9E6E9B7534
:105954003233A901311B3D7E9FBFB73C7534BA6514
:10596400762C3FB73B8EAE0231130F2B2D12AC3287
:105974002A628B59C430E538A418E620834020906D
:105984008398A3F041A00220C428CD318D39A458B6
:105994008FA90EE00CD00DD10C82222021384A515F
:1059A4000E12CB192619A508621001088408C41028
:1059B4000611A5108831B23B553B703A124355632A
:1059C400B55B913A640083102A01F633BD759D6579
:1059D400F733363B10228D196D3216B69FE73D869C
:1059E400B74CAF22B32B6B1A0B2A2B21A710E71845
:1059F400E7086700AD11DD4D5F46BE359E551F6F4C
:105A0400337D084166000809E708A30027018A01DD
:105A140069014901AA01EB016901080107018A0131
:105A24000C026E020B0208019B4C9C7EAD01AA097C
:105A34000A0213349FC7BFDF9DA6B012300A8B0938
:105A44008300E6006701A300C420333C7D86B87D53
:105A54007333AA11AB01750394032F02313C736CA9
:105A6400CE01F202D2328B09F10A753C2D1AED3ABD
:105A74006A626A512431464162202721064920780E
:105A8400636021F820B8452041286B21AE3182485B
:105A9400CCA80ED811D912E2C870022841404A514C
:105AA400EB11AA1968192C2A8A11E60884084308FC
:105AB400641084086821533BF33A6300A1008A21EF
:105AC400525B704282104008A6000B090F3A5B8DAE
