:020000040800F2
:100000000080012029290008231600083116000865
:10001000371600083D1600084316000800000000CF
:100020000000000000000000000000004916000869
:100030005716000800000000651600087316000837
:100040007129000871290008712900087129000828
:100050007129000871290008712900087129000818
:100060007129000871290008712900087129000808
:1000700071290008712900087129000871290008F8
:1000800071290008712900087129000871290008E8
:1000900071290008712900087129000871290008D8
:1000A00071290008712900087129000871290008C8
:1000B00071290008712900087129000871290008B8
:1000C00071290008712900087129000871290008A8
:1000D0007129000871290008712900087129000898
:1000E0007129000871290008712900087129000888
:1000F0007129000871290008712900087129000878
:100100007129000871290008712900087129000867
:100110007129000871290008712900087129000857
:100120007129000871290008712900087129000847
:100130007129000871290008712900087129000837
:1001400000000000000000000000000000000000AF
:100150007129000871290008712900087129000817
:100160007129000871290008712900087129000807
:1001700071290008712900087129000871290008F7
:0401800071290008D9
:1001840010B5054C237833B9044B13B10448AFF3CD
:1001940000800123237010BDF4070020000000003C
:1001A4006C39000808B5034B1BB103490348AFF38E
:1001B400008008BD00000000F80700206C3900082A
:1001C40080B58AB000AF0121664802F04BF807F110
:1001D4002003184602F02CF84FF400733B6200230E
:1001E40087F82430042387F82530102387F8263035
:1001F400012387F8273007F1200319465A4801F0F4
:100204007BFF4FF400433B6207F120031946564835
:1002140001F072FF80233B6207F120031946534823
:1002240001F06AFF10233B6207F1200319464E4890
:1002340001F062FF10233B6207F1200319464A488C
:1002440001F05AFF484B4FF400725A61464B4FF489
:1002540000421A61444B01221A61434B02221A6183
:1002640010233B62002387F82630182387F82530B3
:1002740007F1200319463C4801F03EFF07F1200333
:10028400184601F0D5FF20233B62002387F8243071
:10029400042387F82530082387F82630012387F8BC
:1002A400273007F1200319462F4801F025FF80234A
:1002B4003B6207F1200319462B4801F01DFF402340
:1002C4003B62002387F82630282387F8253007F17E
:1002D40020031946244801F00FFF3B1D184602F085
:1002E40007F900233B7101237B710123BB710023B8
:1002F400FB7100233B7201237B720123BB72012338
:10030400FB723B1D19461A4802F014F901211848E2
:1003140002F00BFA0121164802F0F2F9154801F037
:10032400F9FD4FF6FE73FB821023BB82124B1B6850
:100334003B610123FB7601237B76104BFB60012399
:10034400BB7600233B7602237B7700233B7707F1C0
:100354000C031946074801F06DFE00BF2837BD465F
:1003640080BD00BF020310300008014000100140AE
:100374000030014030000240100800200C300140E1
:1003840080B584B000AF0346FB710023FB6007E037
:10039400FB680133FB60FB6842F2107293421ED883
:1003A4000221124802F0E5F90346002BF0D0FB7954
:1003B4009BB219460D4802F0CDF90023FB6006E01C
:1003C400FB680133FB60FB68B3F5801F09D2802111
:1003D400064802F0CEF90346012BF1D002E000BF3B
:1003E40000E000BF1037BD4680BD00BF00300140B3
:1003F40080B485B000AF786039600023FB81A1230D
:100404009BB2013B9BB2BB8136E0B7F90E20B7F932
:100414000C301344DA0F13445B10BB60BA68134604
:100424005B0013449B001A463B6813441B687A68BC
:100434009A420AD1BA6813465B0013449B001A46D9
:100444003B6813445B681BB21DE0BA6813465B004B
:1004540013449B001A463B6813441B687A689A420B
:1004640005D9BB689BB201339BB2FB8104E0BB6836
:100474009BB2013B9BB2BB81B7F90E20B7F90C309C
:100484009A42C2DDA12318461437BD465DF8047BA9
:100494007047000080B582B000AF9F237F22002107
:1004A400002000F0A5FE0E4B1B89DBB2184600F0BD
:1004B4001BF800237B6009E00A4A7B6832F813309A
:1004C400184600F05DF87B6801337B607B68B3F508
:1004D400A04FF1DB00BF00BF0837BD4680BD00BFA1
:1004E400180800202808002080B582B000AF034619
:1004F400FB71074B80225A61FB791846FFF740FFD6
:10050400034B80221A6100BF0837BD4680BD00BF7F
:100514000010014080B584B000AF0346FB71FB7945
:100524003B73154A13686FF3C7131360124A1368B9
:100534006FF300031360104A5368012161F30F0342
:1005440053600D4A07F10C03D3600B4A136843F060
:10055400010313604FF4007001F050FD064A136864
:1005640043F0800313600021044802F0B4F800BF94
:100574001037BD4680BD00BF30000240003001404E
:1005840080B584B000AF0346FB80FB881B0A9BB296
:10059400BB81FB88DBB29BB2FB81154A13686FF306
:1005A400C7131360124A13686FF300031360104AF1
:1005B4005368022161F30F0353600D4A07F10C03E2
:1005C400D3600B4A136843F0010313604FF40070C7
:1005D40001F014FD064A136843F080031360002100
:1005E400044802F078F800BF1037BD4680BD00BF54
:1005F400300002400030014080B485B000AF0346B3
:10060400FB800B46BB8013467B80FB887F2B0CD87A
:10061400BB889F2B09D8BB88DA01FB881344FB6095
:100624000549FB687A8821F8132000BF1437BD46BA
:100634005DF8047B704700BF2808002080B588B0AF
:1006440000AFF860B9607A603B60BB68002B6ADB7E
:100654007B68002B67DBBA683B681344802B62DC41
:100664007A68BB6A1344A02B5DDC0023FB6155E070
:100674000023BB614BE0FB693A6803FB02F2BB69F0
:1006840013445B001A46FB6813441B78FB75FB6933
:100694003A6803FB02F2BB6913445B000133FA6856
:1006A40013441B78BB75BB7DDB087B75BB7DDB000E
:1006B4005BB203F038035AB2FB7D5B09DBB25BB279
:1006C40013435BB23B75FB7D03F03F03FB747B7DFF
:1006D400DB021AB23B7D5B011BB213431AB2FB7CF3
:1006E4001BB213431BB23B82BB689AB2BB699BB279
:1006F400134498B27B689AB2FB699BB213449BB2D1
:100704003A8A1946FFF778FFBB690133BB61BA69BE
:100714003B689A42AFDBFB690133FB61FA69BB6A50
:100724009A42A5DB00E000BF2037BD4680BD90B5EE
:100734008DB000AF0446084611461A462346FB8096
:100744000346BB800B467B8013463B800023BB6281
:1007540000237B627A88FB88D31A3B623A88BB8881
:10076400D31AFB61FB88FB60BB88BB603B6A002B30
:1007740002DD01237B610BE03B6A002B02D10023E5
:100784007B6105E04FF0FF337B613B6A5B423B6278
:10079400FB69002B02DD01233B610BE0FB69002BAD
:1007A40002D100233B6105E04FF0FF333B61FB695D
:1007B4005B42FB613A6AFB699A4202DD3B6ABB61B8
:1007C40001E0FB69BB610023FB852BE0FB689BB266
:1007D400BA6891B2B7F840201846FFF70DFFBA6A1D
:1007E4003B6A1344BB627A6AFB6913447B62BA6A4C
:1007F400BB699A4207DDBA6ABB69D31ABB62FA685D
:100804007B691344FB607A6ABB699A4207DD7A6AA2
:10081400BB69D31A7B62BA683B691344BB60FB8D26
:100824000133FB85FA8DBB6901339A42CEDD00BFEB
:1008340000BF3437BD4690BD90B585B000AF0446C7
:10084400084611461A462346FB800346BB800B46E6
:100854007B8013463B80BB88FB8114E0FB88BB8113
:1008640008E03A8CF989BB891846FFF7C5FEBB89B5
:100874000133BB81BA89F9887B880B449A42F0DB47
:10088400FB890133FB81FA89B9883B880B449A427E
:10089400E4DB00BF00BF1437BD4690BD90B585B002
:1008A40000AF0446084611461A462346FB80034619
:1008B400BB800B467B8013467B707B88C3F10103AE
:1008C4009BB2FB810123BB817B881A46D203D31AD6
:1008D4005B009BB27B8100233B8192E0B7F90E3031
:1008E400002B0BDB7B88013B7B807B8902339BB233
:1008F4007B81FA897B8913449BB2FB81B7F9083069
:100904009BB201339BB23B81BB8902339BB2BB8157
:10091400FA89BB8913449BB2FB817B7803F00803FB
:10092400002B17D0FA887B88D31A98B23A89BB88EF
:1009340013449BB23A8C1946FFF75EFE3B89FA8852
:10094400D31A98B2BA887B8813449BB23A8C19465E
:10095400FFF752FE7B7803F00403002B17D03A898B
:10096400FB88134498B2BA887B8813449BB23A8CB0
:100974001946FFF741FEFA887B88134498B23A89F6
:10098400BB8813449BB23A8C1946FFF735FE7B783B
:1009940003F00203002B17D0FA887B88134498B223
:1009A4003B89BA88D31A9BB23A8C1946FFF724FEC6
:1009B4003A89FB88134498B2BA887B88D31A9BB2CD
:1009C4003A8C1946FFF718FE7B7803F00103002BDD
:1009D40017D03B89FA88D31A98B2BA887B88D31A7D
:1009E4009BB23A8C1946FFF707FEFA887B88D31A24
:1009F40098B23B89BA88D31A9BB23A8C1946FFF74E
:100A0400FBFDB7F908207B889A42FFF667AF00BF69
:100A140000BF1437BD4690BD90B587B000AF044603
:100A2400084611461A462346FB800346BB800B4604
:100A34007B8013467B707B88C3F101039BB2FB82EE
:100A44000123BB827B881A46D203D31A5B009BB274
:100A54007B8200233B82A4E0B7F91630002B0BDB2A
:100A64007B88013B7B807B8A02339BB27B82FA8A40
:100A74007B8A13449BB2FB82B7F910309BB20133DB
:100A84009BB23B82BB8A02339BB2BB82FA8ABB8A8B
:100A940013449BB2FB827B7803F00803002B1CD029
:100AA4003B8ABA88D31A9BB2FB810EE0FA887B8812
:100AB400D31A9BB2F9893A8D1846FFF79DFDB7F911
:100AC4000E309BB201339BB2FB81B7F90E20B9887B
:100AD400B7F910300B449A42E8DD7B7803F0040345
:100AE400002B1CD03B8ABA88D31A9BB2BB810EE080
:100AF400FA887B8813449BB2B9893A8D1846FFF76C
:100B04007BFDB7F90C309BB201339BB2BB81B7F9C3
:100B14000C20B988B7F910300B449A42E8DD7B7891
:100B240003F00203002B1BD0BA887B88D31A9BB234
:100B34007B810EE03A8AFB8813449BB279893A8D13
:100B44001846FFF759FDB7F90A309BB201339BB23F
:100B54007B81B7F90A20B9887B880B449A42E9DD86
:100B64007B7803F00103002B1BD0BA887B88D31A4F
:100B74009BB23B810EE03B8AFA88D31A9BB2398937
:100B84003A8D1846FFF738FDB7F908309BB20133A8
:100B94009BB23B81B7F90820B9887B880B449A4201
:100BA400E9DDB7F910207B889A42FFF655AF00BF04
:100BB40000BF1C37BD4690BD90B585B002AF04465A
:100BC400084611461A462346FB800346BB800B4663
:100BD4007B8013463B80FA883B8B134498B2FA8897
:100BE4007B8813449AB23B8BD31A9BB2013B9AB2D3
:100BF400BC88B988BB8B00932346FFF798FDFA881D
:100C04003B8B134498B2BA883B8813449BB2013B94
:100C140099B2FA887B8813449AB23B8BD31A9BB25D
:100C2400013B9CB2BA883B8813449BB2013B9AB205
:100C3400BB8B009313462246FFF779FDBA883B8BA2
:100C4400134499B2BA883B8813449AB23B8BD31AA3
:100C54009BB2013B9CB2FA88F888BB8B0093234675
:100C6400FFF765FDFA887B8813449BB2013B98B279
:100C7400BA883B8B134499B2FA887B8813449BB29D
:100C8400013B9CB2BA883B8813449AB23B8BD31A7B
:100C94009BB2013B9AB2BB8B009313462246FFF7EB
:100CA40046FDFA883B8B134498B2BA883B8B1344B5
:100CB40099B23A8BBB8B00930123FFF7EFFDFA88BF
:100CC4003B8B134498B2BA883B8813449AB23B8B4B
:100CD400D31A9BB2013B99B23A8BBB8B0093082386
:100CE400FFF7DCFDFA887B8813449AB23B8BD31A56
:100CF4009BB2013B98B2BA883B8B134499B23A8BAE
:100D0400BB8B00930223FFF7C9FDFA887B88134449
:100D14009AB23B8BD31A9BB2013B98B2BA883B88F8
:100D240013449AB23B8BD31A9BB2013B99B23A8BD0
:100D3400BB8B00930423FFF7B1FD00BF0C37BD4606
:100D440090BD90B587B002AF0446084611461A46D6
:100D54002346FB800346BB800B467B8013463B80C7
:100D6400FA883B8C134498B27A883B8CD31A9AB293
:100D74003B8CD31A9AB23C88B988BB8C0093234627
:100D8400FFF75AFDFA883B8C134498B2BA883B8C1F
:100D9400134499B23A8CBB8C00930F23FFF73CFEAB
:100DA400FA887B8813449AB23B8CD31A9BB2013BDA
:100DB40098B2BA883B8C134499B23A8CBB8C00939A
:100DC4000F23FFF729FEFA883B8C134498B2BA88A4
:100DD4003B8813449AB23B8CD31A9BB2013B99B221
:100DE4003A8CBB8C00930F23FFF716FEFA887B889E
:100DF40013449AB23B8CD31A9BB2013B98B2BA8883
:100E04003B8813449AB23B8CD31A9BB2013B99B2F0
:100E14003A8CBB8C00930F23FFF7FEFD0023FB816C
:100E240051E0FA89FB88134498B2BA883B8C134486
:100E34009AB2FB89D31A99B2FA89FB8813449CB2FB
:100E4400BA883B8813449AB23B8CD31A9AB2FB8972
:100E540013449BB2013B9AB2BB8C009313462246C7
:100E6400FFF765FCFA887B8813449AB2FB89D31A8E
:100E74009BB2013B98B2BA883B8C13449AB2FB896B
:100E8400D31A99B2FA887B8813449AB2FB89D31A8D
:100E94009BB2013B9CB2BA883B8813449AB23B8C08
:100EA400D31A9AB2FB8913449BB2013B9AB2BB8C0E
:100EB400009313462246FFF73AFCB7F90E309BB273
:100EC40001339BB2FB81B7F90E203B8C9A42A8DB1D
:100ED40000BF00BF1437BD4690BD0000B0B58AB056
:100EE40004AF0446084611461A462346FB800346CF
:100EF400BB800B467B8013463B80FB88FB82BB8810
:100F0400BB827A88FB8813447B803A88BB8813446D
:100F14003B8046E0FB6A1B682A491846FFF768FADB
:100F24000346FB74FA7C274913465B0013449B0079
:100F34000B4408331B68BB74BB6A5A68FB7C1B01F7
:100F44001344FB60FB88FA6812891A447B889A422E
:100F540006DDFB8AFB80FB685A89BB881344BB808F
:100F6400BB88FA6852891A443B889A4224DCBB6ADB
:100F74001D68BB6A5B68FC7CB988F888BA7C0292FD
:100F84003A8E019200932B46224600F01DF8FB682E
:100F94005B681B099AB2FB881344FB80FB6A043329
:100FA400FB62FB6A1B6840F25142934205D8FB6A1C
:100FB4001B681F2BAED800E000BF00BF1837BD462A
:100FC400B0BD00BF0000002080B58EB000AF7B60D4
:100FD4000346FB810B46BB811346FB72FB7A1B0164
:100FE4003A6C13443B633B6B1B8987F82F303B6B94
:100FF4005B8987F82E303B6B1B68BB623B6B9B891C
:10100400FB843B6BDB89BB840023FB8697F8483069
:10101400002B02D0012B08D00EE097F82E309BB2A3
:10102400C3F104039BB2FB8606E097F82E309BB213
:101034005B429BB2FB8600BF002387F8353074E027
:1010440097F835309AB2BB8913449AB2FB8E134495
:101054009AB2BB8CD31A9BB27B84002387F83430BA
:1010640058E097F8353097F82F2003FB02F297F8F1
:1010740034301344FB61FB695B08BB61BA6ABB692A
:1010840013447A6813441B781A46FB6903F001037E
:10109400002B01D1042300E0002342FA03F3DBB266
:1010A40003F00F03FB75FB7D002B2ED0B7F9223024
:1010B400DA01F98997F834301944B7F926300B442A
:1010C40013441F4A32F81330BB82FA7D13461B02C5
:1010D4009B1A002B00DA0F331B11FB74FA7CB98ABC
:1010E400B7F84430184600F02DF803463B8297F8D1
:1010F40034309AB2FB8913449AB2FB8C13449BB2EA
:10110400798C3A8A1846FFF777FA97F83430013326
:1011140087F8343097F8342097F82F309A42A0D3C8
:1011240097F83530013387F8353097F8352097F83C
:101134002E309A4284D300BF00BF3837BD4680BDED
:101144002808002080B485B000AF0346FB800B461E
:10115400BB801346FB70FB88DB0A9BB21A46FB7804
:1011640003FB02F2BB88DB0A9BB21946FB78C3F18E
:10117400FF0301FB03F313441B12FB73FB885B099E
:101184009BB203F03F03FA7803FB02F2BB885B09CE
:101194009BB203F03F03F978C1F1FF0101FB03F3B4
:1011A40013441B12BB73FB8803F01F03FA7803FB81
:1011B40002F2BB8803F01F03F978C1F1FF0101FBC0
:1011C40003F313441B127B73FB7BDB021AB2BB7B5E
:1011D4005B011BB213431AB27B7B1BB213431BB2DA
:1011E4009BB218461437BD465DF8047B7047000077
:1011F40080B584B000AFF860B9607A603B60214B81
:101204005B89DBB21846FFF76FF9FB681B0ADBB298
:101214001846FFF77FF9FB68DBB21846FFF77AF947
:101224007B681B0ADBB21846FFF774F97B68DBB2F4
:101234001846FFF76FF9134B9B89DBB21846FFF78B
:1012440053F9BB681B0ADBB21846FFF763F9BB68A6
:10125400DBB21846FFF75EF93B681B0ADBB218469F
:10126400FFF758F93B68DBB21846FFF753F9054B13
:101274001B89DBB21846FFF737F900BF1037BD46AC
:1012840080BD00BF1808002080B582B000AF0346BF
:10129400FB71FB79032B63D801A252F823F000BF42
:1012A400B5120008E11200080D13000839130008F4
:1012B4002E4B80221A802D4BA0225A802B4B2A229F
:1012C4005A812A4B2B229A81284B2C221A813620B0
:1012D400FFF70AF90020FFF71DF942E0234BA02293
:1012E4001A80224B80225A80204B2A225A811F4B7B
:1012F4002B229A811D4B2C221A813620FFF7F4F8F9
:10130400A020FFF707F92CE0184B80221A80174B16
:10131400A0225A80154B2A225A81144B2B229A81DF
:10132400124B2C221A813620FFF7DEF8C020FFF77B
:10133400F1F816E00D4BA0221A800C4B80225A8043
:101344000A4B2A225A81094B2B229A81074B2C22C1
:101354001A813620FFF7C8F86020FFF7DBF800E0B9
:1013640000BF00BF0837BD4680BD00BF180800207D
:1013740080B500AF1120FFF7B7F80A2001F07AFC1E
:10138400CF20FFF7B1F80020FFF7C4F8C120FFF722
:10139400C1F83020FFF7BEF8ED20FFF7A5F8642070
:1013A400FFF7B8F80320FFF7B5F81220FFF7B2F8FB
:1013B4008120FFF7AFF8E820FFF796F88520FFF7C4
:1013C400A9F80020FFF7A6F87920FFF7A3F8CB20AF
:1013D400FFF78AF83920FFF79DF82C20FFF79AF8D9
:1013E4000020FFF797F83420FFF794F80220FFF766
:1013F40091F8F720FFF778F82020FFF78BF8EA2020
:10140400FFF772F80020FFF785F80020FFF782F855
:10141400C020FFF769F81D20FFF77CF8C120FFF713
:1014240063F81220FFF776F8C520FFF75DF80E2069
:10143400FFF770F81120FFF76DF8C720FFF754F895
:101444001020FFF767F83A20FFF74EF80520FFF762
:1014540061F8B120FFF748F80020FFF75BF812208D
:10146400FFF758F8B620FFF73FF80A20FFF752F8C5
:10147400A220FFF74FF84420FFF736F80220FFF7C9
:1014840049F8E020FFF730F80020FFF743F8002088
:10149400FFF740F80020FFF73DF80020FFF73AF887
:1014A4000020FFF737F80020FFF734F80020FFF79B
:1014B40031F80020FFF72EF80020FFF72BF800206A
:1014C400FFF728F80020FFF725F80020FFF722F89F
:1014D4000020FFF71FF80020FFF71CF80020FFF79B
:1014E40019F80020FFF716F8E120FEF7FDFF0020B1
:1014F400FFF710F80020FFF70DF80020FFF70AF8B7
:101504000020FFF707F80020FFF704F80020FFF79A
:1015140001F80020FEF7FEFF0020FEF7FBFF00208D
:10152400FEF7F8FF0020FEF7F5FF0020FEF7F2FFBC
:101534000020FEF7EFFF0020FEF7ECFF0020FEF78F
:10154400E9FF0020FEF7E6FF0020FEF7E3FF292075
:10155400FEF7CAFF00BF80BD80B500AFFEF730FEC6
:101564000F4B4FF400425A61642001F083FB0C4B93
:101574004FF400421A61642001F07CFB084B4FF4E5
:1015840000721A61642001F075FB054B01225A6157
:10159400FFF7EEFE0220FFF777FE00BF80BD00BF1D
:1015A4000008014080B500AF00F0BAF90121012024
:1015B40000F078FA00BF00F011FA0346002BFAD0CD
:1015C40001223B21022000F003FB002000F08CFCF0
:1015D4000121022000F066FA00BF192000F0D6F9BC
:1015E4000346012BF9D1002000F0B0FA042000F0EA
:1015F400D9FA042000F0C0FA012000F059FC0220BE
:1016040000F034FB00BF00F05BFB0346022BFAD171
:10161400002000F04DFC01F0EFF900BF80BD80B464
:1016240000AF00BFBD465DF8047B704780B400AFD7
:10163400FEE780B400AFFEE780B400AFFEE780B4FD
:1016440000AFFEE780B400AF00BFBD465DF8047B89
:10165400704780B400AF00BFBD465DF8047B70479F
:1016640080B400AF00BFBD465DF8047B704780B412
:1016740000AF00BFBD465DF8047B704780B584B001
:1016840004AF41F6E303019305230093152380225D
:1016940000210020FFF755FB45F2AA2301930723FD
:1016A40000931723792219210320FFF74AFB43F201
:1016B40086130193072300931723792234210320EF
:1016C400FFF73FFB43F2861301930723009317238D
:1016D40079224F210320FFF734FB43F28613019351
:1016E40007230093172379226A210320FFF729FB9C
:1016F40043F286130193072300931723792285214C
:101704000320FFF71EFB4FF6FF730193072300939B
:101714001723792219210320FFF74EFA4FF6FF739E
:1017240002932C4B01932C4B0093642378220B21BE
:101734005820FFF7D3FB4FF6FF730293274B019317
:10174400274B00936423782226211C20FFF7C6FB35
:101754004FF6FF730293234B0193214B00936423B1
:10176400782241211C20FFF7B9FB4FF6FF73029347
:101774001D4B01931A4B0093642378225C211C2097
:10178400FFF7ACFB4FF6FF730293184B0193144B16
:1017940000936423782277211C20FFF79FFB4FF6E8
:1017A400FF730293124B01930D4B00936423782231
:1017B40092211C20FFF792FBA02300938023002298
:1017C40000210C48FEF73AFFFEF764FE00BFBD4659
:1017D40080BD00BF38240108903900084C2401085A
:1017E400883900087024010898240108C0240108DD
:1017F400E02401083884000880B500AFFFF7D2FE6A
:1018040000F082F801F016FA4FF4E13001F0CCF95F
:10181400044801F015FB00F007F8FFF79DFEFFF701
:101824002DFFFCE70025010880B586B000AF01213B
:101834004FF4A01000F0F7F801212E4800F0F3F85F
:1018440001214FF4C01000F0EEF801212A4800F005
:10185400EAF80121284800F0E6F80121264800F0C2
:10186400E2F80121254800F0DEF80121224800F0C9
:10187400DAF80121204800F0D6F801211E4800F0D2
:10188400D2F801211C4800F0CEF801211A4800F0DA
:10189400CAF801214FF4A01000F0C5F8184800F070
:1018A40039FB4FF6FE73FB811023BB81154BBB60E4
:1018B4000023FB7401237B74124B7B600023BB74F5
:1018C40000233B7402237B7500233B753B1D1946A3
:1018D4000B4800F0AFFB002201210D2000F0BBFDFE
:1018E40001220221064800F06BFB00BF1837BD46F9
:1018F40080BD00BF0C00180002001800040018008E
:10190400300002400C30014080B500AF032000F0ED
:10191400C3FD022200210D2000F09DFD00BF80BD0B
:1019240080B400AF184A136843F00103136000BF8A
:10193400154B1B68C3F34003DBB2012BF8D1124AE9
:1019440053686FF30103536000BF0F4B5B68C3F32D
:101954008103DBB2002BF8D10B4B1B680A4A23F03E
:10196400867323F480331360074B00225A60064BBE
:1019740000221A63044B4FF41F029A6000BFBD4655
:101984005DF8047B704700BF0010024080B485B04E
:1019940000AF78600023FB737B681B0C03F180436A
:1019A40003F504331A687B6803F01F03012101FA6D
:1019B40003F31A407B6803F01F03012101FA03F3C8
:1019C4009A4202D00023FB7301E00123FB73FB7BEB
:1019D40018461437BD465DF8047B704780B582B065
:1019E40000AF00237B600023FB7002E07B680133BF
:1019F4007B601120FFF7CAFF0346012B03D07B68ED
:101A0400B3F5405FF2D31120FFF7C0FF0346012B6B
:101A140002D00023FB7001E00123FB70FB78184621
:101A24000837BD4680BD80B483B000AF78600B46F4
:101A3400FB70FB78012B16D17B681B0C03F18043F0
:101A440003F5043319687B6803F01F0301229A40ED
:101A54007B681B0C03F1804303F50433184641EA09
:101A64000203036017E07B681B0C03F1804303F55A
:101A7400043319687B6803F01F03012202FA03F39D
:101A8400DA437B681B0C03F1804303F504331846E7
:101A940001EA0203036000BF0C37BD465DF8047B16
:101AA4007047000080B483B000AF03460A46FB7160
:101AB4001346BB71FB79042B3ED801A252F823F0E4
:101AC400D91A0008ED1A0008011B0008151B0008AC
:101AD400291B00081C4ABB7903F00103D9B213681F
:101AE40061F30003136028E0174ABB7903F0010394
:101AF400D9B2136861F3104313601EE0124ABB7934
:101B040003F00103D9B2136861F31863136014E09E
:101B14000D4ABB7903F00103D9B2136A61F30003E0
:101B240013620AE0084ABB7903F00103D9B2536A8D
:101B340061F30003536200E000BF00BF0C37BD46F1
:101B44005DF8047B704700BF0010024080B483B08E
:101B540000AF0346FB71074AFB7903F00F03D9B2C8
:101B6400536861F30713536000BF0C37BD465DF83B
:101B7400047B70470010024080B483B000AF03467A
:101B8400FB71074AFB7903F00703D9B2536861F389
:101B94000A23536000BF0C37BD465DF8047B7047D1
:101BA4000010024080B483B000AF0346FB71074AC3
:101BB400FB7903F00703D9B2536861F3CD23536073
:101BC40000BF0C37BD465DF8047B7047001002402F
:101BD40080B483B000AF0346FB710B46BB71134660
:101BE4007B71FB79002B0AD11F4A53686FF31043B2
:101BF40053601D4A136B43F00073136312E01A4AD7
:101C0400536843F480335360FB79012B05D1164AA2
:101C140053686FF35143536004E0134A536843F429
:101C240000335360104ABB7903F00F03D9B25368F1
:101C340061F395435360BB791B110B4A03F0030313
:101C4400D9B2536861F35E735360074A7B7903F03A
:101C54000103D9B2536861F3DF73536000BF0C37DB
:101C6400BD465DF8047B70470010024080B483B029
:101C740000AF0346FB71114AFB7903F00303D9B2A9
:101C8400536861F30103536000BF00BF00BF00BF8E
:101C940000BF00BF00BF00BF00BF00BF00BF00BF48
:101CA40000BF00BF00BF00BF00BF00BF00BF00BF38
:101CB40000BF0C37BD465DF8047B7047001002403E
:101CC40080B400AF044B5B68C3F38103DBB21846F6
:101CD400BD465DF8047B70470010024080B58AB0B1
:101CE40000AF786000233B6200237B620023FB612A
:101CF4000023BB6100237B6100233B61FFF7E0FF0E
:101D04000346FB73FB7B022B20D0022B69DC002BE8
:101D140002D0012B16D064E05D4B5B6DC3F340230E
:101D2400DBB2002B0AD05A4B1B6BC3F34063DBB20C
:101D3400002B03D07B68574A1A6056E07B68564AEA
:101D44001A6052E07B68544A1A604EE0504B5B685C
:101D5400C3F30043DBB2BB614D4B5B68C3F3834306
:101D6400DBB27B624A4B5B68C3F34173DBB2FB615A
:101D7400FB69002B02D17B6A0F2B06D1FB691A0188
:101D84007B6A134401337B6202E07B6A02337B6229
:101D9400BB69002B06D17B6A404A03FB02F27B68D5
:101DA4001A6022E03A4B5B68C3F34043DBB2002B7A
:101DB40010D0374B5B6DC3F30133DBB23B623B6A3C
:101DC4000233354AB2FBF3F37A6A03FB02F27B680F
:101DD4001A600AE07B6A304A03FB02F27B681A60ED
:101DE40003E07B682C4A1A6000BF294B5B68C3F38D
:101DF4000313DBB27B612A4A7B6913441B783B6182
:101E04007B681A683B69DA407B685A60204B5B68E0
:101E1400C3F30223DBB27B61224A7B6913441B7840
:101E24003B617B685A683B69DA407B68DA60184B2F
:101E34005B68C3F3C223DBB27B611B4A7B69134437
:101E44001B783B617B685A683B69DA407B689A601F
:101E54000F4B5B68C3F30073DBB27B617B699B0050
:101E64000B4A5268C2F38132D2B213437B610F4AE8
:101E74007B6913441B783B617B689A683B69B2FBBE
:101E8400F3F27B681A6100BF2837BD4680BD00BFEE
:101E940000100240006CDC0200127A0000093D00D0
:101EA40010250108202501082825010830250108EE
:101EB40080B483B000AF0346FB71FB79012B05D1DD
:101EC400084A536D43F03003536504E0054A536DEB
:101ED4006FF30513536500BF0C37BD465DF8047BF3
:101EE400704700BF0010024080B483B000AF0346C7
:101EF400FB71074AFB7903F00303D9B2536D61F315
:101F04000D33536500BF0C37BD465DF8047B704745
:101F14000010024080B485B000AF78600023FB60FD
:101F24007A6813686FF3000313607B6800221A60F9
:101F34007B6800225A607B6800229A607B680022DA
:101F4400DA607B68FB60FA6840F2FF431340B3F544
:101F5400816F11D2174B5B68FA68D2B2083A1649FE
:101F6400A1FB0212120992000F2101FA02F211469A
:101F7400104A0B43536017E0FA6840F2FF431340E2
:101F8400B3F5916F10D20D4B5B68FA68D2B2083A80
:101F94000949A1FB0212120992000F2101FA02F26F
:101FA4001146064A0B43536000BF1437BD465DF823
:101FB400047B704700000240CDCCCCCC000402402E
:101FC40080B485B000AFF860B9601346FB71FB794B
:101FD400002B06D0FB681A68BB681A43FB681A60BA
:101FE40006E0FB681A68BB68DB431A40FB681A60AA
:101FF40000BF1437BD465DF8047B704780B483B0DE
:1020040000AF78607B68B3F1805F05D9074A7B68CD
:1020140023F07043536002E0054A7B68536000BFBD
:102024000C37BD465DF8047B704700BF00040240D6
:102034000000024080B483B000AF786039607B68F0
:102044001A684BF6EF7313407A6813607B681B6859
:102054003A6812891A437B681A603B685B7C03F018
:102064000303D9B27A68136861F30D3313603B68D4
:10207400DB7B03F00303D9B27A68136861F38B2323
:1020840013603B689B7B03F00303D9B27A6813683F
:1020940061F3092313603B685B7B03F00103D9B24E
:1020A4007A68136861F3C71313603B681B7B03F002
:1020B4000103D9B27A68136861F3861313603B682D
:1020C4001B7C03F00103D9B27A68136861F34513EA
:1020D40013603B685B891A467B685A603B681A68E0
:1020E4007B689A603B685A687B68DA6000BF0C378B
:1020F400BD465DF8047B704780B485B000AF78605E
:1021040039603B681B683B813B689B79032B02D198
:1021140000237B8130E03B689B79002B15D13B6821
:102124005B799BB203F00F037B813B685B79182BCF
:1021340003D13A897B681A611EE03B685B79282BDE
:102144001AD13A897B685A6116E03B689B791BB2C5
:1021540003F008031AB23B681B791BB203F00403B3
:102164001BB213431AB23B68DB791BB203F00303BF
:102174001BB213431BB27B813B89DBB2002B25D0FE
:102184000023FB601FE03A89FB6842FA03F303F083
:102194000103002B14D07B681B68FA6892000F219E
:1021A40001FA02F2D2431A407B681A607B681B680A
:1021B4007989FA68920001FA02F21A437B681A607C
:1021C400FB680133FB60FB68072BDCD93B89FF2BE1
:1021D40028D93B891B0A3B810023FB601FE03A8915
:1021E400FB6842FA03F303F00103002B14D07B686D
:1021F4005B68FA6892000F2101FA02F2D2431A4096
:102204007B685A607B685B687989FA68920001FA96
:1022140002F21A437B685A60FB680133FB60FB6877
:10222400072BDCD900BF1437BD465DF8047B70472B
:1022340080B483B000AF78607B684FF6FF721A6099
:102244007B6800229A717B6800221A717B680422E1
:102254005A717B680122DA7100BF0C37BD465DF804
:10226400047B704780B487B000AF78600B46FB7086
:102274007B681B0E03F1804303F580337B617B682D
:102284001B0CFB747B681B0ABB747B687B74BB7C74
:10229400C3F12002FB7CD31A4FF0FF3202FA03F39E
:1022A400FB60BB7CC3F12002FB7CD31AFA6822FAE0
:1022B40003F3FB60FB7CFA6822FA03F3FB60FB7C0C
:1022C400FA6802FA03F3FB607B691968FB68DA4376
:1022D4007B690A401A60FB78002B09D07B691A6875
:1022E400797CFB7C01FA03F319467B690A431A6083
:1022F40000BF1C37BD465DF8047B704780B485B0D1
:1023040000AF78607B6803F00703FB600C4BDB686D
:10231400BB60BA684FF6FF031340BB60FB681A0248
:10232400BB68134343F0BF6343F40033BB60044A08
:10233400BB68D36000BF1437BD465DF8047B7047AB
:1023440000ED00E080B400AF044BDB681B0A03F02F
:1023540007031846BD465DF8047B704700ED00E0B6
:1023640080B483B000AF0346FB7197F90730002BAC
:102374000BDBFB7903F01F02074997F907305B0970
:10238400012000FA02F241F8232000BF0C37BD46B9
:102394005DF8047B704700BF00E100E080B483B0C7
:1023A40000AF03463960FB7197F90730002B0ADB55
:1023B4003B68DAB20C4997F907301201D2B20B44E8
:1023C40083F800230AE03B68DAB20849FB7903F09A
:1023D4000F03043B1201D2B20B441A7600BF0C3730
:1023E400BD465DF8047B704700E100E000ED00E0CD
:1023F40080B489B000AFF860B9607A60FB6803F01C
:102404000703FB61FB69C3F10703042B28BF042303
:10241400BB61FB690433062B02D9FB69033B00E073
:1024240000237B614FF0FF32BB6902FA03F3DA4306
:10243400BB681A407B699A404FF0FF317B6901FA0F
:1024440003F3D9437B680B40134318462437BD4636
:102454005DF8047B704780B586B000AF0346B96071
:102464007A60FB7300237B61FFF76CFF03467A6895
:10247400B9681846FFF7BCFF786197F90F3079699E
:102484001846FFF78BFF97F90F301846FFF768FFE0
:1024940000BF1837BD4680BD80B582B000AF03468B
:1024A400FB71FB791846FFF729FF00BF0837BD46CB
:1024B40080BD000080B483B000AF0346FB71FB799C
:1024C400042B06D1094B1B68084A43F0040313602C
:1024D40005E0064B1B68054A23F00403136000BFA4
:1024E4000C37BD465DF8047B704700BF10E000E088
:1024F40080B483B000AF78607B6800221A707B6878
:1025040000225A707B6800229A707B680022DA707D
:102514007B6800221A717B6800225A717B68002252
:102524009A717B680122DA7100BF0C37BD465DF8F1
:10253400047B704780B483B000AF786039607A68F8
:10254400D3696FF3CB23D3613B681B78002B0FD186
:102554007A6813686FF3CF3313607A6813686FF384
:102564008E3313607A6813686FF38A2313603AE03A
:102574003B681B78012B0FD17A6813686FF3CF3354
:1025840013607A6813686FF38E3313607A68136884
:1025940043F48063136026E03B681B78022B0FD161
:1025A4007A68136843F4004313607A6813686FF31E
:1025B4008E3313607A6813686FF38A23136012E012
:1025C4003B681B78032B0ED17A68136843F40043ED
:1025D40013607A68136843F4804313607A6813685D
:1025E4006FF38A2313603B68DB7903F00103D9B2EC
:1025F4007A68136861F3492313603B685B78012BA5
:1026040009D13B68DB79012B05D17A68136843F45F
:102614008073136004E07A6813686FF3082313600F
:102624003B685B7803F00103D9B27A68136861F3FD
:10263400820313603B689B78072B0FD97A68536831
:1026440043F4807353603B689B7803F00703D9B26B
:102654007A68136861F3C50313600EE07A685368FF
:102664006FF3082353603B689B7803F00703D9B2E8
:102674007A68136861F3C50313603B68DB7803F081
:102684000103D9B27A68136861F3C71313603B6816
:102694001B7903F00103D9B27A68136861F3CB2381
:1026A40013603B685B7903F00103D9B27A6813685D
:1026B40061F3410313603B689B7903F00103D9B2D2
:1026C4007A68136861F30003136000BF0C37BD46DA
:1026D4005DF8047B704780B483B000AF78600B462C
:1026E400FB70FB7803F00103D9B27A68136861F3D5
:1026F400CB23136000BF0C37BD465DF8047B7047E5
:1027040080B483B000AF78600B46FB70FB7803F0B5
:102714000103D9B27A68136861F38613136000BFAA
:102724000C37BD465DF8047B704780B483B000AFBE
:1027340078600B46FB70FB7803F00103D9B27A682A
:10274400536861F34103536000BF0C37BD465DF825
:10275400047B704780B483B000AF78600B467B8005
:102764007A887B68DA6000BF0C37BD465DF8047B6D
:10277400704780B485B000AF786039600023FB7384
:102784007B689A683B681340002B02D10023FB73DB
:1027940001E00123FB73FB7B18461437BD465DF84B
:1027A400047B704780B58CB000AFF860B960114607
:1027B4001A460B46FB711346BB7107F11403184606
:1027C400FFF78CFAFB682A4A93420BD0FB68294A2C
:1027D400934207D0FB68284A934203D0FB68274AF8
:1027E400934202D1FB69FB6201E03B6AFB62FA6A35
:1027F40013469B0013445B001A46BB68B2FBF3F319
:10280400BB62B96A1E4BA3FB0123DA0813469B0083
:1028140013445B00CA1A042A06D8BB6A184AA2FBEE
:102824000323DB08BB6206E0BB6A154AA2FB032351
:10283400DB080133BB62BB6A99B2FA68936861F33F
:102844000F039360FB7903F00103D9B2FA68D368EC
:1028540061F30C33D360BB7903F00303D9B2FA6894
:10286400136961F30D33136100BF3037BD4680BD7A
:1028740000380140006001400064014000680140EC
:10288400CDCCCCCC80B483B000AF78600B46FB7069
:10289400FB7803F00103D9B27A68D36861F34D334E
:1028A400D36000BF0C37BD465DF8047B704780B42D
:1028B40083B000AF78600B46FB70FB7803F0010334
:1028C400D9B27A68D36861F3C303D36000BF0C370D
:1028D400BD465DF8047B704780B483B000AF786078
:1028E4000B467B807B88C3F308027B685A6000BF79
:1028F4000C37BD465DF8047B704780B483B000AFED
:10290400786039607B681A683B681340002B01D0FB
:10291400012300E0002318460C37BD465DF8047B14
:1029240070470000002103E00B4B5B584350043117
:102934000A480B4B42189A42F6D30A4A02E0002393
:1029440042F8043B084B9A42F9D300F011F800F026
:10295400DDF9FEF751FF7047B4250108000000209F
:10296400F4070020F407002044A80020FEE700003C
:1029740080B400AF1E4BD3F888301D4A43F4700373
:10298400C2F888301B4A136843F00103136000BF88
:10299400184B1B68C3F34003DBB2012BF8D1154A73
:1029A40053686FF30103536000BF124B5B68C3F3BA
:1029B4008103DBB2002BF8D10E4B1B680D4A23F0C8
:1029C400867323F4803313600A4B00225A60094B48
:1029D40000221A63074B4FF41F029A60044B4FF016
:1029E40000629A6000BFBD465DF8047B704700BF7B
:1029F40000ED00E00010024080B588B000AF002375
:102A0400BB610023FB6100237B6100233B61002346
:102A1400FB600023BB60FFF753F90346FB71FB79AE
:102A2400022B20D0022B69DC002B02D0012B16D004
:102A340064E03F4B5B6DC3F34023DBB2002B0AD051
:102A44003B4B1B6BC3F34063DBB2002B03D0394B0E
:102A5400394A1A6056E0374B384A1A6052E0354B0F
:102A6400364A1A604EE0324B5B68C3F30043DBB274
:102A74003B612F4B5B68C3F38343DBB2FB612C4B9D
:102A84005B68C3F34173DBB27B617B69002B02D1CA
:102A9400FB690F2B06D17B691A01FB6913440133CF
:102AA400FB6102E0FB690233FB613B69002B06D149
:102AB400FB69234A02FB03F31E4A136022E01C4B0A
:102AC4005B68C3F34043DBB2002B10D0184B5B6D43
:102AD400C3F30133DBB2BB61BB690233174AB2FBF8
:102AE400F3F3FA6902FB03F3124A13600AE0FB6989
:102AF400124A02FB03F30F4A136003E00D4B0F4A23
:102B04001A6000BF0A4B5B68C3F30313DBB2FB60BC
:102B14000C4AFB6813441B78BB60064B1A68BB68FD
:102B240022FA03F3034A136000BF2037BD4680BD79
:102B3400001002408C070020006CDC0200127A00B6
:102B440000093D003825010880B586B000AFF86063
:102B5400B9607A6000237B611BE000BF80211148CB
:102B6400FFF7CBFE0346002BF8D0BB685A1CBA60B3
:102B74001B789BB219460B48FFF7AEFE00BF4021FD
:102B84000848FFF7BAFE0346002BF8D07B690133EF
:102B94007B617A697B689A42DFDB7B681846183769
:102BA400BD4680BD0038014080B584B000AF786078
:102BB4001B4B1B68986800230222002100F048F98F
:102BC40001211848FEF72FFF01211748FEF72BFFBC
:102BD40007F108031846FFF72BFB0123FB730023BF
:102BE4003B730823BB734FF40073BB6004237B73F4
:102BF40007F1080319460D48FFF77EFA0023002267
:102C040079680B48FFF7CEFD01210948FFF74FFE15
:102C140001210748FFF736FE00BF1037BD4680BDCF
:102C2400900700200E001800020018000008014060
:102C34000038014080B500AF0420FFF73BFC094B8E
:102C44001B68094AA2FB03239B0C084A1360074B29
:102C54001B684FF47A7202FB03F3054A136000BF4A
:102C640080BD00BF8C07002083DE1B4328A8002002
:102C74002CA8002080B485B000AF0346FB8000235D
:102C8400FB6035E0FB88322B0AD91E4B1B681E4AB9
:102C9400322101FB03F35360FB88323BFB8008E0E5
:102CA400FB88184A1268184902FB03F34B6000239F
:102CB400FB80154B00229A60134B1B68124A43F0A9
:102CC40001031360104B1B68FB60FB6803F00103F6
:102CD400002B04D0FB6803F48033002BF2D00A4BA2
:102CE4001B68094A23F001031360074B00229A6012
:102CF400FB88002BC6D100BF00BF1437BD465DF86A
:102D0400047B70472CA8002010E000E070B50D4D46
:102D14000D4C641BA4100026A64209D10B4D0C4C8B
:102D240000F022FE641BA4100026A64205D170BD4B
:102D340055F8043B98470136EEE755F8043B9847AD
:102D44000136F2E7AC250108AC250108AC250108E1
:102D5400B025010802440346934200D1704703F8AA
:102D6400011BF9E770B50E46054618B183690BB926
:102D740000F00EFBAB69AC6813B9284600F008FB01
:102D84002C4B9C4220D16C68636EDB0705D4A3896D
:102D9400980502D4A06D00F099FBA38919071DD5ED
:102DA4002369DBB1013EA36816F8011F013BA36050
:102DB40039BB002B38DA22460A21284600F00EF9E6
:102DC400013011D00A2511E01B4B9C4201D1AC68A3
:102DD400DAE71A4B9C4208BFEC68D5E7214628463F
:102DE40000F04EF90028DDD04FF0FF35636EDA07AE
:102DF40005D4A3899B0502D4A06D00F068FB284686
:102E040070BD002B04DAA2699A4206DC0A2904D0B8
:102E140023685A1C22601970C5E72246284600F030
:102E2400DDF80130BFD1DFE723680A255A1C226090
:102E34001D70DBE76C2501088C2501084C25010871
:102E4400024B01461868FFF78DBF00BF90070020B2
:102E54002DE9F7431D465D4B1F6804460E46904618
:102E640027B1BB6913B9384600F092FA584B9C421B
:102E740067D17C68B8F1020F06D0B8F1010F00F2F7
:102E84009F80002DC0F29C80636EDB0705D4A3896C
:102E9400980502D4A06D00F019FB2146384600F0D5
:102EA400E3F9616B41B104F14403994202D038461D
:102EB40000F07CFB002363630023A3616360A389A8
:102EC400190603D52169384600F070FBA38923F461
:102ED4004A6323F00303B8F1020FA3816CD001AB62
:102EE4006A462146384600F0F3FAA3891843A081C4
:102EF400002D30D1009D284600F050FB06460028E6
:102F040055D1DDF80090A9454AD14FF0FF35002294
:102F1400A26004F14702226022610122B4F90C305C
:102F24006261626E43F00203D207A38105D413F4F5
:102F3400007F02D1A06D00F0CAFA284603B0BDE8B4
:102F4400F083244B9C4201D1BC6893E7224B9C4202
:102F540008BFFC688EE7002ECDD0BB6913B9384694
:102F640000F016FAB8F1010F08BFA389266004BF68
:102F740043F00103A381A28912F00803C4E90465A4
:102F84001CD0D30741BF00236D42A360A56158BF85
:102F9400A560656E15F0010515D112F4007FC8E730
:102FA400484600F0FBFA06460028AED04D46A389F9
:102FB40043F08003A381D0E70025A8E7A360E8E7F6
:102FC4004FF0FF35B9E70025B7E700BF90070020B1
:102FD4006C2501088C2501084C250108F8B50E461E
:102FE4001446054618B183690BB900F0D1F9214B99
:102FF4009C422BD16C68A369A360A3891A072FD5BF
:1030040023696BB323692068C01A6369F6B28342EB
:10301400374604DC2146284600F026F930BBA36875
:10302400013BA36023685A1C22601E70636901304F
:10303400834204D0A389DB0706D50A2E04D1214696
:10304400284600F011F988B93846F8BD0A4B9C426D
:1030540001D1AC68CFE7094B9C4208BFEC68CAE7D2
:103064002146284600F00CF80028CBD04FF0FF375B
:10307400EAE700BF6C2501088C2501084C250108EE
:10308400324B70B51D6806460C4625B1AB6913B9C1
:10309400284600F07DF92E4B9C420FD16C68A38921
:1030A400B4F90C2019072CD4DD0611D4092333609C
:1030B40042F04003A3814FF0FF303EE0254B9C4299
:1030C40001D1AC68EBE7244B9C4208BFEC68E6E70F
:1030D400580712D5616B41B104F14403994202D0FF
:1030E400304600F063FA00236363A38923F02403CA
:1030F400A3810023636023692360A38943F0080349
:10310400A38123694BB9A38903F42073B3F5007F2A
:1031140003D02146304600F001FAA089B4F90C200E
:1031240010F001030AD00023A36063695B42A3612A
:10313400236943B910F08000BAD170BD810758BF2C
:103144006369A360F4E70020F7E700BF900700205D
:103154006C2501088C2501084C2501088A892DE974
:10316400F041054610070C4658D44B68002B05DC8B
:103174000B6C002B02DC0020BDE8F081E66A002E17
:10318400F9D0002312F480522F682B6032D0606D86
:10319400A3895A0705D56368C01A636B0BB1236C06
:1031A400C01A00230246E66A216A2846B047431C37
:1031B400A38906D129681D292CD82A4ACA40D607D2
:1031C40028D500226260D9042269226004D5421CF9
:1031D40001D12B6803B96065616B2F600029CAD0E7
:1031E40004F14403994202D0284600F0DFF900209C
:1031F4006063C1E7216A01232846B047411CC7D157
:103204002B68002BC4D01D2B01D0162B01D12F60AD
:10321400B1E7A38943F04003A381ADE70F69002F11
:10322400A9D093070E6808BF4B690F6018BF00232D
:10323400A6EB07088B60B8F1000F9CDD216AA66A33
:1032440043463A462846B047002806DCA38943F0A3
:103254004003A3814FF0FF308EE70744A8EB00083A
:10326400E9E700BF0100402038B50B6905460C466C
:1032740013B90025284638BD18B183690BB900F08D
:1032840087F8144B9C421BD16C68B4F90C30002BAA
:10329400EFD0626ED00704D4990502D4A06D00F07B
:1032A40015F928462146FFF759FF636EDA070546EC
:1032B400E0D4A3899B05DDD4A06D00F008F9D9E71B
:1032C400054B9C4201D1AC68DFE7044B9C4208BF2C
:1032D400EC68DAE76C2501088C2501084C25010807
:1032E400002310B50446C0E90033C0E90433836009
:1032F40081814366C2818361194608225C30FFF7ED
:1033040029FD054B6362054BA362054BE362054B44
:103314002462236310BD00BF91370008B33700084F
:10332400EB3700080F380008014900F0AFB800BFC0
:103334006D32000870B568224D1E55430E4605F1E6
:10334400740100F09FF9044640B10021C0E9001661
:103354000C30A06005F16802FFF7FCFC204670BD4C
:10336400014800F0B3B800BF31A80020014800F0C4
:10337400AEB800BF31A80020014800F0A7B800BFD4
:1033840032A80020014800F0A2B800BF32A80020F3
:1033940010B50446FFF7F0FFA3691BB1BDE8104068
:1033A400FFF7F0BFC4E912332365134B134A1B68BC
:1033B400A262A34204BF0123A361204600F020F8C7
:1033C4006060204600F01CF8A060204600F018F869
:1033D4000022E06004216068FFF782FFA0680122F8
:1033E4000921FFF77DFFE06802221221FFF778FF31
:1033F4000123A361D2E700BF482501082D3300084B
:10340400F8B50746FFF7ACFF1E4B1E68B36913B946
:103414003046FFF7BDFF4836D6E90134013B03D5FA
:1034240033680BB33668F7E7B4F90C50D5B9164BCB
:10343400E36004F15800656600F047F8FFF796FF73
:10344400C4E90155C4E904552560A561082229464B
:1034540004F15C00FFF77EFCC4E90D55C4E9125584
:103464002046F8BD6834D9E704213846FFF762FFE7
:10347400044630600028D5D1FFF778FF0C233B6069
:10348400EEE700BF482501080100FFFF2DE9F843DE
:103494000646884600F148040027D4E90195B9F1AD
:1034A400010905D52468002CF7D13846BDE8F88316
:1034B400AB89012B07D9B5F90E30013303D0294666
:1034C4003046C04707436835E9E77047704770479F
:1034D40070B50E46B1F90E10002996B014461D467B
:1034E40008DAB6F90C3000222A601A0610D44FF418
:1034F40080630EE06A4600F0AFF90028F1DB019A20
:1035040002F47042A2F500535A425A412A60EEE78F
:1035140040230020236016B070BD00008B8973B572
:103524009D0706460C4607D504F147032360236133
:103534000123636102B070BD01AB6A46FFF7C8FFA7
:1035440000990546304600F09DF848B9B4F90C30AE
:103554009A05EFD423F0030343F00203A381E3E7C6
:103564000D4BB362A389206043F08003A381009BC9
:103574006361019B20615BB1B4F90E10304600F029
:103584007DF928B1A38923F0030343F00103A38148
:10359400A0890543A581CDE72D330008024B0146E0
:1035A400186800F06FB800BF9007002037B50029F5
:1035B40044D051F8043C0190002BA1F10404B8BF9D
:1035C400E41800F07DF91E4A0198136833B963606A
:1035D400146003B0BDE8304000F078B9A34208D9C4
:1035E400256861198B4201BF19685B68491921601C
:1035F400EDE71A465B680BB1A342FAD91168551876
:10360400A5420BD1246821445418A3421160E0D18F
:103614001C685B68536021441160DAE702D90C230B
:103624000360D6E7256861198B4204BF19685B689B
:10363400636004BF491921605460CAE703B030BD18
:1036440034A8002070B50E4E0C463168054611B9F9
:1036540000F08CF830602146284600F087F8431CBF
:103664000AD0C41C24F00304A04207D0211A28461F
:1036740000F07CF8013001D14FF0FF34204670BDDA
:1036840038A800202DE9F041CD1C25F003050835AC
:103694000C2D38BF0C25002D074601DBA94205D9A6
:1036A4000C233B6000263046BDE8F0812E4E00F02E
:1036B40007F933681C4634BB29463846FFF7C2FF76
:1036C400431C04464DD134682646002E40D123685D
:1036D4003146384604EB030800F048F880453AD1F7
:1036E400216803356D1A25F0030508350C2D38BF04
:1036F4000C2529463846FFF7A5FF01302BD0236857
:103704002B4423600EE02268521B1ED40B2A16D9C8
:103714006119A342256018BF5960636808BF31600E
:1037240062514B60384604F10B0600F0CFF826F0E6
:103734000706231DF21AB6D09B1BA350B3E7626899
:10374400A3420CBF32605A60ECE723466468B2E7D8
:1037540034467668B9E70C233B60384600F0B6F887
:10376400A1E72560DEE700BF34A8002038B5064D88
:103774000023044608462B6000F0E8F8431C02D1FD
:103784002B6803B1236038BD3CA8002010B50C465B
:10379400B1F90E1000F0A0F80028ABBF636DA38947
:1037A4001B1823F48053ACBF6365A38110BD2DE9BE
:1037B400F0411F468B89DB0505460C46164605D5A8
:1037C400B1F90E100223002200F068F8A389B4F9BD
:1037D4000E1023F48053A38132463B462846BDE8AD
:1037E400F04100F017B810B50C46B1F90E1000F016
:1037F40055F8431CA38915BF606523F4805343F433
:103804008053A38118BFA38110BDB1F90E1000F03D
:1038140013B8000038B5074D044608461146002287
:103824002A601A46FFF790F9431C02D12B6803B1B2
:10383400236038BD3CA8002038B5064D002304465B
:1038440008462B6000F05AF8431C02D12B6803B1E0
:10385400236038BD3CA8002038B5074D002304463A
:10386400084611462B6000F051F8431C02D12B6826
:1038740003B1236038BD00BF3CA8002038B5064D15
:103884000023044608462B6000F048F8431C02D18C
:103894002B6803B1236038BD3CA8002038B5074D20
:1038A40004460846114600222A601A4600F03EF8F3
:1038B400431C02D12B6803B1236038BD3CA800200F
:1038C4000148FFF703BE00BF30A800200148FFF7FE
:1038D400FEBD00BF30A8002038B5074D0446084699
:1038E400114600222A601A4600F028F8431C02D12F
:1038F4002B6803B1236038BD3CA80020024B58223A
:103904001A604FF0FF3070473CA80020024B582249
:103914001A604FF0FF3070473CA80020024B582239
:103924001A600020704700BF3CA80020024B5822B8
:103934001A604FF0FF3070473CA80020024B582219
:103944001A604FF0FF3070473CA80020044A054934
:103954001368002B08BF0B461844106018467047C4
:1039640040A8002048A80020F8B500BFF8BC08BC57
:103974009E467047F8B500BFF8BC08BC9E46704729
:10398400A100000098390008CC5B0008EC65000831
:10399400187A0008BF0BF0AF0AE09E08D08D07C06C
:1039A400000010CF1AE1F51F3F51F3E40F3E40F23F
:1039B4007208100006C003E000007A005C000009F1
:1039C4008007A001FFFFFFFFFD033E733C8330002F
:1039D400F200C500001F100E300003F000F1009F3C
:1039E400FFFFFFFF4138C336E3300089006C00005D
:1039F4000A7007A0000000790000000079000000B0
:103A04005CFFEA2007FCBC9EA00FB07900101F8069
:103A14007900000DE579000003EFFD50000005CFAB
:103A2400FF500000794DF100007905F40800790891
:103A3400F22FFABCAFA0029DFFD70000007900006E
:103A4400000079000004DD900005D000E20B600165
:103A5400E3005B005B00A90006A003C04E00005B0E
:103A6400005B0E500000E40C68A0000004DE83E15B
:103A74004DFA000000D60E40A800007C04C003D01C
:103A8400002F204C002D000B7000E2089006D0009F
:103A940004DEB1000AFFB100000AE43CB00000E813
:103AA400006E00000BC00CA000003FADD10000016F
:103AB400DFC0000003EB8F701800EB007F65F03F60
:103AC40040008FEA03F60000CF700BF956CFBF40D9
:103AD40008EFEA30A5000000000000F5F5E4E47208
:103AE40000D905F20BC00F803F405F207F107F009C
:103AF4007F105F203F400F800BC005F200D93F408C
:103B04000CC006F201F600DA00BC00AD009E00AD68
:103B140000BC00DA01F606F20CC03F40004A000681
:103B240074A3A02BFFE6006FFB207B6B8D0004A029
:103B3400000013000000041000000F5000000F509C
:103B440000111F6110EFFFFFF3344F7440000F505A
:103B540000000F5000000410000212FC1EC0B70E3B
:103B640020700111101FFFF30444410312FC1E9046
:103B7400000005F100000AB000000F6000005F10B3
:103B84000000AB000000F6000005F100000AB000E0
:103B9400000F6000004F100000AC000000F60000B1
:103BA40004F100000AC000000E6000004F10000085
:103BB4000009EFD60000CFA8CF8008F5000AF30E65
:103BC400C00001F91F700000DC3F600000BE3F60D0
:103BD4000000BE1F800000DC0EC00001F907F500E4
:103BE4000AF200CFA8CF800008EFD600EFFF367AA4
:103BF400F3005F3005F3005F3005F3005F3005F339
:103C0400005F3005F3005F3005F304BFFD8007FD5E
:103C140098CFA0280000BF10000007F2000000AFFA
:103C24000000004F8000003FC000003EC100002E95
:103C3400D100002ED100002EF8777746FFFFFFFA5F
:103C44006FFFFFFF0277779FB000000CD1000009DF
:103C5400F3000005F6000000DFFB10000348FD0040
:103C6400000006F50000003F64400008F4BFC88B64
:103C7400FB007CFFD800000001EB00000000BE1038
:103C84000000006F500000002FA00000000CE000B6
:103C9400000008F301D50003F8002F6000EE222491
:103CA400F7216FFFFFFFFF81555557F952000000C0
:103CB4002F6000000002F60005FFFFFF007F77770A
:103CC4007008F0000000AD0000000BC2100000DF1F
:103CD400FFFB30045558EF20000003F80000000FEC
:103CE40092500005F78FD98AFE105BEFE9100006A9
:103CF400CFFD6000AFC87A7006F80000000DD00058
:103D040000001F800100003F69FFFA103FED647F4F
:103D1400D02FF10005F50FC00002F609F10006F4FA
:103D240001DE769FB00019EFE8008FFFFFFFE8F790
:103D34007777FC8F00004F5590000BE0000002F8ED
:103D44000000008F1000000FB0000006F400000017
:103D5400DD0000003F7000000AF1000001F90000DE
:103D6400005CFFD80006FC66AFA00CD00009F10D82
:103D7400B00006F208F5003DD000DFFFFF300AF77F
:103D8400445EE12F700003F74F500000F92FA000AC
:103D940005F609FB669FD0006CFFD810019EFE80DB
:103DA400000CF858FC005F50003F708F00000ED0EC
:103DB4007F20001FF01FD413CFF104EFFFB9F100EF
:103DC40003410AF00000000EB00000009F4009A764
:103DD4008DF80008DFFC40001E92FC031000000078
:103DE400000312FC1E901E92FC031000000000024F
:103DF40012FC1EC0B70E20700000004200017DF3CB
:103E0400039FE810BFB50000EE71000016DFB40098
:103E14000004AFD200000182EFFFFFF34555555176
:103E24000000000001111110EFFFFFF3344444407F
:103E340050000000EF92000006CFC50000039FE28F
:103E440000005CF3028EF820BFC60000930000005F
:103E540005BFFD8008FC77BFA0270000BF0000005D
:103E640009F0000001EB000001DD100000DE10008D
:103E7400004F60000001300000000100000007F561
:103E84000000005F4000000018DFFEB600000007DD
:103E9400FB52236DD200007E400000007E2003F31D
:103EA40002BFFA3F48C00A901EC439EF40E40F3005
:103EB4009E00009F40992F00D900003F406B3F00B7
:103EC400F700001F405C2F00D900003F406B0F300B
:103ED4008E1000AF40980A901ED64ADEA5F203F376
:103EE40002BFFA16EE60007E3000000000000006FB
:103EF400FA5223750000000018DFFEA30000000042
:103F040002FD00000000009FF4000000000F8DB0CF
:103F140000000006F27F20000000DB01F800000032
:103F24004F400AE000000BE0003F600002F811116E
:103F3400DD00008FFFFFFFF3000EB444444FA006E2
:103F4400F30000009F10CD00000002F85FFFFFFCAB
:103F54005005F85557DF505F400001FA05F40000A2
:103F64000EA05F511129F405FFFFFFFA005F7444AE
:103F740048FA05F4000008F25F4000005F45F400D1
:103F84000008F35F85556AFB05FFFFFFD8000002B8
:103F94009EFFB50005FFA89DF903FD20000850BF52
:103FA400100000001F9000000003F6000000003F16
:103FB4006000000001F9000000000BF100000000A7
:103FC4003FD2000085005FFA89DF900029EFFB50A3
:103FD4005FFFFFEA40005F97779EF9005F400000B3
:103FE4009F705F4000000CF05F40000005F45F40EC
:103FF400000002F65F40000003F65F40000006F494
:104004005F4000000CE05F400000AF605F97779E68
:10401400F8005FFFFFEA40005FFFFFFF95F9777745
:10402400745F40000005F40000005F51111105FFAA
:10403400FFFFE05F74444405F40000005F400000AB
:1040440005F40000005F97777765FFFFFFFD5FFFD2
:10405400FFFF95F97777745F40000005F4000000D6
:104064005F40000005F62222105FFFFFFE05F855B1
:1040740055405F40000005F40000005F400000056B
:10408400F400000000029EFFC600005FFB88CFB072
:1040940003FD200006600BF1000000001F900000EB
:1040A40000003F60000000103F60000009F01F9016
:1040B400000009F00BF1000009F003FD20000AF0F4
:1040C400005FFB88CFD000029EFFC6005F40000067
:1040D4004F55F4000004F55F4000004F55F4000014
:1040E40004F55F6222226F55FFFFFFFFF55F8555E0
:1040F400558F55F4000004F55F4000004F55F4005F
:104104000004F55F4000004F55F4000004F55F45DE
:10411400F45F45F45F45F45F45F45F45F45F45F4AF
:1041240000FFFFFA007777FA000000FA000000FAB7
:10413400000000FA000000FA000000FA000000FA93
:10414400000000F9072003F70EF88EF101AFFC30F0
:104154005F400002EB05F40001EC005F4001DE105B
:1041640005F400CE20005F40BF300005F49F9000AE
:10417400005FCFEF400005FF91EE10005FA003FC4D
:104184000005F40006F8005F400009F505F400009E
:104194000CF25F40000005F40000005F40000005E1
:1041A400F40000005F40000005F40000005F4000E0
:1041B4000005F40000005F40000005F40000005F0B
:1041C40097777725FFFFFFF55F400000001E95FC01
:1041D40000000008F95FF5000001FF95FFD0000022
:1041E400AFF95F8F70002F8F95F3BE100BE0F95F6E
:1041F40032F803F60F95F308F2CC00F95F300EDFC6
:10420400300F95F3006FA000F95F300081000F9527
:10421400F300000000F95F5000004F55FF20000438
:10422400F55FFD00004F55FCFA0004F55F4BF70005
:104234004F55F41EF304F55F403FE14F55F4007F02
:10424400B4F55F4000AFCF55F40000DFF55F4000E8
:1042540002FF55F4000006F500029EFFB5000005BC
:10426400FFA89DFB0003FD200007FA00BF1000001B
:1042740009F31F900000002F73F600000000FA3FBE
:10428400600000000FA1F900000002F70BF100002C
:1042940000AF203FD200007FA0004FFA89DFB000BA
:1042A4000029EFFB50005FFFFFD8005F9777BFC086
:1042B4005F400006F65F400000FA5F400000EB5FDD
:1042C400400003F85F62226EF15FFFFFFD305F85FF
:1042D4005420005F400000005F400000005F400089
:1042E400000000029EFFB50000005FFA89DFB00005
:1042F40003FD200007FA000BF10000009F301F901F
:104304000000002F703F600000000FA03F6000001D
:10431400000FA01F900000002F700BF2000000AFF0
:104324002003FD200008FA00004FFA89DFB00000E6
:10433400029EFFC500000000003FE415B00000002D
:1043440002CFFF90000000000231005FFFFFD800A1
:104354005F9777BFC05F400006F65F400000FA5FDA
:10436400400000EB5F400003F85F62226EF15FFFE4
:10437400FFFD305F8555F9005F40007F405F4000DE
:104384000CE05F400002F9005CFFEA2007FC779E26
:10439400A00FB00000101F800000000DE500000019
:1043A40003EFEA50000005AEFF500000004DF1009D
:1043B400000005F408000008F22FFA77AFA0029D70
:1043C400FFD700FFFFFFFFF56778FB77720001F767
:1043D40000000001F700000001F700000001F700F1
:1043E400000001F700000001F700000001F70000E1
:1043F4000001F700000001F700000001F700006F62
:104404003000008F16F3000008F16F3000008F16A3
:10441400F3000008F16F3000008F16F3000008F17C
:104424006F3000008F16F3000008F03F700000CEDC
:1044340000EE10004F8004FE98BFD10003BFFE9130
:10444400000CE00000006F306F5000000CC000FB57
:10445400000003F60009F20000AF00002F80001FE7
:10446400900000CE0007F2000005F500DC0000001B
:104474000EC04F500000008F2BE000000002FBF83C
:10448400000000000BFF10000000004FB000005FB0
:10449400400000DF000002F50F900002FF4000071B
:1044A400F00BE00007FE90000CB006F3000CA9E04E
:1044B400001F6001F8001F54F3006F1000CD006F5F
:1044C40010F800BC00007F20CB00AD01F700002FE6
:1044D40071F6005F26F200000DC6F1000F7BD000DC
:1044E4000008FDC0000BDF80000003FF700006FF22
:1044F40030000000EF200001FE00003F900000CEDD
:10450400008F40007F4000DE103F900003FA0DD082
:10451400000008FCF30000000DF900000001FFC0DA
:10452400000000BF7F8000006F60AF30002FB0013B
:10453400ED000CF10004F807F6000009F30CE000AC
:104544000007F203F700001F9000AF10009E100058
:104554001FA002F6000008F30BD0000000EC4F404F
:104564000000005FFB000000000DF20000000009E5
:10457400F00000000009F00000000009F000000055
:104584000009F000003FFFFFFFFD01777777BF9040
:104594000000002EC00000000CF200000008F5002E
:1045A400000004F900000001ED00000000CF20002D
:1045B40000008F500000004F900000001EF8777735
:1045C4007705FFFFFFFFF05FFF05F7505F3005F34E
:1045D400005F3005F3005F3005F3005F3005F30042
:1045E4005F3005F3005F3005F7505FFF007E000089
:1045F400001F4000000C90000007E0000002F400DF
:104604000000C90000007E0000002F4000000C9054
:10461400000007E0000002F3000000D90000007E63
:104624000000002F3000000D90000007E0BFFA35B5
:10463400EA00EA00EA00EA00EA00EA00EA00EA0026
:10464400EA00EA00EA00EA35EABFFA002F80000037
:104654009DE00000F3D50006C07B000C601F203FE6
:10466400100B809A0004E0FFFFFFFF1111111107E6
:10467400F60003E702AEFE9000CD86AFA002000074
:104684009F00000005F203BFFFFF20EC4227F23F2A
:1046940050007F20EC327FF203CFFB7F208F00009D
:1046A40000008F000000008F000000008F2BFFB37C
:1046B400008FEC78EF408F90001ED08F100007F22F
:1046C4008F000005F38F100007F28F90001ED08F2B
:1046D400FB77EF408E2BFFB300003BFFC4004FD8A5
:1046E4007CF50ED0000713F50000005F30000003D6
:1046F400F50000000ED00006104FD77CF5003BFFFC
:10470400C40000000001F700000001F700000001F0
:10471400F7004CFFA3F705FD77CEF70ED0000BF79B
:104724003F500003F75F300001F73F500003F70EDE
:10473400D0000BF705FD77CEF7004CFFB2F7004C25
:10474400FFB20005FC67DE200EB0000DA03F400064
:1047540007F05FFFFFFFF13F622222200EC000023C
:104764000004FD86AF50003BFFD600004DFD101F36
:10477400C57004F3000CFFFFA048F753005F30003E
:1047840005F300005F300005F300005F300005F31F
:1047940000005F3000003CFFB2E905FC65AFF90E94
:1047A400C00008F93F500001F95F300000F93F6094
:1047B4000001F90ED00009F904FD77BEF8003BFFB3
:1047C400B2F700000005F409E9769FC0017CFFD828
:1047D400008F00000008F00000008F00000008F3C4
:1047E400BFFB208FFB79FE08F80006F58F10001F31
:1047F40078F00000F88F00000F88F00000F88F00B8
:10480400000F88F00000F89E1AF20008F08F08F0FC
:104814008F08F08F08F08F08F00008F20009F30009
:1048240000100007F10007F10007F10007F100078D
:10483400F10007F10007F10007F10007F10008F0AB
:10484400186EC03EFC208F00000008F00000008FAE
:1048540000000008F0001DE18F001DE208F01DE2D9
:10486400008F2DF30008FEFF70008FE2BF3008F2C6
:1048740001EE108F0003FB08F00007F78F8F8F8F76
:104884008F8F8F8F8F8F8F8F8E3CFE902BFFB20870
:10489400FFA7AFCFC79FE08F80009FC0005F58F194
:1048A4000005F50000F88F00004F40000F88F0006D
:1048B40004F40000F88F00004F40000F88F000045B
:1048C400F40000F88F00004F40000F808E3BFFB2D1
:1048D40008FFB79FE08F80006F58F10001F78F0049
:1048E400000F88F00000F88F00000F88F00000F837
:1048F4008F00000F80003BFFC50004FD77CF700ED2
:10490400D0000AF13F500003F65F300001F73F503A
:104914000003F60ED0000BF104FD77CF60003BFFDF
:10492400C5008E2BFFB3008FFC78EF408F90001EE4
:10493400D08F100007F28F000005F38F100007F2EC
:104944008F90001ED08FEB77EF408F2BFFB3008F3B
:10495400000000008F000000008F00000000004CE9
:10496400FFB2F705FD77CEF70ED0000BF73F5000EE
:1049740003F75F300001F73F500003F70ED0000B40
:10498400F705FD77CEF7004CFFA3F700000001F711
:1049940000000001F700000001F78E3CF08FFB706F
:1049A4008F80008F10008F00008F00008F00008F19
:1049B40000008F000003BFFD911FD769D05F300056
:1049C400003FB4100006EFFD7000025AF50100002C
:1049D400F86F966BF319DFFC4005F300005F3000BD
:1049E400CFFFFA048F753005F300005F300005F344
:1049F40000005F300004F400001FC680005EFC105D
:104A0400AE00002F5AE00002F5AE00002F5AE0007D
:104A140002F5AE00002F59F00004F57F4000BF51AD
:104A2400FF87CEF503BFFB3F500DC00000CC06F25C
:104A34000002F500F90009E0009F000F80002F60DC
:104A44006F10000CC0DB000005F6F4000000EFD08E
:104A54000000008F7000BB00009F10004F16F10093
:104A64000EF60009C00F6005FCB000F600AC00AB08
:104A74005F105F1005F11F50F70AB0000F76F009C0
:104A8400C0F50000ACCA004F8F000004FF4000EFE7
:104A9400A000000EE00008F400004F70009F208F7B
:104AA400305F5000CD2E900002FFD000000AF600C7
:104AB4000004FDE10001EB0DC000BE103F806F401B
:104AC400007F400DC00000CB06F30002F400EA00B2
:104AD40009D0008F101F70001F707F10000AE0D9EA
:104AE400000003FAF2000000CFB00000006F4000A5
:104AF4000000AD00001C69F600001BFE7000004FB2
:104B0400FFFFF915555BF400003F800001EC000045
:104B14000BE100008F400004F700001EE555535FD1
:104B2400FFFFFC002CF500AF6100CC0000DB0000AF
:104B3400DB0000DB0001EB001FF40004FA0000DBE3
:104B44000000DB0000DB0000CC0000BF61002CF59E
:104B54005F15F15F15F15F15F15F15F15F15F15FF9
:104B640015F15F15F15F10BF9003AF4001F6001F10
:104B74007001F7001F7000F9000AFB00FB201F7092
:104B840001F7001F7001F603AF50BF900000000052
:104B940000003EE500A50C85F62E20F004EFA003EE
:104BA40000012000004904900006D07D00000000B0
:104BB4000004FFFFFFFA4FA7777744F50000004F8A
:104BC40050000004F61111104FFFFFFF04F8444495
:104BD400404F50000004F50000004F50000004FA5C
:104BE4007777764FFFFFFFE000000EF10000000032
:104BF4005FF700000000CCAE00000003F53F50005A
:104C0400000AE00DC000001F8006F200007F1000C3
:104C1400F90000EB1111AF1005FFFFFFFF700CD47A
:104C240044444CD02F70000005F49F10000000EBAA
:104C34004FFFFFFFF34F966666614F500000004F31
:104C4400500000004F511100004FFFFFFD604F74F2
:104C5400445CF64F500000EC4F500000BE4F500033
:104C640000EB4F85557DF44FFFFFEB304FFFFFEB1B
:104C74003004F85557EF204F500004F604F50000B7
:104C84003F604F50003CE104FFFFFFF5004F7333DA
:104C94004AF604F500000CE04F5000009F04F500B4
:104CA400000DE04F85556BF704FFFFFFC6004FFF73
:104CB400FFFF14FA7777704F50000004F5000000EE
:104CC4004F50000004F50000004F50000004F500B0
:104CD40000004F50000004F50000004F5000000495
:104CE400F5000000002FFFFFFFC00002F97777EC0A
:104CF40000002F30000DC00003F30000DC00004F63
:104D040020000DC00004F10000DC00006F00000D65
:104D1400C00008E00000DC0000BB00000DC0001F64
:104D2400700000DC006CF877777EE73CFFFFFFFF44
:104D3400FFF6CB000000001F6CB000000001F66518
:104D44000000000008304FFFFFFFA4FA7777744F8C
:104D540050000004F50000004F61111104FFFFFF33
:104D6400F04F84444404F50000004F50000004F563
:104D74000000004FA7777764FFFFFFFE2F90000825
:104D8400F00002F9007F30008F0000BE0000DD005B
:104D940008F0005F500003F7008F001EA000000918
:104DA400F329F22AF10000002FFFFFFFF9000000B1
:104DB40009F75BF55CF1000002FA008F003F9000F8
:104DC40000BF2008F000AF30004F90008F0002FBBE
:104DD400000DE10008F00008F406F700008F000061
:104DE4001ED0000000000004AEFEA3000ED989EF1F
:104DF400400200001EC00000000CD00001117F60C2
:104E0400006FFFFA000014448FA000000006F300B6
:104E1400000005F50600000BF24FD868DF8004BEE1
:104E2400FEB4004F5000006F64F500002FF64F50A1
:104E3400000CFF64F50008F7F64F5004F92F64F5F1
:104E440001ED02F64F50BF302F64F56F7002F64F3C
:104E54008FB0002F64FFE10002F64FF400002F64CE
:104E6400F9000002F6001F302F3000005DED7000E5
:104E7400000000000004F5000006F64F500002FF99
:104E840064F50000CFF64F50008F7F64F5004F9219
:104E9400F64F501ED02F64F50BF302F64F56F70071
:104EA4002F64F8FB0002F64FFE10002F64FF400051
:104EB40002F64F9000002F604F500002F804F500F6
:104EC40000DC004F50009F2004F5005F50004F624B
:104ED4003E900004FFFFF100004F857F900004F531
:104EE400009F30004F5001ED0004F50005F7004F1E
:104EF40050000AF204F500001FC0000FFFFFFFE09E
:104F040000FA7777DE001F50000AE001F40000AEDB
:104F1400002F40000AE003F30000AE004F20000A17
:104F2400E005F10000AE008F00000AE00DB00000C3
:104F3400AE6CF600000AEBF9000000AE4F50000022
:104F4400000EA4FD00000007FA4FF6000001FFA4C4
:104F5400FFE000008FFA4F8F80001F9EA4F4AF1073
:104F64000AF1EA4F41F902F70EA4F407F2BD00EA90
:104F74004F400DDF400EA4F4005FB000EA4F400044
:104F840082000EA4F400000000EA4F5000003F64C9
:104F9400F5000003F64F5000003F64F5000003F6EF
:104FA4004F7222225F64FFFFFFFFF64F8555557F46
:104FB40064F5000003F64F5000003F64F500000361
:104FC400F64F5000003F64F5000003F600019DFF1A
:104FD400C6000004FFB89DFB0002FD200007FA0094
:104FE400AF20000009F30FA00000001F82F70000AB
:104FF4000000EB2F700000000EB0FA00000001F872
:105004000AF20000009F302FD200007FA0004FFB67
:1050140089DFB0000019DFFC60004FFFFFFFFF6471
:10502400FA777778F64F5000002F64F5000002F607
:105034004F5000002F64F5000002F64F5000002F7F
:1050440064F5000002F64F5000002F64F5000002E2
:10505400F64F5000002F64F5000002F64FFFFFD812
:10506400104FA777AFD04F500005F74F500000EB1B
:105074004F500000DC4F500002F94F72225EF24F95
:10508400FFFFFD304F955420004F500000004F505B
:105094000000004F5000000000019DFFC500004FBC
:1050A400FB89DFA002FD200007600AF20000000077
:1050B4000FA0000000002F70000000002F700000FF
:1050C40000000FA0000000000AF20000000002FD32
:1050D40020000760004FFB89DFA000029EFFC5008F
:1050E400CFFFFFFFF75777FC77730000F90000004C
:1050F40000F900000000F900000000F900000000C1
:10510400F900000000F900000000F900000000F9B7
:1051140000000000F900000000F900008F300000DA
:105124000EA1EB000006F207F30000EA000EA00057
:105134006F20007F200E900000EA06F2000007F2C4
:10514400E90000000EEF100000007F90000000094D
:10515400F10000048AF70000007FE800000000006E
:10516400001300000000000005F20000000005BE6E
:10517400FFFEA400000BFB78F67DF90009F5005F43
:105184002007F601F90005F2000CD03F50005F2023
:10519400007F04F40005F20007F11F80005F200087
:1051A400AE00BF3005F2004F8001EF946F449FC002
:1051B40000018EFFFFFD70000000017F5100000020
:1051C400000002710000002FB00002FC007F6000AC
:1051D400CF2000CF106F700002FB2FC0000008FE2C
:1051E400F20000000DF800000002FFC0000000BF44
:1051F400AF7000006F70CF20002FC002FC000BF2D4
:105204000007F606F700000CF24F5000007F204F15
:105214005000007F204F5000007F204F5000007F3F
:10522400204F5000007F204F5000007F204F50003F
:10523400007F204F5000007F204F5000007F204F00
:105244005000007F204FA77777BF864FFFFFFFFFF7
:10525400FE00000000009E00000000009E00000010
:105264000000472F7000008F02F7000008F02F7035
:1052740000008F02F7000008F01F7000008F00FC90
:10528400000008F008FB3248FF0009FFFFEDF000C2
:105294000144308F0000000008F0000000008F007F
:1052A40000000008F04F50000F80000CC4F500000F
:1052B400F80000CC4F50000F80000CC4F50000F83B
:1052C4000000CC4F50000F80000CC4F50000F80023
:1052D40000CC4F50000F80000CC4F50000F8000013
:1052E400CC4F50000F80000CC4F50000F80000CC37
:1052F4004FA7777FC7777EC4FFFFFFFFFFFFFC4FF9
:1053040050000F80000CC004F50000F80000CC0031
:105314004F50000F80000CC004F50000F80000CCD2
:10532400004F50000F80000CC004F50000F800008E
:10533400CC004F50000F80000CC004F50000F800B2
:1053440000CC004F50000F80000CC004F50000F8A2
:105354000000CC004FA7777FC7777EE734FFFFFFBD
:10536400FFFFFFFFF7000000000000000F700000C7
:105374000000000000F7000000000000000830CF2B
:10538400FFF20000000577AF200000000006F200E5
:10539400000000006F311000000006FFFFFFB200A4
:1053A400006F64447FE10006F200004F70006F203C
:1053B4000000F90006F200000F90006F200006F5CF
:1053C4000006F75559FC00006FFFFFD8004F50004E
:1053D400000007F24F5000000007F24F5000000099
:1053E40007F24F5110000007F24FFFFFFC3007F2A5
:1053F4004F74446EF307F24F500002F907F24F5016
:105404000000DC07F24F500000EB07F24F5000039E
:10541400F807F24F85558FE107F24FFFFFEA1007B7
:10542400F24F500000004F500000004F50000000A9
:105434004F511000004FFFFFFC304F74446EF34F88
:10544400500002F94F500000DC4F500000EB4F5069
:105454000003F84F85558FE14FFFFFEA10019DFFD0
:10546400C50003FFA89EF90008100009F70000001A
:10547400000CF0000011117F40009FFFFFF70002B5
:1054840044446F7000000006F400000000DF01B225
:1054940000009F703EFB89EF900019DFFC50004F25
:1054A400500006CFFC70004F5000CFB66AFC104F7E
:1054B400500AF500004FB04F503F90000008F44FE1
:1054C400507F20000001F84FA8DF00000000EB4FE0
:1054D400FFFF00000000EB4F507F20000001F84F59
:1054E400502F90000008F34F500AF500004FB04FC2
:1054F4005000CFB66AFC104F500006CFFC7000007D
:105504002AEFFFFF03FE9777CF0CF100009F0FA057
:1055140000009F1F9000009F0ED000009F07FA31EB
:1055240011AF008FFFFFFF000DC444BF008F2000A8
:105534009F02F800009F0CE000009F03AEFE800075
:10554400CD86AFA0020000AF00000006F203CFFF3B
:10555400FF20FC3228F23F50008F20EC327FF20310
:10556400CFFB7F20000000026200006BFFF5003ECD
:10557400FD952001ED20000008F10110000DA6EFBB
:10558400FC300FEE757EF20FF20002FA0FC000003D
:10559400BD0CD00000CD07F40003F900DF858FE1D6
:1055A4000019EFE9108FFFFE808F3348F68F00005B
:1055B400F98F0005F48FFFFFB08F2225EA8F0000DA
:1055C400AE8F4446FB8FFFFEA18FFFFFB8F66664E3
:1055D4008F000008F000008F000008F000008F002A
:1055E4000008F000008F00000000CFFFFFD0000D86
:1055F400C666DD0000D8000BD0000E7000BD0000B0
:10560400F6000BD0001F5000BD0005F1000BD006C2
:10561400ED6666DE60EFFFFFFFFF1E90000005F100
:10562400E90000005F10003BFFB20004FC66DF20CD
:105634000EB0000DB03F400006F04FFFFFFFF23FF9
:10564400722222200DD000020004FE869F60003BDF
:10565400FFD7004F5000F8000CD00AE000F8006FAC
:105664003001F800F801EA00007F31F919F1000077
:105674001FFFFFFF9000009F64FA4BF20003F90044
:10568400F801FC000DE100F8006F607F5000F800A5
:105694000CF107DFFC500E967DF5000000F90000C8
:1056A40005F4004FFF90000236F9000000CD5D962E
:1056B4007BF718DFFC608F00003F98F0001EF98F25
:1056C400000BEF98F008F4E98F05F70E98F3FA0051
:1056D400E98FED000E98FF2000E98F40000E900046
:1056E400800170000D507C00003DFC200000000093
:1056F400008F00003F98F0001EF98F000BEF98F028
:1057040008F4E98F05F70E98F3FA00E98FED000E1F
:1057140098FF2000E98F40000E908F0000CD08F024
:10572400008F208F003F6008F22DA0008FFFF30050
:1057340008F45EC0008F004F8008F0008F508F0087
:1057440000BE2000CFFFFFC00DC666DC00D8000CF1
:10575400C00E7000CC00F6000CC00F5000CC04F258
:10576400000CC4CD0000CCDE40000CC08F50000003
:105774007F48FD00001FF48FF70009EF48E7E102BE
:10578400F6F48E0E80BA2F48E05F6F22F48E00CFBD
:10579400802F48E003E002F48E0000002F408F00C9
:1057A400002F68F00002F68F00002F68F11113F645
:1057B4008FFFFFFF68F44446F68F00002F68F00067
:1057C40002F68F00002F60003BFFC50004FD87CF69
:1057D400700DD1000AF23F600002F64F400000F85D
:1057E4003F600002F60DD0000AF103FD77CF700090
:1057F4003BFFC5008FFFFFFF58F66668F58F00007A
:105804003F58F00003F58F00003F58F00003F58F78
:1058140000003F58F00003F58F00003F508F2BFF2E
:10582400B3008FEC78EF408FA0001DD08F200006CE
:10583400F28F000004F48F200006F28FA0000DD038
:105844008FEC77DF408F2BFFB3008F000000008FB9
:10585400000000008F00000000003BFFC5004FE87F
:105864007CF50DD1000713F60000004F4000000343
:10587400F60000000DD00006103FD77CF5003BFF7A
:10588400C500FFFFFFFD666ED665000DB000000D7C
:10589400B000000DB000000DB000000DB000000D10
:1058A400B000000DB0000BD00000AD004F40001F51
:1058B4006000DB0008F00006F200E800000F905FD3
:1058C4002000009F0CB0000002FAF40000000BFD61
:1058D400000000005F6000000009E000000B78F7A2
:1058E400000000AFE8000000000005F30000000025
:1058F400005F300000000005F300000000005F308E
:1059040000000029DFFFC810004FFAAF9AFE200EF6
:10591400D105F302EC03F5005F3007F14F3005F3D6
:10592400005F23F5005F3007F10ED105F302EC00B0
:105934004FFAAF9AFE200029DFFFC8100000005F75
:10594400300000000005F300000000005F3000009C
:105954005F6000BE109F206F4000DC3F800003FFAB
:10596400C000000BF5000005FDE10001EA1EB000D7
:10597400CE004F608F30009F308F00005F308F006B
:10598400005F308F00005F308F00005F308F0000B9
:105994005F308F00005F308F00005F308F6666AF2E
:1059A400838FFFFFFFF800000000E800000000E81C
:1059B4005F30004F45F30004F45F30004F44F400BF
:1059C40004F41FC313AF405FFFFDF40003304F40E6
:1059D400000004F40000004F408F0003F4000F980F
:1059E400F0003F4000F98F0003F4000F98F0003FEF
:1059F4004000F98F0003F4000F98F0003F4000F9D5
:105A04008F0003F4000F98F6668F9666F98FFFFFF8
:105A1400FFFFFF908F0003F4000F908F0003F4004A
:105A24000F908F0003F4000F908F0003F4000F9089
:105A34008F0003F4000F908F0003F4000F908F0089
:105A440003F4000F908F6668F9666FC58FFFFFFF40
:105A5400FFFFFD000000000000AD0000000000009A
:105A6400ADFFFF300000669F300000005F30000093
:105A7400005FFFFE70005F5338F6005F3000DB000C
:105A84005F3000EB005F6349F5005FFFFD608F004E
:105A940000002F68F0000002F68F0000002F68FF5E
:105AA400FFD602F68F333AF42F68F0000F92F68F88
:105AB4000000F82F68F334BF32F68FFFFC502F60DC
:105AC4008F0000008F0000008F0000008FFFFE7029
